{
  "address": "0x76231ba1b43a9F1233EAb9F4466675eBAfaE7169",
  "abi": [
    {
      "inputs": [
        {
          "internalType": "uint256",
          "name": "_delay",
          "type": "uint256"
        },
        {
          "internalType": "contract IERC20",
          "name": "_metis",
          "type": "address"
        }
      ],
      "stateMutability": "nonpayable",
      "type": "constructor"
    },
    {
      "anonymous": false,
      "inputs": [
        {
          "indexed": true,
          "internalType": "address",
          "name": "owner",
          "type": "address"
        },
        {
          "indexed": true,
          "internalType": "address",
          "name": "spender",
          "type": "address"
        },
        {
          "indexed": false,
          "internalType": "uint256",
          "name": "value",
          "type": "uint256"
        }
      ],
      "name": "Approval",
      "type": "event"
    },
    {
      "anonymous": false,
      "inputs": [
        {
          "indexed": true,
          "internalType": "address",
          "name": "user",
          "type": "address"
        },
        {
          "indexed": false,
          "internalType": "uint256",
          "name": "amount",
          "type": "uint256"
        }
      ],
      "name": "Deposit",
      "type": "event"
    },
    {
      "anonymous": false,
      "inputs": [
        {
          "indexed": false,
          "internalType": "uint8",
          "name": "version",
          "type": "uint8"
        }
      ],
      "name": "Initialized",
      "type": "event"
    },
    {
      "anonymous": false,
      "inputs": [
        {
          "indexed": true,
          "internalType": "address",
          "name": "previousOwner",
          "type": "address"
        },
        {
          "indexed": true,
          "internalType": "address",
          "name": "newOwner",
          "type": "address"
        }
      ],
      "name": "OwnershipTransferred",
      "type": "event"
    },
    {
      "anonymous": false,
      "inputs": [
        {
          "indexed": true,
          "internalType": "address",
          "name": "from",
          "type": "address"
        },
        {
          "indexed": true,
          "internalType": "address",
          "name": "to",
          "type": "address"
        },
        {
          "indexed": false,
          "internalType": "uint256",
          "name": "value",
          "type": "uint256"
        }
      ],
      "name": "Transfer",
      "type": "event"
    },
    {
      "anonymous": false,
      "inputs": [
        {
          "indexed": true,
          "internalType": "address",
          "name": "user",
          "type": "address"
        },
        {
          "indexed": true,
          "internalType": "address",
          "name": "recipient",
          "type": "address"
        },
        {
          "indexed": false,
          "internalType": "uint256",
          "name": "amount",
          "type": "uint256"
        }
      ],
      "name": "Unlock",
      "type": "event"
    },
    {
      "anonymous": false,
      "inputs": [
        {
          "indexed": true,
          "internalType": "address",
          "name": "user",
          "type": "address"
        },
        {
          "indexed": false,
          "internalType": "uint256",
          "name": "amount",
          "type": "uint256"
        }
      ],
      "name": "Withdrawal",
      "type": "event"
    },
    {
      "inputs": [
        {
          "internalType": "address",
          "name": "",
          "type": "address"
        },
        {
          "internalType": "address",
          "name": "",
          "type": "address"
        }
      ],
      "name": "allowance",
      "outputs": [
        {
          "internalType": "uint256",
          "name": "",
          "type": "uint256"
        }
      ],
      "stateMutability": "view",
      "type": "function"
    },
    {
      "inputs": [
        {
          "internalType": "address",
          "name": "guy",
          "type": "address"
        },
        {
          "internalType": "uint256",
          "name": "wad",
          "type": "uint256"
        }
      ],
      "name": "approve",
      "outputs": [
        {
          "internalType": "bool",
          "name": "",
          "type": "bool"
        }
      ],
      "stateMutability": "nonpayable",
      "type": "function"
    },
    {
      "inputs": [
        {
          "internalType": "address",
          "name": "",
          "type": "address"
        }
      ],
      "name": "balanceOf",
      "outputs": [
        {
          "internalType": "uint256",
          "name": "",
          "type": "uint256"
        }
      ],
      "stateMutability": "view",
      "type": "function"
    },
    {
      "inputs": [],
      "name": "config",
      "outputs": [
        {
          "internalType": "contract MetisConfig",
          "name": "",
          "type": "address"
        }
      ],
      "stateMutability": "view",
      "type": "function"
    },
    {
      "inputs": [],
      "name": "decimals",
      "outputs": [
        {
          "internalType": "uint8",
          "name": "",
          "type": "uint8"
        }
      ],
      "stateMutability": "view",
      "type": "function"
    },
    {
      "inputs": [],
      "name": "delay",
      "outputs": [
        {
          "internalType": "uint256",
          "name": "",
          "type": "uint256"
        }
      ],
      "stateMutability": "view",
      "type": "function"
    },
    {
      "inputs": [
        {
          "internalType": "uint256",
          "name": "_amount",
          "type": "uint256"
        }
      ],
      "name": "deposit",
      "outputs": [],
      "stateMutability": "nonpayable",
      "type": "function"
    },
    {
      "inputs": [
        {
          "internalType": "address",
          "name": "_guy",
          "type": "address"
        },
        {
          "internalType": "uint256",
          "name": "_amount",
          "type": "uint256"
        }
      ],
      "name": "hold",
      "outputs": [],
      "stateMutability": "nonpayable",
      "type": "function"
    },
    {
      "inputs": [
        {
          "internalType": "address",
          "name": "_owner",
          "type": "address"
        },
        {
          "internalType": "contract MetisConfig",
          "name": "_config",
          "type": "address"
        }
      ],
      "name": "initialize",
      "outputs": [],
      "stateMutability": "nonpayable",
      "type": "function"
    },
    {
      "inputs": [],
      "name": "metisToken",
      "outputs": [
        {
          "internalType": "contract IERC20",
          "name": "",
          "type": "address"
        }
      ],
      "stateMutability": "view",
      "type": "function"
    },
    {
      "inputs": [],
      "name": "name",
      "outputs": [
        {
          "internalType": "string",
          "name": "",
          "type": "string"
        }
      ],
      "stateMutability": "pure",
      "type": "function"
    },
    {
      "inputs": [],
      "name": "owner",
      "outputs": [
        {
          "internalType": "address",
          "name": "",
          "type": "address"
        }
      ],
      "stateMutability": "view",
      "type": "function"
    },
    {
      "inputs": [
        {
          "internalType": "uint256",
          "name": "_amount",
          "type": "uint256"
        }
      ],
      "name": "recover",
      "outputs": [],
      "stateMutability": "nonpayable",
      "type": "function"
    },
    {
      "inputs": [],
      "name": "renounceOwnership",
      "outputs": [],
      "stateMutability": "nonpayable",
      "type": "function"
    },
    {
      "inputs": [],
      "name": "symbol",
      "outputs": [
        {
          "internalType": "string",
          "name": "",
          "type": "string"
        }
      ],
      "stateMutability": "pure",
      "type": "function"
    },
    {
      "inputs": [],
      "name": "totalSupply",
      "outputs": [
        {
          "internalType": "uint256",
          "name": "",
          "type": "uint256"
        }
      ],
      "stateMutability": "view",
      "type": "function"
    },
    {
      "inputs": [
        {
          "internalType": "address",
          "name": "dst",
          "type": "address"
        },
        {
          "internalType": "uint256",
          "name": "wad",
          "type": "uint256"
        }
      ],
      "name": "transfer",
      "outputs": [
        {
          "internalType": "bool",
          "name": "",
          "type": "bool"
        }
      ],
      "stateMutability": "nonpayable",
      "type": "function"
    },
    {
      "inputs": [
        {
          "internalType": "address",
          "name": "src",
          "type": "address"
        },
        {
          "internalType": "address",
          "name": "dst",
          "type": "address"
        },
        {
          "internalType": "uint256",
          "name": "wad",
          "type": "uint256"
        }
      ],
      "name": "transferFrom",
      "outputs": [
        {
          "internalType": "bool",
          "name": "",
          "type": "bool"
        }
      ],
      "stateMutability": "nonpayable",
      "type": "function"
    },
    {
      "inputs": [
        {
          "internalType": "address",
          "name": "newOwner",
          "type": "address"
        }
      ],
      "name": "transferOwnership",
      "outputs": [],
      "stateMutability": "nonpayable",
      "type": "function"
    },
    {
      "inputs": [
        {
          "internalType": "address",
          "name": "_guy",
          "type": "address"
        },
        {
          "internalType": "uint256",
          "name": "_amount",
          "type": "uint256"
        }
      ],
      "name": "unlock",
      "outputs": [],
      "stateMutability": "nonpayable",
      "type": "function"
    },
    {
      "inputs": [],
      "name": "version",
      "outputs": [
        {
          "internalType": "string",
          "name": "",
          "type": "string"
        }
      ],
      "stateMutability": "view",
      "type": "function"
    },
    {
      "inputs": [
        {
          "internalType": "uint256",
          "name": "_amount",
          "type": "uint256"
        }
      ],
      "name": "withdraw",
      "outputs": [],
      "stateMutability": "nonpayable",
      "type": "function"
    },
    {
      "inputs": [
        {
          "internalType": "address",
          "name": "_guy",
          "type": "address"
        },
        {
          "internalType": "uint256",
          "name": "_amount",
          "type": "uint256"
        }
      ],
      "name": "withdraw",
      "outputs": [],
      "stateMutability": "nonpayable",
      "type": "function"
    },
    {
      "inputs": [
        {
          "internalType": "address",
          "name": "",
          "type": "address"
        },
        {
          "internalType": "address",
          "name": "",
          "type": "address"
        }
      ],
      "name": "withdrawals",
      "outputs": [
        {
          "internalType": "uint256",
          "name": "amount",
          "type": "uint256"
        },
        {
          "internalType": "uint256",
          "name": "timestamp",
          "type": "uint256"
        }
      ],
      "stateMutability": "view",
      "type": "function"
    }
  ],
  "transactionHash": "0xad0b0d4fedde4114f49ef4200bede5601fd27d4ee49f8ce232453f3172321eee",
  "args": [
    86400,
    "0x7f49160EB9BB068101d445fe77E17ecDb37D0B47"
  ],
  "numDeployments": 1,
  "solcInputHash": "83ecad5ab7a3e180fbc0abc26341617e",
  "bytecode": "0x60c06040523480156200001157600080fd5b5060405162001932380380620019328339810160408190526200003491620002e5565b60a08290526001600160a01b038116608052620000536000806200005b565b505062000324565b600054610100900460ff16158080156200007c5750600054600160ff909116105b80620000ac57506200009930620001b560201b620011da1760201c565b158015620000ac575060005460ff166001145b620001155760405162461bcd60e51b815260206004820152602e60248201527f496e697469616c697a61626c653a20636f6e747261637420697320616c72656160448201526d191e481a5b9a5d1a585b1a5e995960921b60648201526084015b60405180910390fd5b6000805460ff19166001179055801562000139576000805461ff0019166101001790555b62000143620001c4565b6200014e836200022c565b606580546001600160a01b0319166001600160a01b0384161790558015620001b0576000805461ff0019169055604051600181527f7f26b83ff96e1f2b6a682f133852f6798a09c465da95921460cefb38474024989060200160405180910390a15b505050565b6001600160a01b03163b151590565b600054610100900460ff16620002205760405162461bcd60e51b815260206004820152602b60248201526000805160206200191283398151915260448201526a6e697469616c697a696e6760a81b60648201526084016200010c565b6200022a6200027e565b565b603380546001600160a01b038381166001600160a01b0319831681179093556040519116919082907f8be0079c531659141344cd1fd0a4f28419497f9722a3daafe3b4186f6b6457e090600090a35050565b600054610100900460ff16620002da5760405162461bcd60e51b815260206004820152602b60248201526000805160206200191283398151915260448201526a6e697469616c697a696e6760a81b60648201526084016200010c565b6200022a336200022c565b60008060408385031215620002f957600080fd5b825160208401519092506001600160a01b03811681146200031957600080fd5b809150509250929050565b60805160a05161159e62000374600039600081816102c70152610fc401526000818161041d015281816105750152818161061a015281816106ad01528181610c64015261112a015261159e6000f3fe608060405234801561001057600080fd5b50600436106101985760003560e01c806379502c55116100e3578063b6b55f251161008c578063dd62ed3e11610066578063dd62ed3e14610441578063f2fde38b1461046c578063f3fef3a31461047f57600080fd5b8063b6b55f25146103c1578063cd47bde1146103d4578063d16cb6d81461041b57600080fd5b806395d89b41116100bd57806395d89b4114610362578063977a5ec51461039b578063a9059cbb146103ae57600080fd5b806379502c55146103135780637eee288d1461033e5780638da5cb5b1461035157600080fd5b8063313ce567116101455780636a42b8f81161011f5780636a42b8f8146102c557806370a08231146102eb578063715018a61461030b57600080fd5b8063313ce5671461025c578063485cc9551461027657806354fd4d501461028957600080fd5b806318160ddd1161017657806318160ddd1461022057806323b872dd146102365780632e1a7d4d1461024957600080fd5b806306fdde031461019d578063095ea7b3146101e85780630ca356821461020b575b600080fd5b60408051808201909152600d81527f57726170706564204d657469730000000000000000000000000000000000000060208201525b6040516101df9190611389565b60405180910390f35b6101fb6101f63660046113f3565b610492565b60405190151581526020016101df565b61021e61021936600461141f565b6104fe565b005b610228610695565b6040519081526020016101df565b6101fb610244366004611438565b610725565b61021e61025736600461141f565b610961565b610264601281565b60405160ff90911681526020016101df565b61021e610284366004611479565b61096e565b6101d26040518060400160405280600581526020017f312e302e3000000000000000000000000000000000000000000000000000000081525081565b7f0000000000000000000000000000000000000000000000000000000000000000610228565b6102286102f93660046114b2565b60666020526000908152604090205481565b61021e610ac1565b606554610326906001600160a01b031681565b6040516001600160a01b0390911681526020016101df565b61021e61034c3660046113f3565b610ad5565b6033546001600160a01b0316610326565b60408051808201909152600681527f574d45544953000000000000000000000000000000000000000000000000000060208201526101d2565b61021e6103a93660046113f3565b610b5c565b6101fb6103bc3660046113f3565b610c15565b61021e6103cf36600461141f565b610c29565b6104066103e2366004611479565b60686020908152600092835260408084209091529082529020805460019091015482565b604080519283526020830191909152016101df565b7f0000000000000000000000000000000000000000000000000000000000000000610326565b61022861044f366004611479565b606760209081526000928352604080842090915290825290205481565b61021e61047a3660046114b2565b610d36565b61021e61048d3660046113f3565b610dc3565b3360008181526067602090815260408083206001600160a01b038716808552925280832085905551919290917f8c5be1e5ebec7d5bd14f71427d1e84f3dd0314c0f7b2291e5b200ac8c7c3b925906104ed9086815260200190565b60405180910390a350600192915050565b6033546001600160a01b0316331461055d5760405162461bcd60e51b815260206004820152601860248201527f44656c61796564574d657469733a206e6f74206f776e6572000000000000000060448201526064015b60405180910390fd5b6040516370a0823160e01b81523060048201526000907f00000000000000000000000000000000000000000000000000000000000000006001600160a01b0316906370a0823190602401602060405180830381865afa1580156105c4573d6000803e3d6000fd5b505050506040513d601f19601f820116820180604052508101906105e891906114cf565b905060008183106105f957816105fb565b825b60405163a9059cbb60e01b8152336004820152602481018290529091507f00000000000000000000000000000000000000000000000000000000000000006001600160a01b03169063a9059cbb906044016020604051808303816000875af115801561066b573d6000803e3d6000fd5b505050506040513d601f19601f8201168201806040525081019061068f91906114e8565b50505050565b6040516370a0823160e01b81523060048201526000907f00000000000000000000000000000000000000000000000000000000000000006001600160a01b0316906370a0823190602401602060405180830381865afa1580156106fc573d6000803e3d6000fd5b505050506040513d601f19601f8201168201806040525081019061072091906114cf565b905090565b6001600160a01b0383166000908152606660205260408120548211156107995760405162461bcd60e51b815260206004820152602360248201527f44656c61796564574d657469733a20696e73756666696369656e742062616c616044820152626e636560e81b6064820152608401610554565b6001600160a01b03841633148015906107d757506001600160a01b038416600090815260676020908152604080832033845290915290205460001914155b156108ae576001600160a01b03841660009081526067602090815260408083203384529091529020548211156108755760405162461bcd60e51b815260206004820152602560248201527f44656c61796564574d657469733a20696e73756666696369656e7420616c6c6f60448201527f77616e63650000000000000000000000000000000000000000000000000000006064820152608401610554565b6001600160a01b0384166000908152606760209081526040808320338452909152812080548492906108a8908490611539565b90915550505b6001600160a01b038416600090815260666020526040812080548492906108d6908490611539565b90915550506001600160a01b03831660009081526066602052604081208054849290610903908490611550565b92505081905550826001600160a01b0316846001600160a01b03167fddf252ad1be2c89b69c2b068fc378daa952ba7f163c4a11628f55a4df523b3ef8460405161094f91815260200190565b60405180910390a35060019392505050565b61096b3382610dc3565b50565b600054610100900460ff161580801561098e5750600054600160ff909116105b806109a85750303b1580156109a8575060005460ff166001145b610a1a5760405162461bcd60e51b815260206004820152602e60248201527f496e697469616c697a61626c653a20636f6e747261637420697320616c72656160448201527f647920696e697469616c697a65640000000000000000000000000000000000006064820152608401610554565b6000805460ff191660011790558015610a3d576000805461ff0019166101001790555b610a456111e9565b610a4e8361125c565b6065805473ffffffffffffffffffffffffffffffffffffffff19166001600160a01b0384161790558015610abc576000805461ff0019169055604051600181527f7f26b83ff96e1f2b6a682f133852f6798a09c465da95921460cefb38474024989060200160405180910390a15b505050565b610ac96112bb565b610ad3600061125c565b565b3360009081526068602090815260408083206001600160a01b03861684529091528120426001820155805490918391839190610b12908490611550565b90915550506040518281526001600160a01b0384169033907fc1c90b8e0705b212262c0dbd7580efe1862c2f185bf96899226f7596beb2db099060200160405180910390a3505050565b6033546001600160a01b03163314610bb65760405162461bcd60e51b815260206004820152601860248201527f44656c61796564574d657469733a206e6f74206f776e657200000000000000006044820152606401610554565b6001600160a01b03821660008181526067602090815260408083203380855290835292819020859055518481529192917f8c5be1e5ebec7d5bd14f71427d1e84f3dd0314c0f7b2291e5b200ac8c7c3b925910160405180910390a35050565b6000610c22338484610725565b9392505050565b6040517f23b872dd000000000000000000000000000000000000000000000000000000008152336004820152306024820152604481018290527f00000000000000000000000000000000000000000000000000000000000000006001600160a01b0316906323b872dd906064016020604051808303816000875af1158015610cb5573d6000803e3d6000fd5b505050506040513d601f19601f82011682018060405250810190610cd991906114e8565b503360009081526066602052604081208054839290610cf9908490611550565b909155505060405181815233907fe1fffcc4923d04b559f4d29a8bfc6cda04eb5b0d3c460751c2402c5c5cc9109c9060200160405180910390a250565b610d3e6112bb565b6001600160a01b038116610dba5760405162461bcd60e51b815260206004820152602660248201527f4f776e61626c653a206e6577206f776e657220697320746865207a65726f206160448201527f64647265737300000000000000000000000000000000000000000000000000006064820152608401610554565b61096b8161125c565b606560009054906101000a90046001600160a01b03166001600160a01b0316635c975abb6040518163ffffffff1660e01b8152600401602060405180830381865afa158015610e16573d6000803e3d6000fd5b505050506040513d601f19601f82011682018060405250810190610e3a91906114e8565b15610ead5760405162461bcd60e51b815260206004820152602160248201527f44656c61796564574d657469733a20636f6e747261637420697320706175736560448201527f64000000000000000000000000000000000000000000000000000000000000006064820152608401610554565b3360009081526068602090815260408083206001600160a01b038616845290915290208054821115610f475760405162461bcd60e51b815260206004820152602f60248201527f44656c61796564574d657469733a20696e73756666696369656e7420756e6c6f60448201527f636b6564207769746864726177616c00000000000000000000000000000000006064820152608401610554565b6000816001015411610fc15760405162461bcd60e51b815260206004820152602660248201527f44656c61796564574d657469733a207769746864726177616c206e6f7420756e60448201527f6c6f636b656400000000000000000000000000000000000000000000000000006064820152608401610554565b427f00000000000000000000000000000000000000000000000000000000000000008260010154610ff29190611550565b11156110665760405162461bcd60e51b815260206004820152602760248201527f44656c61796564574d657469733a207769746864726177616c2064656c61792060448201527f6e6f74206d6574000000000000000000000000000000000000000000000000006064820152608401610554565b336000908152606660205260409020548211156110d15760405162461bcd60e51b815260206004820152602360248201527f44656c61796564574d657469733a20696e73756666696369656e742062616c616044820152626e636560e81b6064820152608401610554565b818160000160008282546110e59190611539565b90915550503360009081526066602052604081208054849290611109908490611539565b909155505060405163a9059cbb60e01b8152336004820152602481018390527f00000000000000000000000000000000000000000000000000000000000000006001600160a01b03169063a9059cbb906044016020604051808303816000875af115801561117b573d6000803e3d6000fd5b505050506040513d601f19601f8201168201806040525081019061119f91906114e8565b5060405182815233907f7fcf532c15f0a6db0bd6d0e038bea71d30d808c7d98cb3bf7268a95bf5081b659060200160405180910390a2505050565b6001600160a01b03163b151590565b600054610100900460ff166112545760405162461bcd60e51b815260206004820152602b60248201527f496e697469616c697a61626c653a20636f6e7472616374206973206e6f74206960448201526a6e697469616c697a696e6760a81b6064820152608401610554565b610ad3611315565b603380546001600160a01b0383811673ffffffffffffffffffffffffffffffffffffffff19831681179093556040519116919082907f8be0079c531659141344cd1fd0a4f28419497f9722a3daafe3b4186f6b6457e090600090a35050565b6033546001600160a01b03163314610ad35760405162461bcd60e51b815260206004820181905260248201527f4f776e61626c653a2063616c6c6572206973206e6f7420746865206f776e65726044820152606401610554565b600054610100900460ff166113805760405162461bcd60e51b815260206004820152602b60248201527f496e697469616c697a61626c653a20636f6e7472616374206973206e6f74206960448201526a6e697469616c697a696e6760a81b6064820152608401610554565b610ad33361125c565b600060208083528351808285015260005b818110156113b65785810183015185820160400152820161139a565b818111156113c8576000604083870101525b50601f01601f1916929092016040019392505050565b6001600160a01b038116811461096b57600080fd5b6000806040838503121561140657600080fd5b8235611411816113de565b946020939093013593505050565b60006020828403121561143157600080fd5b5035919050565b60008060006060848603121561144d57600080fd5b8335611458816113de565b92506020840135611468816113de565b929592945050506040919091013590565b6000806040838503121561148c57600080fd5b8235611497816113de565b915060208301356114a7816113de565b809150509250929050565b6000602082840312156114c457600080fd5b8135610c22816113de565b6000602082840312156114e157600080fd5b5051919050565b6000602082840312156114fa57600080fd5b81518015158114610c2257600080fd5b7f4e487b7100000000000000000000000000000000000000000000000000000000600052601160045260246000fd5b60008282101561154b5761154b61150a565b500390565b600082198211156115635761156361150a565b50019056fea26469706673582212201a35fce2e12092e1eebc4514063843afb59f1541b73ff55cd0118aa0efa9c6ab64736f6c634300080f0033496e697469616c697a61626c653a20636f6e7472616374206973206e6f742069",
  "devdoc": {
    "details": "This contract follows the same pattern as DelayedWETH but for Metis ERC20 token",
    "kind": "dev",
    "methods": {
      "constructor": {
        "params": {
          "_delay": "The delay for withdrawals in seconds.",
          "_metis": "The Metis token contract address"
        }
      },
      "deposit(uint256)": {
        "params": {
          "_amount": "Amount of Metis tokens to deposit"
        }
      },
      "hold(address,uint256)": {
        "params": {
          "_amount": "The amount to hold",
          "_guy": "The user address"
        }
      },
      "initialize(address,address)": {
        "params": {
          "_config": "Address of the MetisConfig contract.",
          "_owner": "The address of the owner."
        }
      },
      "owner()": {
        "details": "Returns the address of the current owner."
      },
      "recover(uint256)": {
        "params": {
          "_amount": "The amount to recover"
        }
      },
      "renounceOwnership()": {
        "details": "Leaves the contract without owner. It will not be possible to call `onlyOwner` functions anymore. Can only be called by the current owner. NOTE: Renouncing ownership will leave the contract without an owner, thereby removing any functionality that is only available to the owner."
      },
      "totalSupply()": {
        "details": "Returns the amount of tokens in existence."
      },
      "transferOwnership(address)": {
        "details": "Transfers ownership of the contract to a new account (`newOwner`). Can only be called by the current owner."
      },
      "unlock(address,uint256)": {
        "params": {
          "_amount": "The amount to unlock",
          "_guy": "The recipient address"
        }
      },
      "withdraw(address,uint256)": {
        "params": {
          "_amount": "The amount of WETH to withdraw.",
          "_guy": "Sub-account to withdraw from."
        }
      },
      "withdraw(uint256)": {
        "params": {
          "_amount": "The amount to withdraw"
        }
      }
    },
    "stateVariables": {
      "version": {
        "custom:semver": "1.0.0"
      },
      "withdrawals": {
        "params": {
          "_recipient": "The recipient address",
          "_user": "The user address"
        }
      }
    },
    "title": "DelayedWMetis",
    "version": 1
  },
  "userdoc": {
    "events": {
      "Deposit(address,uint256)": {
        "notice": "Emitted when tokens are deposited"
      },
      "Unlock(address,address,uint256)": {
        "notice": "Emitted when a withdrawal is unlocked"
      },
      "Withdrawal(address,uint256)": {
        "notice": "Emitted when tokens are withdrawn"
      }
    },
    "kind": "user",
    "methods": {
      "allowance(address,address)": {
        "notice": "Mapping of account allowances"
      },
      "balanceOf(address)": {
        "notice": "Mapping of account balances"
      },
      "config()": {
        "notice": "Address of the MetisConfig contract."
      },
      "delay()": {
        "notice": "Returns the delay period for withdrawals"
      },
      "deposit(uint256)": {
        "notice": "Deposits Metis tokens into the contract"
      },
      "hold(address,uint256)": {
        "notice": "Allows the owner to hold tokens from a user"
      },
      "initialize(address,address)": {
        "notice": "Initializes the contract."
      },
      "metisToken()": {
        "notice": "Returns the underlying Metis token contract address"
      },
      "recover(uint256)": {
        "notice": "Allows the owner to recover tokens from the contract"
      },
      "unlock(address,uint256)": {
        "notice": "Unlocks tokens for withdrawal"
      },
      "version()": {
        "notice": "Semantic version."
      },
      "withdraw(address,uint256)": {
        "notice": "Extension to withdrawal, must provide a sub-account to withdraw from."
      },
      "withdraw(uint256)": {
        "notice": "Withdraws tokens to msg.sender"
      },
      "withdrawals(address,address)": {
        "notice": "Returns the withdrawal request for a given user and recipient"
      }
    },
    "notice": "DelayedWMetis is a wrapper for Metis token that allows for delayed withdrawals.",
    "version": 1
  },
  "storageLayout": {
    "storage": [
      {
        "astId": 138,
        "contract": "contracts/L1/dispute/wmetis/DelayedWMetis.sol:DelayedWMetis",
        "label": "_initialized",
        "offset": 0,
        "slot": "0",
        "type": "t_uint8"
      },
      {
        "astId": 141,
        "contract": "contracts/L1/dispute/wmetis/DelayedWMetis.sol:DelayedWMetis",
        "label": "_initializing",
        "offset": 1,
        "slot": "0",
        "type": "t_bool"
      },
      {
        "astId": 752,
        "contract": "contracts/L1/dispute/wmetis/DelayedWMetis.sol:DelayedWMetis",
        "label": "__gap",
        "offset": 0,
        "slot": "1",
        "type": "t_array(t_uint256)50_storage"
      },
      {
        "astId": 10,
        "contract": "contracts/L1/dispute/wmetis/DelayedWMetis.sol:DelayedWMetis",
        "label": "_owner",
        "offset": 0,
        "slot": "51",
        "type": "t_address"
      },
      {
        "astId": 130,
        "contract": "contracts/L1/dispute/wmetis/DelayedWMetis.sol:DelayedWMetis",
        "label": "__gap",
        "offset": 0,
        "slot": "52",
        "type": "t_array(t_uint256)49_storage"
      },
      {
        "astId": 16266,
        "contract": "contracts/L1/dispute/wmetis/DelayedWMetis.sol:DelayedWMetis",
        "label": "config",
        "offset": 0,
        "slot": "101",
        "type": "t_contract(MetisConfig)10396"
      },
      {
        "astId": 16271,
        "contract": "contracts/L1/dispute/wmetis/DelayedWMetis.sol:DelayedWMetis",
        "label": "balanceOf",
        "offset": 0,
        "slot": "102",
        "type": "t_mapping(t_address,t_uint256)"
      },
      {
        "astId": 16278,
        "contract": "contracts/L1/dispute/wmetis/DelayedWMetis.sol:DelayedWMetis",
        "label": "allowance",
        "offset": 0,
        "slot": "103",
        "type": "t_mapping(t_address,t_mapping(t_address,t_uint256))"
      },
      {
        "astId": 16286,
        "contract": "contracts/L1/dispute/wmetis/DelayedWMetis.sol:DelayedWMetis",
        "label": "withdrawals",
        "offset": 0,
        "slot": "104",
        "type": "t_mapping(t_address,t_mapping(t_address,t_struct(WithdrawalRequest)15010_storage))"
      }
    ],
    "types": {
      "t_address": {
        "encoding": "inplace",
        "label": "address",
        "numberOfBytes": "20"
      },
      "t_array(t_uint256)49_storage": {
        "base": "t_uint256",
        "encoding": "inplace",
        "label": "uint256[49]",
        "numberOfBytes": "1568"
      },
      "t_array(t_uint256)50_storage": {
        "base": "t_uint256",
        "encoding": "inplace",
        "label": "uint256[50]",
        "numberOfBytes": "1600"
      },
      "t_bool": {
        "encoding": "inplace",
        "label": "bool",
        "numberOfBytes": "1"
      },
      "t_contract(MetisConfig)10396": {
        "encoding": "inplace",
        "label": "contract MetisConfig",
        "numberOfBytes": "20"
      },
      "t_mapping(t_address,t_mapping(t_address,t_struct(WithdrawalRequest)15010_storage))": {
        "encoding": "mapping",
        "key": "t_address",
        "label": "mapping(address => mapping(address => struct IDelayedWMetis.WithdrawalRequest))",
        "numberOfBytes": "32",
        "value": "t_mapping(t_address,t_struct(WithdrawalRequest)15010_storage)"
      },
      "t_mapping(t_address,t_mapping(t_address,t_uint256))": {
        "encoding": "mapping",
        "key": "t_address",
        "label": "mapping(address => mapping(address => uint256))",
        "numberOfBytes": "32",
        "value": "t_mapping(t_address,t_uint256)"
      },
      "t_mapping(t_address,t_struct(WithdrawalRequest)15010_storage)": {
        "encoding": "mapping",
        "key": "t_address",
        "label": "mapping(address => struct IDelayedWMetis.WithdrawalRequest)",
        "numberOfBytes": "32",
        "value": "t_struct(WithdrawalRequest)15010_storage"
      },
      "t_mapping(t_address,t_uint256)": {
        "encoding": "mapping",
        "key": "t_address",
        "label": "mapping(address => uint256)",
        "numberOfBytes": "32",
        "value": "t_uint256"
      },
      "t_struct(WithdrawalRequest)15010_storage": {
        "encoding": "inplace",
        "label": "struct IDelayedWMetis.WithdrawalRequest",
        "members": [
          {
            "astId": 15007,
            "contract": "contracts/L1/dispute/wmetis/DelayedWMetis.sol:DelayedWMetis",
            "label": "amount",
            "offset": 0,
            "slot": "0",
            "type": "t_uint256"
          },
          {
            "astId": 15009,
            "contract": "contracts/L1/dispute/wmetis/DelayedWMetis.sol:DelayedWMetis",
            "label": "timestamp",
            "offset": 0,
            "slot": "1",
            "type": "t_uint256"
          }
        ],
        "numberOfBytes": "64"
      },
      "t_uint256": {
        "encoding": "inplace",
        "label": "uint256",
        "numberOfBytes": "32"
      },
      "t_uint8": {
        "encoding": "inplace",
        "label": "uint8",
        "numberOfBytes": "1"
      }
    }
  }
}