{
  "address": "0xb0C8ca2e5a343Bc6afa4de9F9C1b76F2E566184E",
  "abi": [
    {
      "inputs": [],
      "stateMutability": "nonpayable",
      "type": "constructor"
    },
    {
      "inputs": [],
      "name": "InvalidGameStatus",
      "type": "error"
    },
    {
      "inputs": [],
      "name": "UnregisteredGame",
      "type": "error"
    },
    {
      "anonymous": false,
      "inputs": [
        {
          "indexed": true,
          "internalType": "address",
          "name": "user",
          "type": "address"
        },
        {
          "indexed": false,
          "internalType": "uint256",
          "name": "amount",
          "type": "uint256"
        }
      ],
      "name": "Deposit",
      "type": "event"
    },
    {
      "anonymous": false,
      "inputs": [
        {
          "indexed": false,
          "internalType": "uint8",
          "name": "version",
          "type": "uint8"
        }
      ],
      "name": "Initialized",
      "type": "event"
    },
    {
      "anonymous": false,
      "inputs": [
        {
          "indexed": false,
          "internalType": "uint256",
          "name": "oldPeriod",
          "type": "uint256"
        },
        {
          "indexed": false,
          "internalType": "uint256",
          "name": "newPeriod",
          "type": "uint256"
        }
      ],
      "name": "LockPeriodUpdated",
      "type": "event"
    },
    {
      "anonymous": false,
      "inputs": [
        {
          "indexed": true,
          "internalType": "address",
          "name": "previousOwner",
          "type": "address"
        },
        {
          "indexed": true,
          "internalType": "address",
          "name": "newOwner",
          "type": "address"
        }
      ],
      "name": "OwnershipTransferred",
      "type": "event"
    },
    {
      "anonymous": false,
      "inputs": [
        {
          "indexed": false,
          "internalType": "uint256",
          "name": "oldRatio",
          "type": "uint256"
        },
        {
          "indexed": false,
          "internalType": "uint256",
          "name": "newRatio",
          "type": "uint256"
        }
      ],
      "name": "SlashRatioUpdated",
      "type": "event"
    },
    {
      "anonymous": false,
      "inputs": [
        {
          "indexed": true,
          "internalType": "address",
          "name": "recipient",
          "type": "address"
        },
        {
          "indexed": false,
          "internalType": "uint256",
          "name": "amount",
          "type": "uint256"
        }
      ],
      "name": "Slashed",
      "type": "event"
    },
    {
      "anonymous": false,
      "inputs": [
        {
          "indexed": true,
          "internalType": "address",
          "name": "user",
          "type": "address"
        },
        {
          "indexed": false,
          "internalType": "uint256",
          "name": "amount",
          "type": "uint256"
        }
      ],
      "name": "Unlock",
      "type": "event"
    },
    {
      "anonymous": false,
      "inputs": [
        {
          "indexed": true,
          "internalType": "address",
          "name": "user",
          "type": "address"
        },
        {
          "indexed": false,
          "internalType": "uint256",
          "name": "amount",
          "type": "uint256"
        }
      ],
      "name": "Withdraw",
      "type": "event"
    },
    {
      "inputs": [],
      "name": "DISPUTE_GAME_FACTORY_NAME",
      "outputs": [
        {
          "internalType": "string",
          "name": "",
          "type": "string"
        }
      ],
      "stateMutability": "view",
      "type": "function"
    },
    {
      "inputs": [],
      "name": "addressManager",
      "outputs": [
        {
          "internalType": "contract Lib_AddressManager",
          "name": "",
          "type": "address"
        }
      ],
      "stateMutability": "view",
      "type": "function"
    },
    {
      "inputs": [
        {
          "internalType": "address",
          "name": "",
          "type": "address"
        }
      ],
      "name": "balanceOf",
      "outputs": [
        {
          "internalType": "uint256",
          "name": "",
          "type": "uint256"
        }
      ],
      "stateMutability": "view",
      "type": "function"
    },
    {
      "inputs": [],
      "name": "config",
      "outputs": [
        {
          "internalType": "contract MetisConfig",
          "name": "",
          "type": "address"
        }
      ],
      "stateMutability": "view",
      "type": "function"
    },
    {
      "inputs": [
        {
          "internalType": "uint256",
          "name": "_amount",
          "type": "uint256"
        }
      ],
      "name": "deposit",
      "outputs": [],
      "stateMutability": "nonpayable",
      "type": "function"
    },
    {
      "inputs": [
        {
          "internalType": "uint256",
          "name": "",
          "type": "uint256"
        }
      ],
      "name": "depositedSequencers",
      "outputs": [
        {
          "internalType": "address",
          "name": "",
          "type": "address"
        }
      ],
      "stateMutability": "view",
      "type": "function"
    },
    {
      "inputs": [
        {
          "internalType": "address",
          "name": "_user",
          "type": "address"
        }
      ],
      "name": "getWithdrawalRequest",
      "outputs": [
        {
          "internalType": "uint256",
          "name": "amount",
          "type": "uint256"
        },
        {
          "internalType": "uint256",
          "name": "timestamp",
          "type": "uint256"
        }
      ],
      "stateMutability": "view",
      "type": "function"
    },
    {
      "inputs": [
        {
          "internalType": "address",
          "name": "_owner",
          "type": "address"
        },
        {
          "internalType": "address",
          "name": "_token",
          "type": "address"
        },
        {
          "internalType": "uint256",
          "name": "_lockPeriod",
          "type": "uint256"
        },
        {
          "internalType": "uint256",
          "name": "_slashRatio",
          "type": "uint256"
        },
        {
          "internalType": "contract Lib_AddressManager",
          "name": "_addressManager",
          "type": "address"
        },
        {
          "internalType": "contract MetisConfig",
          "name": "_config",
          "type": "address"
        }
      ],
      "name": "initialize",
      "outputs": [],
      "stateMutability": "nonpayable",
      "type": "function"
    },
    {
      "inputs": [],
      "name": "lockPeriod",
      "outputs": [
        {
          "internalType": "uint256",
          "name": "",
          "type": "uint256"
        }
      ],
      "stateMutability": "view",
      "type": "function"
    },
    {
      "inputs": [],
      "name": "owner",
      "outputs": [
        {
          "internalType": "address",
          "name": "",
          "type": "address"
        }
      ],
      "stateMutability": "view",
      "type": "function"
    },
    {
      "inputs": [],
      "name": "renounceOwnership",
      "outputs": [],
      "stateMutability": "nonpayable",
      "type": "function"
    },
    {
      "inputs": [
        {
          "internalType": "uint256",
          "name": "_newPeriod",
          "type": "uint256"
        }
      ],
      "name": "setLockPeriod",
      "outputs": [],
      "stateMutability": "nonpayable",
      "type": "function"
    },
    {
      "inputs": [
        {
          "internalType": "uint256",
          "name": "_newRatio",
          "type": "uint256"
        }
      ],
      "name": "setSlashRatio",
      "outputs": [],
      "stateMutability": "nonpayable",
      "type": "function"
    },
    {
      "inputs": [
        {
          "internalType": "address",
          "name": "_recipient",
          "type": "address"
        }
      ],
      "name": "slash",
      "outputs": [],
      "stateMutability": "nonpayable",
      "type": "function"
    },
    {
      "inputs": [],
      "name": "slashRatio",
      "outputs": [
        {
          "internalType": "uint256",
          "name": "",
          "type": "uint256"
        }
      ],
      "stateMutability": "view",
      "type": "function"
    },
    {
      "inputs": [],
      "name": "token",
      "outputs": [
        {
          "internalType": "contract IERC20",
          "name": "",
          "type": "address"
        }
      ],
      "stateMutability": "view",
      "type": "function"
    },
    {
      "inputs": [],
      "name": "totalLocked",
      "outputs": [
        {
          "internalType": "uint256",
          "name": "",
          "type": "uint256"
        }
      ],
      "stateMutability": "view",
      "type": "function"
    },
    {
      "inputs": [
        {
          "internalType": "address",
          "name": "newOwner",
          "type": "address"
        }
      ],
      "name": "transferOwnership",
      "outputs": [],
      "stateMutability": "nonpayable",
      "type": "function"
    },
    {
      "inputs": [
        {
          "internalType": "uint256",
          "name": "_amount",
          "type": "uint256"
        }
      ],
      "name": "unlock",
      "outputs": [],
      "stateMutability": "nonpayable",
      "type": "function"
    },
    {
      "inputs": [
        {
          "internalType": "uint256",
          "name": "_amount",
          "type": "uint256"
        }
      ],
      "name": "withdraw",
      "outputs": [],
      "stateMutability": "nonpayable",
      "type": "function"
    },
    {
      "inputs": [
        {
          "internalType": "address",
          "name": "",
          "type": "address"
        }
      ],
      "name": "withdrawals",
      "outputs": [
        {
          "internalType": "uint256",
          "name": "amount",
          "type": "uint256"
        },
        {
          "internalType": "uint256",
          "name": "timestamp",
          "type": "uint256"
        }
      ],
      "stateMutability": "view",
      "type": "function"
    }
  ],
  "transactionHash": "0xe3f6d8689d27a774d7e4984a4ee5dfdef7741b3cd202da40c7471e4a928d8415",
  "args": [],
  "numDeployments": 2,
  "solcInputHash": "0f495bf74031feccc05ca420e3e31896",
  "bytecode": "0x60806040523480156200001157600080fd5b50620000236000808080808062000029565b620003ad565b600054610100900460ff16158080156200004a5750600054600160ff909116105b806200007a575062000067306200027d60201b620014301760201c565b1580156200007a575060005460ff166001145b620000e35760405162461bcd60e51b815260206004820152602e60248201527f496e697469616c697a61626c653a20636f6e747261637420697320616c72656160448201526d191e481a5b9a5d1a585b1a5e995960921b60648201526084015b60405180910390fd5b6000805460ff19166001179055801562000107576000805461ff0019166101001790555b620001116200028c565b6200011c87620002f4565b6127106067541115620001725760405162461bcd60e51b815260206004820181905260248201527f4c6f636b696e67506f6f6c3a20696e76616c696420736c61736820726174696f6044820152606401620000da565b606580546001600160a01b038881166001600160a01b031992831617909255606687905560678690556069805486841690831617905560688054928516929091169190911790556040805160008152602081018690527fa050ce4cdeae150b5a5ed4d137e6dd1f51970954cf77286a2641e543921a3b28910160405180910390a16040805160008152602081018790527f5dd7b309b7bc5010d9c96159ee535a428121d6803cb847792402fffccaf1569a910160405180910390a1801562000274576000805461ff0019169055604051600181527f7f26b83ff96e1f2b6a682f133852f6798a09c465da95921460cefb38474024989060200160405180910390a15b50505050505050565b6001600160a01b03163b151590565b600054610100900460ff16620002e85760405162461bcd60e51b815260206004820152602b60248201526000805160206200213983398151915260448201526a6e697469616c697a696e6760a81b6064820152608401620000da565b620002f262000346565b565b603380546001600160a01b038381166001600160a01b0319831681179093556040519116919082907f8be0079c531659141344cd1fd0a4f28419497f9722a3daafe3b4186f6b6457e090600090a35050565b600054610100900460ff16620003a25760405162461bcd60e51b815260206004820152602b60248201526000805160206200213983398151915260448201526a6e697469616c697a696e6760a81b6064820152608401620000da565b620002f233620002f4565b611d7c80620003bd6000396000f3fe608060405234801561001057600080fd5b50600436106101775760003560e01c80637a9262a2116100d8578063ce3518aa1161008c578063dfd9826911610066578063dfd982691461033d578063f2fde38b14610386578063fc0c546a1461039957600080fd5b8063ce3518aa1461030e578063d27ca89b14610321578063d2d101621461032a57600080fd5b80638da5cb5b116100bd5780638da5cb5b146102d7578063b6b55f25146102e8578063c96be4cb146102fb57600080fd5b80637a9262a2146102555780638c661b5d1461029157600080fd5b80636198e3391161012f578063715018a611610114578063715018a614610227578063779972da1461022f57806379502c551461024257600080fd5b80636198e339146101f457806370a082311461020757600080fd5b80633fd8b02f116101605780633fd8b02f146101c157806356891412146101d85780635e7ab842146101e157600080fd5b80632e1a7d4d1461017c5780633ab76e9f14610191575b600080fd5b61018f61018a366004611963565b6103ac565b005b6069546101a4906001600160a01b031681565b6040516001600160a01b0390911681526020015b60405180910390f35b6101ca60665481565b6040519081526020016101b8565b6101ca606c5481565b6101a46101ef366004611963565b6107cf565b61018f610202366004611963565b6107f9565b6101ca610215366004611991565b606b6020526000908152604090205481565b61018f6108e3565b61018f61023d366004611963565b6108f7565b6068546101a4906001600160a01b031681565b61027c610263366004611991565b606a602052600090815260409020805460019091015482565b604080519283526020830191909152016101b8565b61027c61029f366004611991565b6001600160a01b03166000908152606a6020908152604091829020825180840190935280548084526001909101549290910182905291565b6033546001600160a01b03166101a4565b61018f6102f6366004611963565b610945565b61018f610309366004611991565b610ad3565b61018f61031c366004611963565b6110bd565b6101ca60675481565b61018f6103383660046119ae565b611155565b6103796040518060400160405280601281526020017f4469737075746547616d65466163746f7279000000000000000000000000000081525081565b6040516101b89190611a76565b61018f610394366004611991565b6113a0565b6065546101a4906001600160a01b031681565b606860009054906101000a90046001600160a01b03166001600160a01b0316635c975abb6040518163ffffffff1660e01b8152600401602060405180830381865afa1580156103ff573d6000803e3d6000fd5b505050506040513d601f19601f820116820180604052508101906104239190611a89565b156104755760405162461bcd60e51b815260206004820152601f60248201527f4c6f636b696e67506f6f6c3a20636f6e7472616374206973207061757365640060448201526064015b60405180910390fd5b336000908152606a6020526040902080548211156104fb5760405162461bcd60e51b815260206004820152602d60248201527f4c6f636b696e67506f6f6c3a20696e73756666696369656e7420756e6c6f636b60448201527f6564207769746864726177616c00000000000000000000000000000000000000606482015260840161046c565b60008160010154116105745760405162461bcd60e51b8152602060048201526024808201527f4c6f636b696e67506f6f6c3a207769746864726177616c206e6f7420756e6c6f60448201527f636b656400000000000000000000000000000000000000000000000000000000606482015260840161046c565b4260665482600101546105879190611ac1565b11156105fb5760405162461bcd60e51b815260206004820152602560248201527f4c6f636b696e67506f6f6c3a207769746864726177616c2064656c6179206e6f60448201527f74206d6574000000000000000000000000000000000000000000000000000000606482015260840161046c565b8181600001600082825461060f9190611ad9565b9091555050336000908152606b602052604081208054849290610633908490611ad9565b9250508190555081606c600082825461064c9190611ad9565b9091555050336000908152606b6020526040812054900361077e5760005b606d5481101561077c57336001600160a01b0316606d828154811061069157610691611af0565b6000918252602090912001546001600160a01b03160361076a57606d80546106bb90600190611ad9565b815481106106cb576106cb611af0565b600091825260209091200154606d80546001600160a01b0390921691839081106106f7576106f7611af0565b9060005260206000200160006101000a8154816001600160a01b0302191690836001600160a01b03160217905550606d80548061073657610736611b06565b6000828152602090208101600019908101805473ffffffffffffffffffffffffffffffffffffffff1916905501905561077c565b8061077481611b1c565b91505061066a565b505b606554610795906001600160a01b0316338461143f565b60405182815233907f884edad9ce6fa2440d8a54cc123490eb96d2768479d49ff9c7366125a9424364906020015b60405180910390a25050565b606d81815481106107df57600080fd5b6000918252602090912001546001600160a01b0316905081565b336000908152606a602052604081208054909190610818908490611ac1565b336000908152606b60205260409020549091508111156108a05760405162461bcd60e51b815260206004820152602160248201527f4c6f636b696e67506f6f6c3a20696e73756666696369656e742062616c616e6360448201527f6500000000000000000000000000000000000000000000000000000000000000606482015260840161046c565b42600183015580825560405183815233907f6381d9813cabeb57471b5a7e05078e64845ccdb563146a6911d536f24ce960f19060200160405180910390a2505050565b6108eb6114ed565b6108f56000611547565b565b6108ff6114ed565b606680549082905560408051828152602081018490527f5dd7b309b7bc5010d9c96159ee535a428121d6803cb847792402fffccaf1569a91015b60405180910390a15050565b600081116109955760405162461bcd60e51b815260206004820152601960248201527f4c6f636b696e67506f6f6c3a207a65726f206465706f73697400000000000000604482015260640161046c565b6065546109ad906001600160a01b03163330846115a6565b336000908152606b6020526040812080548392906109cc908490611ac1565b9250508190555080606c60008282546109e59190611ac1565b9091555060009050805b606d54811015610a4b57336001600160a01b0316606d8281548110610a1657610a16611af0565b6000918252602090912001546001600160a01b031603610a395760019150610a4b565b80610a4381611b1c565b9150506109ef565b5080610aa157606d80546001810182556000919091527f5006b838207c6a9ae9b84d68f467dd4bb5c305fbfb6b04eab8faaabeec1e18d801805473ffffffffffffffffffffffffffffffffffffffff1916331790555b60405182815233907fe1fffcc4923d04b559f4d29a8bfc6cda04eb5b0d3c460751c2402c5c5cc9109c906020016107c3565b6001600160a01b038116610b295760405162461bcd60e51b815260206004820152601e60248201527f4c6f636b696e67506f6f6c3a20696e76616c696420726563697069656e740000604482015260640161046c565b6000606c5411610b7b5760405162461bcd60e51b815260206004820152601f60248201527f4c6f636b696e67506f6f6c3a206e6f20746f6b656e7320746f20736c61736800604482015260640161046c565b60003390506000806000836001600160a01b031663fa24f7436040518163ffffffff1660e01b8152600401600060405180830381865afa158015610bc3573d6000803e3d6000fd5b505050506040513d6000823e601f3d908101601f19168201604052610beb9190810190611b4b565b606954604080518082018252601281527f4469737075746547616d65466163746f72790000000000000000000000000000602082015290517fbf40fac10000000000000000000000000000000000000000000000000000000081529497509295509093506000926001600160a01b039091169163bf40fac191610c719190600401611a76565b602060405180830381865afa158015610c8e573d6000803e3d6000fd5b505050506040513d601f19601f82011682018060405250810190610cb29190611c20565b90506001600160a01b038116610d305760405162461bcd60e51b815260206004820152602960248201527f4c6f636b696e67506f6f6c3a20646973707574652067616d6520666163746f7260448201527f79206e6f74207365740000000000000000000000000000000000000000000000606482015260840161046c565b6040517f5f0150cb0000000000000000000000000000000000000000000000000000000081526000906001600160a01b03831690635f0150cb90610d7c90889088908890600401611c3d565b6040805180830381865afa158015610d98573d6000803e3d6000fd5b505050506040513d601f19601f82011682018060405250810190610dbc9190611c6b565b509050856001600160a01b0316816001600160a01b031614610e0a576040517f6b0f689100000000000000000000000000000000000000000000000000000000815260040160405180910390fd5b6001866001600160a01b031663200d2ed26040518163ffffffff1660e01b8152600401602060405180830381865afa158015610e4a573d6000803e3d6000fd5b505050506040513d601f19601f82011682018060405250810190610e6e9190611cc8565b6002811115610e7f57610e7f611cb2565b14610eb6576040517f8f8af25f00000000000000000000000000000000000000000000000000000000815260040160405180910390fd5b600080606d805480602002602001604051908101604052809291908181526020018280548015610f0f57602002820191906000526020600020905b81546001600160a01b03168152600190910190602001808311610ef1575b505083519394506000925050505b81811015610fc9576000838281518110610f3957610f39611af0565b6020908102919091018101516001600160a01b0381166000908152606b9092526040909120549091508015610fbf57600061271060675483610f7b9190611ce9565b610f859190611d08565b90508015610fbd57610f978188611ac1565b9650610fa38183611ad9565b6001600160a01b0384166000908152606b60205260409020555b505b5050600101610f1d565b50600083116110405760405162461bcd60e51b815260206004820152602360248201527f4c6f636b696e67506f6f6c3a20736c61736820616d6f756e7420746f6f20736d60448201527f616c6c0000000000000000000000000000000000000000000000000000000000606482015260840161046c565b82606c60008282546110529190611ad9565b909155505060655461106e906001600160a01b03168b8561143f565b896001600160a01b03167f4ed05e9673c26d2ed44f7ef6a7f2942df0ee3b5e1e17db4b99f9dcd261a339cd846040516110a991815260200190565b60405180910390a250505050505050505050565b6110c56114ed565b6127108111156111175760405162461bcd60e51b815260206004820181905260248201527f4c6f636b696e67506f6f6c3a20696e76616c696420736c61736820726174696f604482015260640161046c565b606780549082905560408051828152602081018490527fa050ce4cdeae150b5a5ed4d137e6dd1f51970954cf77286a2641e543921a3b289101610939565b600054610100900460ff16158080156111755750600054600160ff909116105b8061118f5750303b15801561118f575060005460ff166001145b6112015760405162461bcd60e51b815260206004820152602e60248201527f496e697469616c697a61626c653a20636f6e747261637420697320616c72656160448201527f647920696e697469616c697a6564000000000000000000000000000000000000606482015260840161046c565b6000805460ff191660011790558015611224576000805461ff0019166101001790555b61122c6115fd565b61123587611547565b61271060675411156112895760405162461bcd60e51b815260206004820181905260248201527f4c6f636b696e67506f6f6c3a20696e76616c696420736c61736820726174696f604482015260640161046c565b606580546001600160a01b0388811673ffffffffffffffffffffffffffffffffffffffff1992831617909255606687905560678690556069805486841690831617905560688054928516929091169190911790556040805160008152602081018690527fa050ce4cdeae150b5a5ed4d137e6dd1f51970954cf77286a2641e543921a3b28910160405180910390a16040805160008152602081018790527f5dd7b309b7bc5010d9c96159ee535a428121d6803cb847792402fffccaf1569a910160405180910390a18015611397576000805461ff0019169055604051600181527f7f26b83ff96e1f2b6a682f133852f6798a09c465da95921460cefb38474024989060200160405180910390a15b50505050505050565b6113a86114ed565b6001600160a01b0381166114245760405162461bcd60e51b815260206004820152602660248201527f4f776e61626c653a206e6577206f776e657220697320746865207a65726f206160448201527f6464726573730000000000000000000000000000000000000000000000000000606482015260840161046c565b61142d81611547565b50565b6001600160a01b03163b151590565b6040516001600160a01b0383166024820152604481018290526114e89084907fa9059cbb00000000000000000000000000000000000000000000000000000000906064015b60408051601f198184030181529190526020810180517bffffffffffffffffffffffffffffffffffffffffffffffffffffffff167fffffffff0000000000000000000000000000000000000000000000000000000090931692909217909152611670565b505050565b6033546001600160a01b031633146108f55760405162461bcd60e51b815260206004820181905260248201527f4f776e61626c653a2063616c6c6572206973206e6f7420746865206f776e6572604482015260640161046c565b603380546001600160a01b0383811673ffffffffffffffffffffffffffffffffffffffff19831681179093556040519116919082907f8be0079c531659141344cd1fd0a4f28419497f9722a3daafe3b4186f6b6457e090600090a35050565b6040516001600160a01b03808516602483015283166044820152606481018290526115f79085907f23b872dd0000000000000000000000000000000000000000000000000000000090608401611484565b50505050565b600054610100900460ff166116685760405162461bcd60e51b815260206004820152602b60248201527f496e697469616c697a61626c653a20636f6e7472616374206973206e6f74206960448201526a6e697469616c697a696e6760a81b606482015260840161046c565b6108f5611755565b60006116c5826040518060400160405280602081526020017f5361666545524332303a206c6f772d6c6576656c2063616c6c206661696c6564815250856001600160a01b03166117c99092919063ffffffff16565b8051909150156114e857808060200190518101906116e39190611a89565b6114e85760405162461bcd60e51b815260206004820152602a60248201527f5361666545524332303a204552433230206f7065726174696f6e20646964206e60448201527f6f74207375636365656400000000000000000000000000000000000000000000606482015260840161046c565b600054610100900460ff166117c05760405162461bcd60e51b815260206004820152602b60248201527f496e697469616c697a61626c653a20636f6e7472616374206973206e6f74206960448201526a6e697469616c697a696e6760a81b606482015260840161046c565b6108f533611547565b60606117d884846000856117e2565b90505b9392505050565b60608247101561185a5760405162461bcd60e51b815260206004820152602660248201527f416464726573733a20696e73756666696369656e742062616c616e636520666f60448201527f722063616c6c0000000000000000000000000000000000000000000000000000606482015260840161046c565b6001600160a01b0385163b6118b15760405162461bcd60e51b815260206004820152601d60248201527f416464726573733a2063616c6c20746f206e6f6e2d636f6e7472616374000000604482015260640161046c565b600080866001600160a01b031685876040516118cd9190611d2a565b60006040518083038185875af1925050503d806000811461190a576040519150601f19603f3d011682016040523d82523d6000602084013e61190f565b606091505b509150915061191f82828661192a565b979650505050505050565b606083156119395750816117db565b8251156119495782518084602001fd5b8160405162461bcd60e51b815260040161046c9190611a76565b60006020828403121561197557600080fd5b5035919050565b6001600160a01b038116811461142d57600080fd5b6000602082840312156119a357600080fd5b81356117db8161197c565b60008060008060008060c087890312156119c757600080fd5b86356119d28161197c565b955060208701356119e28161197c565b945060408701359350606087013592506080870135611a008161197c565b915060a0870135611a108161197c565b809150509295509295509295565b60005b83811015611a39578181015183820152602001611a21565b838111156115f75750506000910152565b60008151808452611a62816020860160208601611a1e565b601f01601f19169290920160200192915050565b6020815260006117db6020830184611a4a565b600060208284031215611a9b57600080fd5b815180151581146117db57600080fd5b634e487b7160e01b600052601160045260246000fd5b60008219821115611ad457611ad4611aab565b500190565b600082821015611aeb57611aeb611aab565b500390565b634e487b7160e01b600052603260045260246000fd5b634e487b7160e01b600052603160045260246000fd5b600060018201611b2e57611b2e611aab565b5060010190565b634e487b7160e01b600052604160045260246000fd5b600080600060608486031215611b6057600080fd5b835163ffffffff81168114611b7457600080fd5b60208501516040860151919450925067ffffffffffffffff80821115611b9957600080fd5b818601915086601f830112611bad57600080fd5b815181811115611bbf57611bbf611b35565b604051601f8201601f19908116603f01168101908382118183101715611be757611be7611b35565b81604052828152896020848701011115611c0057600080fd5b611c11836020830160208801611a1e565b80955050505050509250925092565b600060208284031215611c3257600080fd5b81516117db8161197c565b63ffffffff84168152826020820152606060408201526000611c626060830184611a4a565b95945050505050565b60008060408385031215611c7e57600080fd5b8251611c898161197c565b602084015190925067ffffffffffffffff81168114611ca757600080fd5b809150509250929050565b634e487b7160e01b600052602160045260246000fd5b600060208284031215611cda57600080fd5b8151600381106117db57600080fd5b6000816000190483118215151615611d0357611d03611aab565b500290565b600082611d2557634e487b7160e01b600052601260045260246000fd5b500490565b60008251611d3c818460208701611a1e565b919091019291505056fea2646970667358221220d494cc19fc624b47417de31d37f4af4cbbdf34b0d2d16fa44838d58ddeb0116264736f6c634300080f0033496e697469616c697a61626c653a20636f6e7472616374206973206e6f742069",
  "devdoc": {
    "details": "Based on DelayedWETH's delayed withdrawal mechanism",
    "kind": "dev",
    "methods": {
      "deposit(uint256)": {
        "params": {
          "_amount": "Amount of tokens to deposit"
        }
      },
      "getWithdrawalRequest(address)": {
        "params": {
          "_user": "User address"
        },
        "returns": {
          "amount": "Amount requested for withdrawal",
          "timestamp": "Timestamp of the withdrawal request"
        }
      },
      "initialize(address,address,uint256,uint256,address,address)": {
        "params": {
          "_addressManager": "The AddressManager contract address",
          "_config": "The MetisConfig contract address",
          "_lockPeriod": "Initial lock period in seconds",
          "_owner": "The owner address",
          "_slashRatio": "Initial slash ratio (base 10000)",
          "_token": "The ERC20 token contract address"
        }
      },
      "owner()": {
        "details": "Returns the address of the current owner."
      },
      "renounceOwnership()": {
        "details": "Leaves the contract without owner. It will not be possible to call `onlyOwner` functions anymore. Can only be called by the current owner. NOTE: Renouncing ownership will leave the contract without an owner, thereby removing any functionality that is only available to the owner."
      },
      "setLockPeriod(uint256)": {
        "params": {
          "_newPeriod": "New lock period in seconds"
        }
      },
      "setSlashRatio(uint256)": {
        "params": {
          "_newRatio": "New slash ratio (base 10000)"
        }
      },
      "slash(address)": {
        "params": {
          "_recipient": "Address to receive the slashed tokens"
        }
      },
      "transferOwnership(address)": {
        "details": "Transfers ownership of the contract to a new account (`newOwner`). Can only be called by the current owner."
      },
      "unlock(uint256)": {
        "params": {
          "_amount": "Amount of tokens to unlock"
        }
      },
      "withdraw(uint256)": {
        "params": {
          "_amount": "Amount of tokens to withdraw"
        }
      }
    },
    "title": "LockingPool",
    "version": 1
  },
  "userdoc": {
    "errors": {
      "InvalidGameStatus()": [
        {
          "notice": "Thrown when attempting to set an anchor state using an invalid game result."
        }
      ],
      "UnregisteredGame()": [
        {
          "notice": "Thrown when attempting to set an anchor state using an unregistered game."
        }
      ]
    },
    "events": {
      "Deposit(address,uint256)": {
        "notice": "Emitted when tokens are deposited"
      },
      "LockPeriodUpdated(uint256,uint256)": {
        "notice": "Emitted when lock period is updated"
      },
      "SlashRatioUpdated(uint256,uint256)": {
        "notice": "Emitted when slash ratio is updated"
      },
      "Slashed(address,uint256)": {
        "notice": "Emitted when tokens are slashed"
      },
      "Unlock(address,uint256)": {
        "notice": "Emitted when a withdrawal is requested"
      },
      "Withdraw(address,uint256)": {
        "notice": "Emitted when tokens are withdrawn"
      }
    },
    "kind": "user",
    "methods": {
      "addressManager()": {
        "notice": "The Address Manager contract"
      },
      "balanceOf(address)": {
        "notice": "Mapping of user balances"
      },
      "config()": {
        "notice": "The MetisConfig contract"
      },
      "deposit(uint256)": {
        "notice": "Deposits tokens into the pool"
      },
      "depositedSequencers(uint256)": {
        "notice": "Array of sequencer addresses"
      },
      "getWithdrawalRequest(address)": {
        "notice": "Gets the withdrawal request details for a user"
      },
      "initialize(address,address,uint256,uint256,address,address)": {
        "notice": "Initializes the contract"
      },
      "lockPeriod()": {
        "notice": "The withdrawal delay period in seconds"
      },
      "setLockPeriod(uint256)": {
        "notice": "Updates the lock period"
      },
      "setSlashRatio(uint256)": {
        "notice": "Updates the slash ratio"
      },
      "slash(address)": {
        "notice": "Slashes a percentage of tokens from the pool"
      },
      "slashRatio()": {
        "notice": "The slash ratio (base 10000, i.e., 100.00%)"
      },
      "token()": {
        "notice": "The token being locked in the pool"
      },
      "totalLocked()": {
        "notice": "Total amount of tokens locked"
      },
      "unlock(uint256)": {
        "notice": "Requests to unlock tokens"
      },
      "withdraw(uint256)": {
        "notice": "Withdraws unlocked tokens"
      },
      "withdrawals(address)": {
        "notice": "Mapping of user withdrawal requests"
      }
    },
    "notice": "A locking pool contract that allows users to lock tokens with a delayed withdrawal mechanism",
    "version": 1
  },
  "storageLayout": {
    "storage": [
      {
        "astId": 551,
        "contract": "contracts/L1/dispute/LockingPool.sol:LockingPool",
        "label": "_initialized",
        "offset": 0,
        "slot": "0",
        "type": "t_uint8"
      },
      {
        "astId": 554,
        "contract": "contracts/L1/dispute/LockingPool.sol:LockingPool",
        "label": "_initializing",
        "offset": 1,
        "slot": "0",
        "type": "t_bool"
      },
      {
        "astId": 979,
        "contract": "contracts/L1/dispute/LockingPool.sol:LockingPool",
        "label": "__gap",
        "offset": 0,
        "slot": "1",
        "type": "t_array(t_uint256)50_storage"
      },
      {
        "astId": 423,
        "contract": "contracts/L1/dispute/LockingPool.sol:LockingPool",
        "label": "_owner",
        "offset": 0,
        "slot": "51",
        "type": "t_address"
      },
      {
        "astId": 543,
        "contract": "contracts/L1/dispute/LockingPool.sol:LockingPool",
        "label": "__gap",
        "offset": 0,
        "slot": "52",
        "type": "t_array(t_uint256)49_storage"
      },
      {
        "astId": 6756,
        "contract": "contracts/L1/dispute/LockingPool.sol:LockingPool",
        "label": "token",
        "offset": 0,
        "slot": "101",
        "type": "t_contract(IERC20)1604"
      },
      {
        "astId": 6759,
        "contract": "contracts/L1/dispute/LockingPool.sol:LockingPool",
        "label": "lockPeriod",
        "offset": 0,
        "slot": "102",
        "type": "t_uint256"
      },
      {
        "astId": 6762,
        "contract": "contracts/L1/dispute/LockingPool.sol:LockingPool",
        "label": "slashRatio",
        "offset": 0,
        "slot": "103",
        "type": "t_uint256"
      },
      {
        "astId": 6766,
        "contract": "contracts/L1/dispute/LockingPool.sol:LockingPool",
        "label": "config",
        "offset": 0,
        "slot": "104",
        "type": "t_contract(MetisConfig)3034"
      },
      {
        "astId": 6770,
        "contract": "contracts/L1/dispute/LockingPool.sol:LockingPool",
        "label": "addressManager",
        "offset": 0,
        "slot": "105",
        "type": "t_contract(Lib_AddressManager)12995"
      },
      {
        "astId": 6776,
        "contract": "contracts/L1/dispute/LockingPool.sol:LockingPool",
        "label": "withdrawals",
        "offset": 0,
        "slot": "106",
        "type": "t_mapping(t_address,t_struct(WithdrawalRequest)6749_storage)"
      },
      {
        "astId": 6781,
        "contract": "contracts/L1/dispute/LockingPool.sol:LockingPool",
        "label": "balanceOf",
        "offset": 0,
        "slot": "107",
        "type": "t_mapping(t_address,t_uint256)"
      },
      {
        "astId": 6784,
        "contract": "contracts/L1/dispute/LockingPool.sol:LockingPool",
        "label": "totalLocked",
        "offset": 0,
        "slot": "108",
        "type": "t_uint256"
      },
      {
        "astId": 6788,
        "contract": "contracts/L1/dispute/LockingPool.sol:LockingPool",
        "label": "depositedSequencers",
        "offset": 0,
        "slot": "109",
        "type": "t_array(t_address)dyn_storage"
      }
    ],
    "types": {
      "t_address": {
        "encoding": "inplace",
        "label": "address",
        "numberOfBytes": "20"
      },
      "t_array(t_address)dyn_storage": {
        "base": "t_address",
        "encoding": "dynamic_array",
        "label": "address[]",
        "numberOfBytes": "32"
      },
      "t_array(t_uint256)49_storage": {
        "base": "t_uint256",
        "encoding": "inplace",
        "label": "uint256[49]",
        "numberOfBytes": "1568"
      },
      "t_array(t_uint256)50_storage": {
        "base": "t_uint256",
        "encoding": "inplace",
        "label": "uint256[50]",
        "numberOfBytes": "1600"
      },
      "t_bool": {
        "encoding": "inplace",
        "label": "bool",
        "numberOfBytes": "1"
      },
      "t_contract(IERC20)1604": {
        "encoding": "inplace",
        "label": "contract IERC20",
        "numberOfBytes": "20"
      },
      "t_contract(Lib_AddressManager)12995": {
        "encoding": "inplace",
        "label": "contract Lib_AddressManager",
        "numberOfBytes": "20"
      },
      "t_contract(MetisConfig)3034": {
        "encoding": "inplace",
        "label": "contract MetisConfig",
        "numberOfBytes": "20"
      },
      "t_mapping(t_address,t_struct(WithdrawalRequest)6749_storage)": {
        "encoding": "mapping",
        "key": "t_address",
        "label": "mapping(address => struct LockingPool.WithdrawalRequest)",
        "numberOfBytes": "32",
        "value": "t_struct(WithdrawalRequest)6749_storage"
      },
      "t_mapping(t_address,t_uint256)": {
        "encoding": "mapping",
        "key": "t_address",
        "label": "mapping(address => uint256)",
        "numberOfBytes": "32",
        "value": "t_uint256"
      },
      "t_struct(WithdrawalRequest)6749_storage": {
        "encoding": "inplace",
        "label": "struct LockingPool.WithdrawalRequest",
        "members": [
          {
            "astId": 6746,
            "contract": "contracts/L1/dispute/LockingPool.sol:LockingPool",
            "label": "amount",
            "offset": 0,
            "slot": "0",
            "type": "t_uint256"
          },
          {
            "astId": 6748,
            "contract": "contracts/L1/dispute/LockingPool.sol:LockingPool",
            "label": "timestamp",
            "offset": 0,
            "slot": "1",
            "type": "t_uint256"
          }
        ],
        "numberOfBytes": "64"
      },
      "t_uint256": {
        "encoding": "inplace",
        "label": "uint256",
        "numberOfBytes": "32"
      },
      "t_uint8": {
        "encoding": "inplace",
        "label": "uint8",
        "numberOfBytes": "1"
      }
    }
  }
}