{
  "address": "0x2A82C25fB48Aa644205f14cb4c1b64C30A96C456",
  "abi": [
    {
      "inputs": [
        {
          "internalType": "contract IPreimageOracle",
          "name": "_oracle",
          "type": "address"
        }
      ],
      "stateMutability": "nonpayable",
      "type": "constructor"
    },
    {
      "inputs": [],
      "name": "oracle",
      "outputs": [
        {
          "internalType": "contract IPreimageOracle",
          "name": "oracle_",
          "type": "address"
        }
      ],
      "stateMutability": "view",
      "type": "function"
    },
    {
      "inputs": [
        {
          "internalType": "bytes",
          "name": "_stateData",
          "type": "bytes"
        },
        {
          "internalType": "bytes",
          "name": "_proof",
          "type": "bytes"
        },
        {
          "internalType": "bytes32",
          "name": "_localContext",
          "type": "bytes32"
        }
      ],
      "name": "step",
      "outputs": [
        {
          "internalType": "bytes32",
          "name": "",
          "type": "bytes32"
        }
      ],
      "stateMutability": "nonpayable",
      "type": "function"
    },
    {
      "inputs": [],
      "name": "version",
      "outputs": [
        {
          "internalType": "string",
          "name": "",
          "type": "string"
        }
      ],
      "stateMutability": "view",
      "type": "function"
    }
  ],
  "transactionHash": "0xad9fa4aa92373c9b52ac1cd1addea336c9445be9a57929f7d404c0c5fc603b8f",
  "args": [
    "0xeF31500874838359928140Da607f4ab2F26CDeB1"
  ],
  "numDeployments": 2,
  "solcInputHash": "3d5061b06d56ea27ab2ec29ed0ab11c8",
  "bytecode": "0x60a060405234801561001057600080fd5b50604051620022703803806200227083398101604081905261003191610042565b6001600160a01b0316608052610072565b60006020828403121561005457600080fd5b81516001600160a01b038116811461006b57600080fd5b9392505050565b6080516121dc620000946000396000818160b2015261064301526121dc6000f3fe608060405234801561001057600080fd5b50600436106100415760003560e01c806354fd4d50146100465780637dc0d1d014610098578063e14ced32146100dc575b600080fd5b6100826040518060400160405280600a81526020017f312e312e302d72632e310000000000000000000000000000000000000000000081525081565b60405161008f919061204b565b60405180910390f35b60405173ffffffffffffffffffffffffffffffffffffffff7f000000000000000000000000000000000000000000000000000000000000000016815260200161008f565b6100ef6100ea3660046120e2565b6100fd565b60405190815260200161008f565b6000610107611fc1565b6080811461011457600080fd5b6040516106001461012457600080fd5b6084871461013157600080fd5b6101a4851461013f57600080fd5b8635608052602087013560a052604087013560e090811c60c09081526044890135821c82526048890135821c61010052604c890135821c610120526050890135821c61014052605489013590911c61016052605888013560f890811c610180526059890135901c6101a0819052605a89013590911c6101c05260628801906101e09060018111156101db57604051629b663b60e11b8152600481fd5b50602081018151146101ec57600080fd5b60200160005b602081101561021657823560e01c82526004909201916020909101906001016101f2565b505050806101200151156102345761022c61038c565b915050610383565b6101408101805160010167ffffffffffffffff16905260006101a49050600080600061026985606001518660000151866104c3565b9250925092508163ffffffff16600014801561028b57508063ffffffff16600c145b156102a557610299876104ed565b95505050505050610383565b600061031f866040805160808101825260008082526020820181905291810182905260608101919091526040518060800160405280836060015163ffffffff168152602001836080015163ffffffff1681526020018360a0015163ffffffff1681526020018360c0015163ffffffff168152509050919050565b610160870151875191925061033c91839190610524888888610817565b8652805163ffffffff9081166060808901919091526020830151821660808901526040830151821660a08901528201511660c087015261037a61038c565b96505050505050505b95945050505050565b60408051608051815260a051602082015260dc519181019190915260fc51604482015261011c51604882015261013c51604c82015261015c51605082015261017c5160548201526101805161019f5160588301526101a0516101bf5160598401526101d851605a840152600092610200929091606283019190600181111561041f57604051629b663b60e11b8152600481fd5b60005b602081101561044657601c8601518452602090950194600490930192600101610422565b506000835283830384a0600094508060018114610466576003955061048e565b82801561047e5760018114610487576002965061048c565b6000965061048c565b600196505b505b50505081900390207effffffffffffffffffffffffffffffffffffffffffffffffffffffffffffff1660f89190911b17919050565b60008060006104d3858786610bfd565b925050603f601a83901c8116915082165b93509350939050565b60006104f7611fc1565b6080905060008060008061052e8561016001516040810151608082015160a083015160c084015160e0909401519294919390929091565b509350935093509350600080610ffa63ffffffff168663ffffffff16036105735761055e85858960e00151610cb1565b63ffffffff1660e08a01529092509050610726565b610fcc1963ffffffff87160161058f5763400000009150610726565b6110171963ffffffff8716016105a85760019150610726565b6110951963ffffffff8716016105df57600161012088015260ff85166101008801526105d261038c565b9998505050505050505050565b610fa21963ffffffff8716016106be5760006040518061012001604052808763ffffffff1681526020018663ffffffff1681526020018563ffffffff16815260200189602001518152602001896040015163ffffffff1681526020018b81526020017f000000000000000000000000000000000000000000000000000000000000000073ffffffffffffffffffffffffffffffffffffffff1681526020016106906101a4600160ff16610380020190565b8152895160209091015290506106a581610d45565b8b5263ffffffff1660408b015290935091506107269050565b610fa31963ffffffff87160161070657602087015160408801516106ec918791879187916105248d51610f81565b63ffffffff1660408b015260208a01529092509050610726565b610fd61963ffffffff87160161072657610720858561103c565b90925090505b60006107a0886040805160808101825260008082526020820181905291810182905260608101919091526040518060800160405280836060015163ffffffff168152602001836080015163ffffffff1681526020018360a0015163ffffffff1681526020018360c0015163ffffffff168152509050919050565b61016089015163ffffffff85811660408084019190915285821660e0909301929092526020830180518083168086526004909101831682526060808e01919091529051821660808d015291830151811660a08c0152908201511660c08a0152905061080961038c565b9a9950505050505050505050565b84600263ffffffff8416148061083357508263ffffffff166003145b156108855760006002856303ffffff1663ffffffff16901b896020015163f00000001617905061087f89898663ffffffff1660021461087357601f610876565b60005b60ff168461117b565b50610bf2565b600080601f601087901c8116908a90601589901c16602081106108aa576108aa612156565b602002015192508063ffffffff871615806108cb57508663ffffffff16601c145b156108fd578a8263ffffffff16602081106108e8576108e8612156565b6020020151925050601f600b88901c166109b4565b60208763ffffffff16101561095f578663ffffffff16600c148061092757508663ffffffff16600d145b8061093857508663ffffffff16600e145b15610949578761ffff1692506109b4565b6109588861ffff166010611239565b92506109b4565b60288763ffffffff1610158061097b57508663ffffffff166022145b8061098c57508663ffffffff166026145b156109b4578a8263ffffffff16602081106109a9576109a9612156565b602002015192508190505b60048763ffffffff16101580156109d1575060088763ffffffff16105b806109e257508663ffffffff166001145b156109fe576109f58c8c898b868961128e565b50505050610bf2565b63ffffffff6000602089831610610a6357610a1e8a61ffff166010611239565b9095019463fffffffc8616610a348d828e610bfd565b915060288a63ffffffff1610158015610a5457508963ffffffff16603014155b15610a6157809250600093505b505b6000610a738b8b8b8a8a87611462565b63ffffffff1690508963ffffffff166000148015610a98575060088963ffffffff1610155b8015610aaa5750601c8963ffffffff16105b15610b72578863ffffffff1660081480610aca57508863ffffffff166009145b15610afd57610af18f8f8b63ffffffff16600814610ae85786610aeb565b60005b8a61117b565b50505050505050610bf2565b8863ffffffff16600a03610b1f57610af18f8f868a63ffffffff8b1615611b65565b8863ffffffff16600b03610b4257610af18f8f868a63ffffffff8b161515611b65565b60108963ffffffff1610158015610b5f5750601c8963ffffffff16105b15610b7257610af18f8f8b8a8a89611c1b565b8963ffffffff166038148015610b8d575063ffffffff851615155b15610bbd5760018e8663ffffffff1660208110610bac57610bac612156565b63ffffffff90921660209290920201525b8263ffffffff1663ffffffff14610bdc57610bd9838d83611ea0565b97505b610bea8f8f86846001611b65565b505050505050505b979650505050505050565b6000610c0882611f42565b6003831615610c1657600080fd5b6020820191358360051c8160005b601b811015610c7c5760208601953583821c6001168015610c4c5760018114610c6157610c72565b60008481526020839052604090209350610c72565b600082815260208590526040902093505b5050600101610c24565b50868114610c9257630badf00d60005260206000fd5b5050601f93909316601c0360031b9290921c63ffffffff169392505050565b6000808284610fff811615610ccb57610fff811661100003015b8663ffffffff16600003610d375784935090810190636000000063ffffffff83161180610d0357508463ffffffff168263ffffffff16105b80610d1957508563ffffffff168163ffffffff16105b15610d32575063ffffffff9250601691508390506104e4565b610d3b565b8693505b5093509350939050565b6101008101516080820151825160009283929163ffffffff1615610f7a57845163ffffffff1660041901610f52576000610d93866101000151876020015163fffffffc168860e00151610bfd565b606087015190915060001a600103610e1557610e0f86606001518760a0015160408051600093845233602052918152606090922091527effffffffffffffffffffffffffffffffffffffffffffffffffffffffffffff167f01000000000000000000000000000000000000000000000000000000000000001790565b60608701525b6000808760c0015173ffffffffffffffffffffffffffffffffffffffff1663e03110e189606001518a608001516040518363ffffffff1660e01b8152600401610e6e92919091825263ffffffff16602082015260400190565b6040805180830381865afa158015610e8a573d6000803e3d6000fd5b505050506040513d601f19601f82011682018060405250810190610eae919061216c565b60208a015160408b01519294509092509060038216600481900384811015610ed4578094505b5083821015610ee1578193505b8460088502610100031c9450846008828660040303021b9450600180600883600403021b036001806008878560040303021b03915081198116905085811988161796505050610f3f8a6020015163fffffffc168b60e0015187611ea0565b9298505050938601939250610f7a915050565b845163ffffffff1660021901610f6e5784604001519350610f7a565b63ffffffff9350600992505b9193509193565b600080858563ffffffff8b1660011480610fa1575063ffffffff8b166002145b80610fb2575063ffffffff8b166004145b15610fbf5788935061102e565b60051963ffffffff8c1601611022576000610fe1868c63fffffffc1689610bfd565b9050888a60038d1660040381811015610ff8578091505b90965086900360089081029290921c600019600193880293841b0116911b1791506000905061102e565b63ffffffff9350600992505b975097509750979350505050565b60008063ffffffff83166001036110d85763ffffffff84161580611066575063ffffffff84166001145b80611077575063ffffffff84166002145b80611088575063ffffffff84166005145b80611099575063ffffffff84166003145b806110aa575063ffffffff84166006145b806110bb575063ffffffff84166004145b156110c95760009150611174565b5063ffffffff90506009611174565b8263ffffffff166003036111695763ffffffff841615806110ff575063ffffffff84166005145b80611110575063ffffffff84166003145b1561111e5760009150611174565b63ffffffff841660011480611139575063ffffffff84166002145b8061114a575063ffffffff84166006145b8061115b575063ffffffff84166004145b156110c95760019150611174565b5063ffffffff905060165b9250929050565b836000015160040163ffffffff16846020015163ffffffff16146111e65760405162461bcd60e51b815260206004820152601260248201527f6a756d7020696e2064656c617920736c6f74000000000000000000000000000060448201526064015b60405180910390fd5b835160208501805163ffffffff90811687528381169091528316156112325780600801848463ffffffff166020811061122157611221612156565b63ffffffff90921660209290920201525b5050505050565b600063ffffffff83811660001980850183169190911c821615159160016020869003821681901b830191861691821b92911b018261127857600061127a565b815b90861663ffffffff16179250505092915050565b6000866000015160040163ffffffff16876020015163ffffffff16146112f65760405162461bcd60e51b815260206004820152601460248201527f6272616e636820696e2064656c617920736c6f7400000000000000000000000060448201526064016111dd565b8463ffffffff166004148061131157508463ffffffff166005145b15611388576000868463ffffffff166020811061133057611330612156565b602002015190508063ffffffff168363ffffffff1614801561135857508563ffffffff166004145b8061138057508063ffffffff168363ffffffff161415801561138057508563ffffffff166005145b915050611405565b8463ffffffff166006036113a55760008260030b13159050611405565b8463ffffffff166007036113c15760008260030b139050611405565b8463ffffffff1660010361140557601f601085901c1660008190036113ea5760008360030b1291505b8063ffffffff166001036114035760008360030b121591505b505b8651602088015163ffffffff168852811561144657600261142b8661ffff166010611239565b63ffffffff90811690911b8201600401166020890152611458565b60208801805160040163ffffffff1690525b5050505050505050565b600063ffffffff8616158061148f575060088663ffffffff161015801561148f5750600f8663ffffffff16105b156118755785600881146114d257600981146114db57600a81146114e457600b81146114ed57600c81146114f657600d81146114ff57600e81146115085761150d565b6020955061150d565b6021955061150d565b602a955061150d565b602b955061150d565b6024955061150d565b6025955061150d565b602695505b508463ffffffff16600003611532575063ffffffff8216601f600688901c161b611b5b565b8463ffffffff16600203611556575063ffffffff8216601f600688901c161c611b5b565b8463ffffffff1660030361158a57601f600688901c1661158263ffffffff8516821c6020839003611239565b915050611b5b565b8463ffffffff166004036115aa575063ffffffff8216601f84161b611b5b565b8463ffffffff166006036115ca575063ffffffff8216601f84161c611b5b565b8463ffffffff166007036115f257601f841661158263ffffffff8516821c6020839003611239565b8463ffffffff16600803611607575082611b5b565b8463ffffffff1660090361161c575082611b5b565b8463ffffffff16600a03611631575082611b5b565b8463ffffffff16600b03611646575082611b5b565b8463ffffffff16600c0361165b575082611b5b565b8463ffffffff16600f03611670575082611b5b565b8463ffffffff16601003611685575082611b5b565b8463ffffffff1660110361169a575082611b5b565b8463ffffffff166012036116af575082611b5b565b8463ffffffff166013036116c4575082611b5b565b8463ffffffff166018036116d9575082611b5b565b8463ffffffff166019036116ee575082611b5b565b8463ffffffff16601a03611703575082611b5b565b8463ffffffff16601b03611718575082611b5b565b8463ffffffff1660200361172f5750828201611b5b565b8463ffffffff166021036117465750828201611b5b565b8463ffffffff1660220361175d5750818303611b5b565b8463ffffffff166023036117745750818303611b5b565b8463ffffffff1660240361178b5750828216611b5b565b8463ffffffff166025036117a25750828217611b5b565b8463ffffffff166026036117b95750828218611b5b565b8463ffffffff166027036117d1575082821719611b5b565b8463ffffffff16602a03611800578260030b8460030b126117f35760006117f6565b60015b60ff169050611b5b565b8463ffffffff16602b03611828578263ffffffff168463ffffffff16106117f35760006117f6565b60405162461bcd60e51b815260206004820152601360248201527f696e76616c696420696e737472756374696f6e0000000000000000000000000060448201526064016111dd565b611828565b8563ffffffff16601c036118f5578463ffffffff1660020361189a5750828202611b5b565b8463ffffffff16602014806118b557508463ffffffff166021145b15611870578463ffffffff166020036118cc579219925b60005b63800000008516156118ee576401fffffffe600195861b1694016118cf565b9050611b5b565b8563ffffffff16600f03611916575065ffffffff0000601083901b16611b5b565b8563ffffffff1660200361194a576118ee8460031660080260180363ffffffff168363ffffffff16901c60ff166008611239565b8563ffffffff1660210361197f576118ee8460021660080260100363ffffffff168363ffffffff16901c61ffff166010611239565b8563ffffffff166022036119ad575063ffffffff60086003851602811681811b198416918316901b17611b5b565b8563ffffffff166023036119c2575080611b5b565b8563ffffffff166024036119f3578360031660080260180363ffffffff168263ffffffff16901c60ff169050611b5b565b8563ffffffff16602503611a25578360021660080260100363ffffffff168263ffffffff16901c61ffff169050611b5b565b8563ffffffff16602603611a56575063ffffffff60086003851602601803811681811c198416918316901c17611b5b565b8563ffffffff16602803611a8b575060ff63ffffffff60086003861602601803811682811b9091188316918416901b17611b5b565b8563ffffffff16602903611ac1575061ffff63ffffffff60086002861602601003811682811b9091188316918416901b17611b5b565b8563ffffffff16602a03611aef575063ffffffff60086003851602811681811c198316918416901c17611b5b565b8563ffffffff16602b03611b04575081611b5b565b8563ffffffff16602e03611b35575063ffffffff60086003851602601803811681811b198316918416901b17611b5b565b8563ffffffff16603003611b4a575080611b5b565b8563ffffffff166038036118285750815b9695505050505050565b60208363ffffffff1610611bbb5760405162461bcd60e51b815260206004820152600e60248201527f76616c696420726567697374657200000000000000000000000000000000000060448201526064016111dd565b63ffffffff831615801590611bcd5750805b15611bfc5781848463ffffffff1660208110611beb57611beb612156565b63ffffffff90921660209290920201525b5050505060208101805163ffffffff8082169093526004019091169052565b60008463ffffffff16601003611c3657506060860151611e48565b8463ffffffff16601103611c555763ffffffff84166060880152611e48565b8463ffffffff16601203611c6e57506040860151611e48565b8463ffffffff16601303611c8d5763ffffffff84166040880152611e48565b8463ffffffff16601803611cc15763ffffffff600385810b9085900b02602081901c821660608a0152166040880152611e48565b8463ffffffff16601903611cf25763ffffffff84811681851602602081901c821660608a0152166040880152611e48565b8463ffffffff16601a03611d9b578260030b600003611d535760405162461bcd60e51b815260206004820152601660248201527f4d4950533a206469766973696f6e206279207a65726f0000000000000000000060448201526064016111dd565b8260030b8460030b81611d6857611d68612190565b0763ffffffff166060880152600383810b9085900b81611d8a57611d8a612190565b0563ffffffff166040880152611e48565b8463ffffffff16601b03611e48578263ffffffff16600003611dff5760405162461bcd60e51b815260206004820152601660248201527f4d4950533a206469766973696f6e206279207a65726f0000000000000000000060448201526064016111dd565b8263ffffffff168463ffffffff1681611e1a57611e1a612190565b0663ffffffff908116606089015283811690851681611e3b57611e3b612190565b0463ffffffff1660408801525b63ffffffff821615611e7e5780868363ffffffff1660208110611e6d57611e6d612156565b63ffffffff90921660209290920201525b50505060208401805163ffffffff808216909652600401909416909352505050565b6000611eab83611f42565b6003841615611eb957600080fd5b6020830192601f8516601c0360031b83811b913563ffffffff90911b1916178460051c60005b601b811015611f375760208601953582821c6001168015611f075760018114611f1c57611f2d565b60008581526020839052604090209450611f2d565b600082815260208690526040902094505b5050600101611edf565b509095945050505050565b366103808201811015611fbd5760405162461bcd60e51b815260206004820152602360248201527f636865636b207468617420746865726520697320656e6f7567682063616c6c6460448201527f617461000000000000000000000000000000000000000000000000000000000060648201526084016111dd565b5050565b6040805161018081018252600080825260208201819052918101829052606081018290526080810182905260a0810182905260c0810182905260e0810182905261010081018290526101208101829052610140810191909152610160810161202761202c565b905290565b6040518061040001604052806020906020820280368337509192915050565b600060208083528351808285015260005b818110156120785785810183015185820160400152820161205c565b8181111561208a576000604083870101525b50601f01601f1916929092016040019392505050565b60008083601f8401126120b257600080fd5b50813567ffffffffffffffff8111156120ca57600080fd5b60208301915083602082850101111561117457600080fd5b6000806000806000606086880312156120fa57600080fd5b853567ffffffffffffffff8082111561211257600080fd5b61211e89838a016120a0565b9097509550602088013591508082111561213757600080fd5b50612144888289016120a0565b96999598509660400135949350505050565b634e487b7160e01b600052603260045260246000fd5b6000806040838503121561217f57600080fd5b505080516020909101519092909150565b634e487b7160e01b600052601260045260246000fdfea26469706673582212201bfeda949843ba244e2bc8934de66b1ded05252a8744273681e44a6feffc947264736f6c634300080f0033",
  "devdoc": {
    "details": "https://inst.eecs.berkeley.edu/~cs61c/resources/MIPS_Green_Sheet.pdfhttps://www.cs.cmu.edu/afs/cs/academic/class/15740-f97/public/doc/mips-isa.pdf      (page A-177)https://uweb.engr.arizona.edu/~ece369/Resources/spim/MIPSReference.pdfhttps://en.wikibooks.org/wiki/MIPS_Assembly/Instruction_Formatshttps://github.com/golang/go/blob/master/src/syscall/zerrors_linux_mips.go      MIPS linux kernel errors used by Go runtime",
    "kind": "dev",
    "methods": {
      "constructor": {
        "params": {
          "_oracle": "The address of the preimage oracle contract."
        }
      },
      "oracle()": {
        "returns": {
          "oracle_": "The IPreimageOracle contract."
        }
      },
      "step(bytes,bytes,bytes32)": {
        "params": {
          "_localContext": "The local key context for the preimage oracle. Optional, can be set as a constant                      if the caller only requires one set of local keys.",
          "_proof": "The encoded proof data for leaves within the MIPS VM's memory.",
          "_stateData": "The encoded state witness data."
        }
      }
    },
    "stateVariables": {
      "version": {
        "custom:semver": "1.1.0-rc.1"
      }
    },
    "title": "MIPS",
    "version": 1
  },
  "userdoc": {
    "kind": "user",
    "methods": {
      "oracle()": {
        "notice": "Getter for the pre-image oracle contract."
      },
      "step(bytes,bytes,bytes32)": {
        "notice": "Executes a single step of the vm.         Will revert if any required input state is missing."
      },
      "version()": {
        "notice": "The semantic version of the MIPS contract."
      }
    },
    "notice": "The MIPS contract emulates a single MIPS instruction.         Note that delay slots are isolated instructions:         the nextPC in the state pre-schedules where the VM jumps next.         The Step input is a packed VM state, with binary-merkle-tree         witness data for memory reads/writes.         The Step outputs a keccak256 hash of the packed VM State,         and logs the resulting state for offchain usage.",
    "version": 1
  },
  "storageLayout": {
    "storage": [],
    "types": null
  }
}