{
  "address": "0x3727311dab29d5A2aa7CD8830b3753871A9e3799",
  "abi": [
    {
      "inputs": [
        {
          "internalType": "address",
          "name": "_libAddressManager",
          "type": "address"
        },
        {
          "internalType": "uint256",
          "name": "_fraudProofWindow",
          "type": "uint256"
        },
        {
          "internalType": "uint256",
          "name": "_sequencerPublishWindow",
          "type": "uint256"
        }
      ],
      "stateMutability": "nonpayable",
      "type": "constructor"
    },
    {
      "inputs": [],
      "name": "ClaimAlreadyResolved",
      "type": "error"
    },
    {
      "inputs": [],
      "name": "UnregisteredGame",
      "type": "error"
    },
    {
      "anonymous": false,
      "inputs": [
        {
          "indexed": false,
          "internalType": "uint256",
          "name": "_chainId",
          "type": "uint256"
        },
        {
          "indexed": true,
          "internalType": "uint256",
          "name": "_batchIndex",
          "type": "uint256"
        },
        {
          "indexed": false,
          "internalType": "bytes32",
          "name": "_batchRoot",
          "type": "bytes32"
        },
        {
          "indexed": false,
          "internalType": "uint256",
          "name": "_batchSize",
          "type": "uint256"
        },
        {
          "indexed": false,
          "internalType": "uint256",
          "name": "_prevTotalElements",
          "type": "uint256"
        },
        {
          "indexed": false,
          "internalType": "bytes",
          "name": "_extraData",
          "type": "bytes"
        }
      ],
      "name": "StateBatchAppended",
      "type": "event"
    },
    {
      "anonymous": false,
      "inputs": [
        {
          "indexed": false,
          "internalType": "uint256",
          "name": "_chainId",
          "type": "uint256"
        },
        {
          "indexed": true,
          "internalType": "uint256",
          "name": "_batchIndex",
          "type": "uint256"
        },
        {
          "indexed": false,
          "internalType": "bytes32",
          "name": "_batchRoot",
          "type": "bytes32"
        }
      ],
      "name": "StateBatchDeleted",
      "type": "event"
    },
    {
      "inputs": [],
      "name": "DEFAULT_CHAINID",
      "outputs": [
        {
          "internalType": "uint256",
          "name": "",
          "type": "uint256"
        }
      ],
      "stateMutability": "view",
      "type": "function"
    },
    {
      "inputs": [],
      "name": "DISPUTE_GAME_FACTORY_NAME",
      "outputs": [
        {
          "internalType": "string",
          "name": "",
          "type": "string"
        }
      ],
      "stateMutability": "view",
      "type": "function"
    },
    {
      "inputs": [],
      "name": "FRAUD_PROOF_WINDOW",
      "outputs": [
        {
          "internalType": "uint256",
          "name": "",
          "type": "uint256"
        }
      ],
      "stateMutability": "view",
      "type": "function"
    },
    {
      "inputs": [],
      "name": "SEQUENCER_PUBLISH_WINDOW",
      "outputs": [
        {
          "internalType": "uint256",
          "name": "",
          "type": "uint256"
        }
      ],
      "stateMutability": "view",
      "type": "function"
    },
    {
      "inputs": [
        {
          "internalType": "bytes32[]",
          "name": "_batch",
          "type": "bytes32[]"
        },
        {
          "internalType": "uint256",
          "name": "_shouldStartAtElement",
          "type": "uint256"
        },
        {
          "internalType": "bytes32",
          "name": "_lastBatchBlockHash",
          "type": "bytes32"
        },
        {
          "internalType": "uint256",
          "name": "_lastBatchBlockNumber",
          "type": "uint256"
        }
      ],
      "name": "appendStateBatch",
      "outputs": [],
      "stateMutability": "nonpayable",
      "type": "function"
    },
    {
      "inputs": [
        {
          "internalType": "uint256",
          "name": "_chainId",
          "type": "uint256"
        },
        {
          "internalType": "bytes32[]",
          "name": "_batch",
          "type": "bytes32[]"
        },
        {
          "internalType": "uint256",
          "name": "_shouldStartAtElement",
          "type": "uint256"
        },
        {
          "internalType": "string",
          "name": "_proposer",
          "type": "string"
        },
        {
          "internalType": "bytes32",
          "name": "_lastBatchBlockHash",
          "type": "bytes32"
        },
        {
          "internalType": "uint256",
          "name": "_lastBatchBlockNumber",
          "type": "uint256"
        }
      ],
      "name": "appendStateBatchByChainId",
      "outputs": [],
      "stateMutability": "nonpayable",
      "type": "function"
    },
    {
      "inputs": [
        {
          "internalType": "bytes32",
          "name": "",
          "type": "bytes32"
        }
      ],
      "name": "batchLastL2BlockNumbers",
      "outputs": [
        {
          "internalType": "uint256",
          "name": "",
          "type": "uint256"
        }
      ],
      "stateMutability": "view",
      "type": "function"
    },
    {
      "inputs": [
        {
          "internalType": "uint256",
          "name": "",
          "type": "uint256"
        },
        {
          "internalType": "uint256",
          "name": "",
          "type": "uint256"
        }
      ],
      "name": "batchTimes",
      "outputs": [
        {
          "internalType": "bytes16",
          "name": "",
          "type": "bytes16"
        }
      ],
      "stateMutability": "view",
      "type": "function"
    },
    {
      "inputs": [],
      "name": "batches",
      "outputs": [
        {
          "internalType": "contract IChainStorageContainer",
          "name": "",
          "type": "address"
        }
      ],
      "stateMutability": "view",
      "type": "function"
    },
    {
      "inputs": [
        {
          "components": [
            {
              "internalType": "uint256",
              "name": "batchIndex",
              "type": "uint256"
            },
            {
              "internalType": "bytes32",
              "name": "batchRoot",
              "type": "bytes32"
            },
            {
              "internalType": "uint256",
              "name": "batchSize",
              "type": "uint256"
            },
            {
              "internalType": "uint256",
              "name": "prevTotalElements",
              "type": "uint256"
            },
            {
              "internalType": "bytes",
              "name": "extraData",
              "type": "bytes"
            }
          ],
          "internalType": "struct Lib_OVMCodec.ChainBatchHeader",
          "name": "_batchHeader",
          "type": "tuple"
        }
      ],
      "name": "deleteStateBatch",
      "outputs": [],
      "stateMutability": "nonpayable",
      "type": "function"
    },
    {
      "inputs": [
        {
          "internalType": "uint256",
          "name": "_chainId",
          "type": "uint256"
        },
        {
          "components": [
            {
              "internalType": "uint256",
              "name": "batchIndex",
              "type": "uint256"
            },
            {
              "internalType": "bytes32",
              "name": "batchRoot",
              "type": "bytes32"
            },
            {
              "internalType": "uint256",
              "name": "batchSize",
              "type": "uint256"
            },
            {
              "internalType": "uint256",
              "name": "prevTotalElements",
              "type": "uint256"
            },
            {
              "internalType": "bytes",
              "name": "extraData",
              "type": "bytes"
            }
          ],
          "internalType": "struct Lib_OVMCodec.ChainBatchHeader",
          "name": "_batchHeader",
          "type": "tuple"
        }
      ],
      "name": "deleteStateBatchByChainId",
      "outputs": [],
      "stateMutability": "nonpayable",
      "type": "function"
    },
    {
      "inputs": [
        {
          "internalType": "bytes32",
          "name": "",
          "type": "bytes32"
        }
      ],
      "name": "disputedBatches",
      "outputs": [
        {
          "internalType": "bool",
          "name": "",
          "type": "bool"
        }
      ],
      "stateMutability": "view",
      "type": "function"
    },
    {
      "inputs": [
        {
          "internalType": "uint256",
          "name": "_chainId",
          "type": "uint256"
        }
      ],
      "name": "findEarliestDisputableBatch",
      "outputs": [
        {
          "components": [
            {
              "internalType": "bytes32",
              "name": "batchHeaderHash",
              "type": "bytes32"
            },
            {
              "internalType": "uint256",
              "name": "lastL2BlockNumber",
              "type": "uint256"
            }
          ],
          "internalType": "struct IMVMStateCommitmentChain.BatchInfo",
          "name": "_lastFinalized",
          "type": "tuple"
        },
        {
          "components": [
            {
              "internalType": "bytes32",
              "name": "batchHeaderHash",
              "type": "bytes32"
            },
            {
              "internalType": "uint256",
              "name": "lastL2BlockNumber",
              "type": "uint256"
            }
          ],
          "internalType": "struct IMVMStateCommitmentChain.BatchInfo",
          "name": "_earliestDisputable",
          "type": "tuple"
        }
      ],
      "stateMutability": "view",
      "type": "function"
    },
    {
      "inputs": [],
      "name": "getLastSequencerTimestamp",
      "outputs": [
        {
          "internalType": "uint256",
          "name": "_lastSequencerTimestamp",
          "type": "uint256"
        }
      ],
      "stateMutability": "view",
      "type": "function"
    },
    {
      "inputs": [
        {
          "internalType": "uint256",
          "name": "_chainId",
          "type": "uint256"
        }
      ],
      "name": "getLastSequencerTimestampByChainId",
      "outputs": [
        {
          "internalType": "uint256",
          "name": "_lastSequencerTimestamp",
          "type": "uint256"
        }
      ],
      "stateMutability": "view",
      "type": "function"
    },
    {
      "inputs": [],
      "name": "getTotalBatches",
      "outputs": [
        {
          "internalType": "uint256",
          "name": "_totalBatches",
          "type": "uint256"
        }
      ],
      "stateMutability": "view",
      "type": "function"
    },
    {
      "inputs": [
        {
          "internalType": "uint256",
          "name": "_chainId",
          "type": "uint256"
        }
      ],
      "name": "getTotalBatchesByChainId",
      "outputs": [
        {
          "internalType": "uint256",
          "name": "_totalBatches",
          "type": "uint256"
        }
      ],
      "stateMutability": "view",
      "type": "function"
    },
    {
      "inputs": [],
      "name": "getTotalElements",
      "outputs": [
        {
          "internalType": "uint256",
          "name": "_totalElements",
          "type": "uint256"
        }
      ],
      "stateMutability": "view",
      "type": "function"
    },
    {
      "inputs": [
        {
          "internalType": "uint256",
          "name": "_chainId",
          "type": "uint256"
        }
      ],
      "name": "getTotalElementsByChainId",
      "outputs": [
        {
          "internalType": "uint256",
          "name": "_totalElements",
          "type": "uint256"
        }
      ],
      "stateMutability": "view",
      "type": "function"
    },
    {
      "inputs": [
        {
          "components": [
            {
              "internalType": "uint256",
              "name": "batchIndex",
              "type": "uint256"
            },
            {
              "internalType": "bytes32",
              "name": "batchRoot",
              "type": "bytes32"
            },
            {
              "internalType": "uint256",
              "name": "batchSize",
              "type": "uint256"
            },
            {
              "internalType": "uint256",
              "name": "prevTotalElements",
              "type": "uint256"
            },
            {
              "internalType": "bytes",
              "name": "extraData",
              "type": "bytes"
            }
          ],
          "internalType": "struct Lib_OVMCodec.ChainBatchHeader",
          "name": "_batchHeader",
          "type": "tuple"
        }
      ],
      "name": "insideFraudProofWindow",
      "outputs": [
        {
          "internalType": "bool",
          "name": "_inside",
          "type": "bool"
        }
      ],
      "stateMutability": "view",
      "type": "function"
    },
    {
      "inputs": [
        {
          "internalType": "uint256",
          "name": "",
          "type": "uint256"
        },
        {
          "components": [
            {
              "internalType": "uint256",
              "name": "batchIndex",
              "type": "uint256"
            },
            {
              "internalType": "bytes32",
              "name": "batchRoot",
              "type": "bytes32"
            },
            {
              "internalType": "uint256",
              "name": "batchSize",
              "type": "uint256"
            },
            {
              "internalType": "uint256",
              "name": "prevTotalElements",
              "type": "uint256"
            },
            {
              "internalType": "bytes",
              "name": "extraData",
              "type": "bytes"
            }
          ],
          "internalType": "struct Lib_OVMCodec.ChainBatchHeader",
          "name": "_batchHeader",
          "type": "tuple"
        }
      ],
      "name": "insideFraudProofWindowByChainId",
      "outputs": [
        {
          "internalType": "bool",
          "name": "_inside",
          "type": "bool"
        }
      ],
      "stateMutability": "view",
      "type": "function"
    },
    {
      "inputs": [
        {
          "internalType": "bytes32",
          "name": "stateHeaderHash",
          "type": "bytes32"
        }
      ],
      "name": "isDisputedBatch",
      "outputs": [
        {
          "internalType": "bool",
          "name": "",
          "type": "bool"
        }
      ],
      "stateMutability": "view",
      "type": "function"
    },
    {
      "inputs": [],
      "name": "libAddressManager",
      "outputs": [
        {
          "internalType": "contract Lib_AddressManager",
          "name": "",
          "type": "address"
        }
      ],
      "stateMutability": "view",
      "type": "function"
    },
    {
      "inputs": [
        {
          "internalType": "string",
          "name": "_name",
          "type": "string"
        }
      ],
      "name": "resolve",
      "outputs": [
        {
          "internalType": "address",
          "name": "",
          "type": "address"
        }
      ],
      "stateMutability": "view",
      "type": "function"
    },
    {
      "inputs": [
        {
          "internalType": "bytes32",
          "name": "stateHeaderHash",
          "type": "bytes32"
        }
      ],
      "name": "saveDisputedBatch",
      "outputs": [],
      "stateMutability": "nonpayable",
      "type": "function"
    },
    {
      "inputs": [
        {
          "internalType": "uint256",
          "name": "window",
          "type": "uint256"
        }
      ],
      "name": "setFraudProofWindow",
      "outputs": [],
      "stateMutability": "nonpayable",
      "type": "function"
    },
    {
      "inputs": [
        {
          "internalType": "bytes32",
          "name": "_element",
          "type": "bytes32"
        },
        {
          "components": [
            {
              "internalType": "uint256",
              "name": "batchIndex",
              "type": "uint256"
            },
            {
              "internalType": "bytes32",
              "name": "batchRoot",
              "type": "bytes32"
            },
            {
              "internalType": "uint256",
              "name": "batchSize",
              "type": "uint256"
            },
            {
              "internalType": "uint256",
              "name": "prevTotalElements",
              "type": "uint256"
            },
            {
              "internalType": "bytes",
              "name": "extraData",
              "type": "bytes"
            }
          ],
          "internalType": "struct Lib_OVMCodec.ChainBatchHeader",
          "name": "_batchHeader",
          "type": "tuple"
        },
        {
          "components": [
            {
              "internalType": "uint256",
              "name": "index",
              "type": "uint256"
            },
            {
              "internalType": "bytes32[]",
              "name": "siblings",
              "type": "bytes32[]"
            }
          ],
          "internalType": "struct Lib_OVMCodec.ChainInclusionProof",
          "name": "_proof",
          "type": "tuple"
        }
      ],
      "name": "verifyStateCommitment",
      "outputs": [
        {
          "internalType": "bool",
          "name": "",
          "type": "bool"
        }
      ],
      "stateMutability": "view",
      "type": "function"
    },
    {
      "inputs": [
        {
          "internalType": "uint256",
          "name": "_chainId",
          "type": "uint256"
        },
        {
          "internalType": "bytes32",
          "name": "_element",
          "type": "bytes32"
        },
        {
          "components": [
            {
              "internalType": "uint256",
              "name": "batchIndex",
              "type": "uint256"
            },
            {
              "internalType": "bytes32",
              "name": "batchRoot",
              "type": "bytes32"
            },
            {
              "internalType": "uint256",
              "name": "batchSize",
              "type": "uint256"
            },
            {
              "internalType": "uint256",
              "name": "prevTotalElements",
              "type": "uint256"
            },
            {
              "internalType": "bytes",
              "name": "extraData",
              "type": "bytes"
            }
          ],
          "internalType": "struct Lib_OVMCodec.ChainBatchHeader",
          "name": "_batchHeader",
          "type": "tuple"
        },
        {
          "components": [
            {
              "internalType": "uint256",
              "name": "index",
              "type": "uint256"
            },
            {
              "internalType": "bytes32[]",
              "name": "siblings",
              "type": "bytes32[]"
            }
          ],
          "internalType": "struct Lib_OVMCodec.ChainInclusionProof",
          "name": "_proof",
          "type": "tuple"
        }
      ],
      "name": "verifyStateCommitmentByChainId",
      "outputs": [
        {
          "internalType": "bool",
          "name": "",
          "type": "bool"
        }
      ],
      "stateMutability": "view",
      "type": "function"
    }
  ],
  "transactionHash": "0x05ca90ba3c81a14af3354057d6b72dbd4cf7fec4975d64f237433beab0c722db",
  "args": [
    "0xa66Fa1eD0f1C1ee300893B4eb5493FeAD9a7e9c3",
    604800,
    0
  ],
  "numDeployments": 2,
  "solcInputHash": "0f495bf74031feccc05ca420e3e31896",
  "bytecode": "0x60806040526104406003553480156200001757600080fd5b506040516200310d3803806200310d8339810160408190526200003a9162000067565b600080546001600160a01b0319166001600160a01b039490941693909317909255600155600255620000ac565b6000806000606084860312156200007d57600080fd5b83516001600160a01b03811681146200009557600080fd5b602085015160409095015190969495509392505050565b61305180620000bc6000396000f3fe608060405234801561001057600080fd5b50600436106101c45760003560e01c80637fe9b70f116100f9578063a0832c0311610097578063c17b291b11610071578063c17b291b14610410578063cfdf677e14610419578063dfd9826914610421578063e561dddc1461046a57600080fd5b8063a0832c03146103c9578063ab59f7b8146103ea578063b8e189ac146103fd57600080fd5b80638a52e622116100d35780638a52e622146103705780638c7de742146103835780639418bddd146103965780639b9d8324146103a957600080fd5b80637fe9b70f1461034157806380931e371461035457806381eb62ef1461036757600080fd5b80635b297172116101665780635fc993dd116101405780635fc993dd146102fb5780636d3454bf1461031e5780637aa63a86146103315780637ad168a01461033957600080fd5b80635b297172146102be5780635bbbb7ed146102d15780635cb58374146102e857600080fd5b80632ab65ec7116101a25780632ab65ec7146102525780633e3cd32614610265578063461a4478146102985780634d69ee57146102ab57600080fd5b80630a17d699146101c95780632471e03c146101de578063299ca47814610227575b600080fd5b6101dc6101d7366004612766565b610472565b005b6101f16101ec3660046127ef565b610703565b6040517fffffffffffffffffffffffffffffffff0000000000000000000000000000000090911681526020015b60405180910390f35b60005461023a906001600160a01b031681565b6040516001600160a01b03909116815260200161021e565b6101dc6102603660046128b2565b610749565b6102886102733660046128f9565b60066020526000908152604090205460ff1681565b604051901515815260200161021e565b61023a6102a6366004612912565b61088a565b6102886102b93660046129b6565b61091b565b6101dc6102cc366004612a23565b610935565b6102da60035481565b60405190815260200161021e565b6102da6102f63660046128f9565b61097a565b6102886103093660046128f9565b60009081526006602052604090205460ff1690565b61028861032c3660046128b2565b610995565b6102da6109bb565b6102da6109cd565b6101dc61034f3660046128f9565b6109da565b610288610362366004612a77565b610c32565b6102da60025481565b6102da61037e3660046128f9565b610cfe565b6102da6103913660046128f9565b610d19565b6102886103a4366004612aee565b610d91565b6102da6103b73660046128f9565b60056020526000908152604090205481565b6103dc6103d73660046128f9565b610e1b565b60405161021e929190612b23565b6101dc6103f83660046128f9565b610f51565b6101dc61040b366004612aee565b610ff4565b6102da60015481565b61023a611003565b61045d6040518060400160405280601281526020017f4469737075746547616d65466163746f7279000000000000000000000000000081525081565b60405161021e9190612ba5565b6102da611026565b61047b86610cfe565b84146104f45760405162461bcd60e51b815260206004820152603d60248201527f41637475616c20626174636820737461727420696e64657820646f6573206e6f60448201527f74206d6174636820657870656374656420737461727420696e6465782e00000060648201526084015b60405180910390fd5b60006104ff8461088a565b905061053f6040518060400160405280600b81526020017f426f6e644d616e6167657200000000000000000000000000000000000000000081525061088a565b6040517ff3b96f1c000000000000000000000000000000000000000000000000000000008152600481018990523360248201526001600160a01b038381166044830152919091169063f3b96f1c90606401602060405180830381865afa1580156105ad573d6000803e3d6000fd5b505050506040513d601f19601f820116820180604052508101906105d19190612bb8565b6106435760405162461bcd60e51b815260206004820152602f60248201527f50726f706f73657220646f6573206e6f74206861766520656e6f75676820636f60448201527f6c6c61746572616c20706f73746564000000000000000000000000000000000060648201526084016104eb565b60008651116106ba5760405162461bcd60e51b815260206004820152602360248201527f43616e6e6f74207375626d697420616e20656d7074792073746174652062617460448201527f63682e000000000000000000000000000000000000000000000000000000000060648201526084016104eb565b60408051426020820152339181019190915260608101849052608081018390526106fa908890889060a00160405160208183030381529060405284611033565b50505050505050565b6004602052816000526040600020818154811061071f57600080fd5b9060005260206000209060029182820401919006601002915091509054906101000a900460801b81565b61077961075583611246565b6040516020016107659190612bda565b60405160208183030381529060405261088a565b6001600160a01b0316336001600160a01b0316146107ff5760405162461bcd60e51b815260206004820152603b60248201527f537461746520626174636865732063616e206f6e6c792062652064656c65746560448201527f6420627920746865204d564d5f467261756456657269666965722e000000000060648201526084016104eb565b61080881610d91565b61087c576040805162461bcd60e51b81526020600482015260248101919091527f537461746520626174636865732063616e206f6e6c792062652064656c65746560448201527f642077697468696e207468652066726175642070726f6f662077696e646f772e60648201526084016104eb565b61088682826113a6565b5050565b600080546040517fbf40fac10000000000000000000000000000000000000000000000000000000081526001600160a01b039091169063bf40fac1906108d4908590600401612ba5565b602060405180830381865afa1580156108f1573d6000803e3d6000fd5b505050506040513d601f19601f820116820180604052508101906109159190612c30565b92915050565b600061092b600354858585610c32565b90505b9392505050565b6000610942600354611246565b6040516020016109529190612c4d565b60405160208183030381529060405290506109736003548686848787610472565b5050505050565b6000806109868361177d565b64ffffffffff16949350505050565b6000806109a58360800151611813565b50505090506109b3816118c9565b949350505050565b60006109c8600354610cfe565b905090565b60006109c860035461097a565b60003390506000806000836001600160a01b031663fa24f7436040518163ffffffff1660e01b8152600401600060405180830381865afa158015610a22573d6000803e3d6000fd5b505050506040513d6000823e601f3d908101601f19168201604052610a4a9190810190612c8e565b9250925092506000610a906040518060400160405280601281526020017f4469737075746547616d65466163746f7279000000000000000000000000000081525061088a565b6001600160a01b0316635f0150cb8585856040518463ffffffff1660e01b8152600401610abf93929190612d2d565b6040805180830381865afa158015610adb573d6000803e3d6000fd5b505050506040513d601f19601f82011682018060405250810190610aff9190612d5b565b509050846001600160a01b0316816001600160a01b031614610b4d576040517f6b0f689100000000000000000000000000000000000000000000000000000000815260040160405180910390fd5b60008681526006602052604090205460ff1615610b96576040517ff1a9458100000000000000000000000000000000000000000000000000000000815260040160405180910390fd5b6001856001600160a01b031663200d2ed26040518163ffffffff1660e01b8152600401602060405180830381865afa158015610bd6573d6000803e3d6000fd5b505050506040513d601f19601f82011682018060405250810190610bfa9190612db8565b6002811115610c0b57610c0b612da2565b03610c2a576000868152600660205260409020805460ff191660011790555b505050505050565b6000610c3e858461193f565b610c8a5760405162461bcd60e51b815260206004820152601560248201527f496e76616c6964206261746368206865616465722e000000000000000000000060448201526064016104eb565b610ca78360200151858460000151856020015187604001516119cf565b610cf35760405162461bcd60e51b815260206004820152601860248201527f496e76616c696420696e636c7573696f6e2070726f6f662e000000000000000060448201526064016104eb565b506001949350505050565b600080610d0a8361177d565b5064ffffffffff169392505050565b6000610d23611003565b6001600160a01b031663576f2588836040518263ffffffff1660e01b8152600401610d5091815260200190565b602060405180830381865afa158015610d6d573d6000803e3d6000fd5b505050506040513d601f19601f820116820180604052508101906109159190612dd9565b600080610da18360800151611813565b505050905080600003610e045760405162461bcd60e51b815260206004820152602560248201527f4261746368206865616465722074696d657374616d702063616e6e6f74206265604482015264207a65726f60d81b60648201526084016104eb565b4260015482610e139190612e08565b119392505050565b60408051808201909152600080825260208201526040805180820190915260008082526020820152600060015442610e539190612e20565b90506000806000610e648785611c3c565b92509250925060405180604001604052808381526020018281525094506000610e8b611003565b6001600160a01b03166367d18b9b89610ea5600188612e20565b6040517fffffffff0000000000000000000000000000000000000000000000000000000060e085901b16815260048101929092526024820152604401602060405180830381865afa158015610efe573d6000803e3d6000fd5b505050506040513d601f19601f82011682018060405250810190610f229190612dd9565b604080518082018252828152600092835260056020908152919092205490820152989597509495505050505050565b610f8f6040518060400160405280600d81526020017f4d455449535f4d414e414745520000000000000000000000000000000000000081525061088a565b6001600160a01b0316336001600160a01b031614610fef5760405162461bcd60e51b815260206004820152600b60248201527f6e6f7420616c6c6f77656400000000000000000000000000000000000000000060448201526064016104eb565b600155565b61100060035482610749565b50565b60006109c8604051806060016040528060218152602001612ffb6021913961088a565b60006109c8600354610d19565b60008061103f8661177d565b9150915042905060006040518060a0016040528061105c89610d19565b815260200161106a88612015565b8152602001875181526020018464ffffffffff16815260200186815250905080600001517fbaa1d762384057169afd12b625998a5a7ed502c2e229acdbead30f3f6496399d8883602001518460400151856060015186608001516040516110d5959493929190612e37565b60405180910390a260006110e8826124f8565b90506110f2611003565b6001600160a01b031663e6e436c08983611127866040015187606001516111199190612e08565b602889811b91909117901b90565b6040517fffffffff0000000000000000000000000000000000000000000000000000000060e086901b1681526004810193909352602483019190915264ffffffffff19166044820152606401600060405180830381600087803b15801561118d57600080fd5b505af11580156111a1573d6000803e3d6000fd5b5050506000898152600460209081526040808320865181546001818101845583875294909520600286040180546fffffffffffffffffffffffffffffffff9283166cffffffffff00000000000000008c871b1617601097909616969096026101000a948502919094021990941693909317909155840151606085015191925061122991612e08565b600092835260056020526040909220919091555050505050505050565b60608160000361128957505060408051808201909152600181527f3000000000000000000000000000000000000000000000000000000000000000602082015290565b8160005b81156112b3578061129d81612e62565b91506112ac9050600a83612e91565b915061128d565b60008167ffffffffffffffff8111156112ce576112ce612619565b6040519080825280601f01601f1916602001820160405280156112f8576020820181803683370190505b509050815b851561139d5761130e600182612e20565b9050600061131d600a88612e91565b61132890600a612ea5565b6113329088612e20565b61133d906030612ec4565b905060008160f81b90508084848151811061135a5761135a612ee9565b60200101907effffffffffffffffffffffffffffffffffffffffffffffffffffffffffffff1916908160001a905350611394600a89612e91565b975050506112fd565b50949350505050565b6113ae611003565b6001600160a01b031663576f2588836040518263ffffffff1660e01b81526004016113db91815260200190565b602060405180830381865afa1580156113f8573d6000803e3d6000fd5b505050506040513d601f19601f8201168201806040525081019061141c9190612dd9565b81511061146b5760405162461bcd60e51b815260206004820152601460248201527f496e76616c696420626174636820696e6465782e00000000000000000000000060448201526064016104eb565b611475828261193f565b6114c15760405162461bcd60e51b815260206004820152601560248201527f496e76616c6964206261746368206865616465722e000000000000000000000060448201526064016104eb565b60808160800151511061168957600081608001518060200190518101906114e89190612eff565b505050905060006114f98483611c3c565b509150506000611508846124f8565b905081811461157f5760405162461bcd60e51b815260206004820152603360248201527f416e63686f7265642062617463682068656164657220646f6573206e6f74206d60448201527f6174636820746865207375626d69747465642e0000000000000000000000000060648201526084016104eb565b600081815260056020908152604080832083905587835260049091528120805490919081906115b090600190612e20565b90505b86600001518382815481106115ca576115ca612ee9565b6000918252602090912060028204015460019091166010026101000a900467ffffffffffffffff16106116075761160082612e62565b915061160c565b61161c565b61161581612f3d565b90506115b3565b5060005b81811015611682578280548061163857611638612f54565b60008281526020902060026000199092019182040180546fffffffffffffffffffffffffffffffff601060018516026101000a0219169055905561167b81612e62565b9050611620565b5050505050505b611691611003565b815160608301516001600160a01b03929092169163bc05257691859160281b6040517fffffffff0000000000000000000000000000000000000000000000000000000060e086901b1681526004810193909352602483019190915264ffffffffff19166044820152606401600060405180830381600087803b15801561171657600080fd5b505af115801561172a573d6000803e3d6000fd5b5050505080600001517f6e9c082632d809680ee6227e58afd9a7c24ee8a43d61577b2e98f9e185fc630d838360200151604051611771929190918252602082015260400190565b60405180910390a25050565b600080600061178a611003565b6001600160a01b03166324a49415856040518263ffffffff1660e01b81526004016117b791815260200190565b602060405180830381865afa1580156117d4573d6000803e3d6000fd5b505050506040513d601f19601f820116820180604052508101906117f89190612f6a565b64ffffffffff602882901c169560509190911c945092505050565b6000806000806000806000808851604003611846578880602001905181019061183c9190612f92565b90945092506118ba565b885160800361187257888060200190518101906118639190612eff565b929650909450925090506118ba565b60405162461bcd60e51b815260206004820152601960248201527f496e76616c69642065787472612064617461206c656e6774680000000000000060448201526064016104eb565b92989197509550909350915050565b6000816000036119295760405162461bcd60e51b815260206004820152602560248201527f4261746368206865616465722074696d657374616d702063616e6e6f74206265604482015264207a65726f60d81b60648201526084016104eb565b42600154836119389190612e08565b1192915050565b6000611949611003565b82516040516367d18b9b60e01b81526004810186905260248101919091526001600160a01b0391909116906367d18b9b90604401602060405180830381865afa15801561199a573d6000803e3d6000fd5b505050506040513d601f19601f820116820180604052508101906119be9190612dd9565b6119c7836124f8565b149392505050565b6000808211611a465760405162461bcd60e51b815260206004820152603760248201527f4c69625f4d65726b6c65547265653a20546f74616c206c6561766573206d757360448201527f742062652067726561746572207468616e207a65726f2e00000000000000000060648201526084016104eb565b818410611aba5760405162461bcd60e51b8152602060048201526024808201527f4c69625f4d65726b6c65547265653a20496e646578206f7574206f6620626f7560448201527f6e64732e0000000000000000000000000000000000000000000000000000000060648201526084016104eb565b611ac38261253e565b835114611b5e5760405162461bcd60e51b815260206004820152604d60248201527f4c69625f4d65726b6c65547265653a20546f74616c207369626c696e6773206460448201527f6f6573206e6f7420636f72726563746c7920636f72726573706f6e6420746f2060648201527f746f74616c206c65617665732e00000000000000000000000000000000000000608482015260a4016104eb565b8460005b8451811015611c2f5785600116600103611bc857848181518110611b8857611b88612ee9565b602002602001015182604051602001611bab929190918252602082015260400190565b604051602081830303815290604052805190602001209150611c16565b81858281518110611bdb57611bdb612ee9565b6020026020010151604051602001611bfd929190918252602082015260400190565b6040516020818303038152906040528051906020012091505b60019590951c9480611c2781612e62565b915050611b62565b5090951495945050505050565b6000828152600460205260408120805482918291611cc25760405162461bcd60e51b815260206004820152602960248201527f4e6f2064697370757461626c6520626174636820686173206265656e2061707060448201527f656e64656420796574000000000000000000000000000000000000000000000060648201526084016104eb565b80546000908190611cd590600190612e20565b905060006040848381548110611ced57611ced612ee9565b90600052602060002090600291828204019190066010029054906101000a900460801b60801c6fffffffffffffffffffffffffffffffff16901c6fffffffffffffffffffffffffffffffff1690506000604085600081548110611d5257611d52612ee9565b6000918252602090912060028204015460019091166010026101000a90046fffffffffffffffffffffffffffffffff90811690911c16905081891115611dda5760405162461bcd60e51b815260206004820152601360248201527f4e6f20626174636820746f20646973707574650000000000000000000000000060448201526064016104eb565b808911611dea5760009350611e91565b6000835b80821015611e8d5760006002611e048484612e20565b611e0e9190612e91565b611e189084612e08565b905060006040898381548110611e3057611e30612ee9565b6000918252602090912060028204015460019091166010026101000a90046fffffffffffffffffffffffffffffffff90811690911c1690508c811015611e8257611e7b826001612e08565b9350611e86565b8192505b5050611dee565b5093505b6000858581548110611ea557611ea5612ee9565b60009182526020822060028204015460019091166010026101000a900467ffffffffffffffff169150611ed6611003565b6040516367d18b9b60e01b8152600481018e9052602481018490526001600160a01b0391909116906367d18b9b90604401602060405180830381865afa158015611f24573d6000803e3d6000fd5b505050506040513d601f19601f82011682018060405250810190611f489190612dd9565b90505b60008181526006602052604090205460ff1615611ff357611f6a611003565b6001600160a01b03166367d18b9b8d611f8285612e62565b9450846040518363ffffffff1660e01b8152600401611fab929190918252602082015260400190565b602060405180830381865afa158015611fc8573d6000803e3d6000fd5b505050506040513d601f19601f82011682018060405250810190611fec9190612dd9565b9050611f4b565b6000818152600560205260409020549199509750955050505050509250925092565b60008082511161208d5760405162461bcd60e51b815260206004820152603460248201527f4c69625f4d65726b6c65547265653a204d7573742070726f766964652061742060448201527f6c65617374206f6e65206c65616620686173682e00000000000000000000000060648201526084016104eb565b81516001036120b857816000815181106120a9576120a9612ee9565b60200260200101519050919050565b60408051610200810182527f290decd9548b62a8d60345a988386fc84ba6bc95484008f6362f93160ef3e56381527f633dc4d7da7256660a892f8f1604a44b5432649cc8ec5cb3ced4c4e6ac94dd1d60208201527f890740a8eb06ce9be422cb8da5cdafc2b58c0a5e24036c578de2a433c828ff7d818301527f3b8ec09e026fdc305365dfc94e189a81b38c7597b3d941c279f042e8206e0bd86060808301919091527fecd50eee38e386bd62be9bedb990706951b65fe053bd9d8a521af753d139e2da60808301527fdefff6d330bb5403f63b14f33b578274160de3a50df4efecf0e0db73bcdd3da560a08301527f617bdd11f7c0a11f49db22f629387a12da7596f9d1704d7465177c63d88ec7d760c08301527f292c23a9aa1d8bea7e2435e555a4a60e379a5a35f3f452bae60121073fb6eead60e08301527fe1cea92ed99acdcb045a6726b2f87107e8a61620a232cf4d7d5b5766b3952e106101008301527f7ad66c0a68c72cb89e4fb4303841966e4062a76ab97451e3b9fb526a5ceb7f826101208301527fe026cc5a4aed3c22a58cbd3d2ac754c9352c5436f638042dca99034e836365166101408301527f3d04cffd8b46a874edf5cfae63077de85f849a660426697b06a829c70dd1409c6101608301527fad676aa337a485e4728a0b240d92b3ef7b3c372d06d189322bfd5f61f1e7203e6101808301527fa2fca4a49658f9fab7aa63289c91b7c7b6c832a6d0e69334ff5b0a3483d09dab6101a08301527f4ebfd9cd7bca2505f7bef59cc1c12ecc708fff26ae4af19abe852afe9e20c8626101c08301527f2def10d13dd169f550f578bda343d9717a138562e0093b380a1120789d53cf106101e083015282518381529081018352909160009190602082018180368337505085519192506000918291508180805b60018411156124ce57612369600285612e91565b9150612376600285612fb7565b600114905060005b82811015612422578a612392826002612ea5565b815181106123a2576123a2612ee9565b602002602001015196508a8160026123ba9190612ea5565b6123c5906001612e08565b815181106123d5576123d5612ee9565b6020026020010151955086602089015285604089015287805190602001208b828151811061240557612405612ee9565b60209081029190910101528061241a81612e62565b91505061237e565b50801561249e5789612435600186612e20565b8151811061244557612445612ee9565b6020026020010151955087836010811061246157612461612ee9565b602002015160001b945085602088015284604088015286805190602001208a838151811061249157612491612ee9565b6020026020010181815250505b806124aa5760006124ad565b60015b6124ba9060ff1683612e08565b9350826124c681612e62565b935050612355565b896000815181106124e1576124e1612ee9565b602002602001015198505050505050505050919050565b600081602001518260400151836060015184608001516040516020016125219493929190612fcb565b604051602081830303815290604052805190602001209050919050565b60008082116125b55760405162461bcd60e51b815260206004820152603060248201527f4c69625f4d65726b6c65547265653a2043616e6e6f7420636f6d70757465206360448201527f65696c286c6f675f3229206f6620302e0000000000000000000000000000000060648201526084016104eb565b816001036125c557506000919050565b81600060805b6001811061260357806125e1600180831b612e20565b901b8316156125fb576125f48183612e08565b92811c9291505b60011c6125cb565b506001811b841461092e5761092b600182612e08565b634e487b7160e01b600052604160045260246000fd5b604051601f8201601f1916810167ffffffffffffffff8111828210171561265857612658612619565b604052919050565b600082601f83011261267157600080fd5b8135602067ffffffffffffffff82111561268d5761268d612619565b8160051b61269c82820161262f565b92835284810182019282810190878511156126b657600080fd5b83870192505b848310156126d5578235825291830191908301906126bc565b979650505050505050565b600067ffffffffffffffff8211156126fa576126fa612619565b50601f01601f191660200190565b600061271b612716846126e0565b61262f565b905082815283838301111561272f57600080fd5b828260208301376000602084830101529392505050565b600082601f83011261275757600080fd5b61092e83833560208501612708565b60008060008060008060c0878903121561277f57600080fd5b86359550602087013567ffffffffffffffff8082111561279e57600080fd5b6127aa8a838b01612660565b96506040890135955060608901359150808211156127c757600080fd5b506127d489828a01612746565b9350506080870135915060a087013590509295509295509295565b6000806040838503121561280257600080fd5b50508035926020909101359150565b600060a0828403121561282357600080fd5b60405160a0810167ffffffffffffffff828210818311171561284757612847612619565b8160405282935084358352602085013560208401526040850135604084015260608501356060840152608085013591508082111561288457600080fd5b508301601f8101851361289657600080fd5b6128a585823560208401612708565b6080830152505092915050565b600080604083850312156128c557600080fd5b82359150602083013567ffffffffffffffff8111156128e357600080fd5b6128ef85828601612811565b9150509250929050565b60006020828403121561290b57600080fd5b5035919050565b60006020828403121561292457600080fd5b813567ffffffffffffffff81111561293b57600080fd5b6109b384828501612746565b60006040828403121561295957600080fd5b6040516040810167ffffffffffffffff828210818311171561297d5761297d612619565b8160405282935084358352602085013591508082111561299c57600080fd5b506129a985828601612660565b6020830152505092915050565b6000806000606084860312156129cb57600080fd5b83359250602084013567ffffffffffffffff808211156129ea57600080fd5b6129f687838801612811565b93506040860135915080821115612a0c57600080fd5b50612a1986828701612947565b9150509250925092565b60008060008060808587031215612a3957600080fd5b843567ffffffffffffffff811115612a5057600080fd5b612a5c87828801612660565b97602087013597506040870135966060013595509350505050565b60008060008060808587031215612a8d57600080fd5b8435935060208501359250604085013567ffffffffffffffff80821115612ab357600080fd5b612abf88838901612811565b93506060870135915080821115612ad557600080fd5b50612ae287828801612947565b91505092959194509250565b600060208284031215612b0057600080fd5b813567ffffffffffffffff811115612b1757600080fd5b6109b384828501612811565b82518152602080840151818301528251604083015282015160608201526080810161092e565b60005b83811015612b64578181015183820152602001612b4c565b83811115612b73576000848401525b50505050565b60008151808452612b91816020860160208601612b49565b601f01601f19169290920160200192915050565b60208152600061092e6020830184612b79565b600060208284031215612bca57600080fd5b8151801515811461092e57600080fd5b60008251612bec818460208701612b49565b7f5f4d564d5f467261756456657269666965720000000000000000000000000000920191825250601201919050565b6001600160a01b038116811461100057600080fd5b600060208284031215612c4257600080fd5b815161092e81612c1b565b60008251612c5f818460208701612b49565b7f5f4d564d5f50726f706f73657200000000000000000000000000000000000000920191825250600d01919050565b600080600060608486031215612ca357600080fd5b835163ffffffff81168114612cb757600080fd5b60208501516040860151919450925067ffffffffffffffff811115612cdb57600080fd5b8401601f81018613612cec57600080fd5b8051612cfa612716826126e0565b818152876020838501011115612d0f57600080fd5b612d20826020830160208601612b49565b8093505050509250925092565b63ffffffff84168152826020820152606060408201526000612d526060830184612b79565b95945050505050565b60008060408385031215612d6e57600080fd5b8251612d7981612c1b565b602084015190925067ffffffffffffffff81168114612d9757600080fd5b809150509250929050565b634e487b7160e01b600052602160045260246000fd5b600060208284031215612dca57600080fd5b81516003811061092e57600080fd5b600060208284031215612deb57600080fd5b5051919050565b634e487b7160e01b600052601160045260246000fd5b60008219821115612e1b57612e1b612df2565b500190565b600082821015612e3257612e32612df2565b500390565b85815284602082015283604082015282606082015260a0608082015260006126d560a0830184612b79565b600060018201612e7457612e74612df2565b5060010190565b634e487b7160e01b600052601260045260246000fd5b600082612ea057612ea0612e7b565b500490565b6000816000190483118215151615612ebf57612ebf612df2565b500290565b600060ff821660ff84168060ff03821115612ee157612ee1612df2565b019392505050565b634e487b7160e01b600052603260045260246000fd5b60008060008060808587031215612f1557600080fd5b845193506020850151612f2781612c1b565b6040860151606090960151949790965092505050565b600081612f4c57612f4c612df2565b506000190190565b634e487b7160e01b600052603160045260246000fd5b600060208284031215612f7c57600080fd5b815164ffffffffff198116811461092e57600080fd5b60008060408385031215612fa557600080fd5b825191506020830151612d9781612c1b565b600082612fc657612fc6612e7b565b500690565b848152836020820152826040820152608060608201526000612ff06080830184612b79565b969550505050505056fe436861696e53746f72616765436f6e7461696e65722d5343432d62617463686573a2646970667358221220572802d7a13d8430cd4cd10a035748fd8f8e065d67bc1ca1e3392fd9f9793f9f64736f6c634300080f0033",
  "devdoc": {
    "details": "The State Commitment Chain (SCC) contract contains a list of proposed state roots which Proposers assert to be a result of each transaction in the Canonical Transaction Chain (CTC). Elements here have a 1:1 correspondence with transactions in the CTC, and should be the unique state root calculated off-chain by applying the canonical transactions one by one. Runtime target: EVM",
    "kind": "dev",
    "methods": {
      "appendStateBatch(bytes32[],uint256,bytes32,uint256)": {
        "params": {
          "_batch": "Batch of state roots.",
          "_lastBatchBlockHash": "Block hash of the last batch.",
          "_lastBatchBlockNumber": "Block number of the last batch.",
          "_shouldStartAtElement": "Index of the element at which this batch should start."
        }
      },
      "appendStateBatchByChainId(uint256,bytes32[],uint256,string,bytes32,uint256)": {
        "params": {
          "_batch": "Batch of state roots.",
          "_chainId": "identity for the l2 chain.",
          "_lastBatchBlockHash": "Block hash of the last batch.",
          "_lastBatchBlockNumber": "Block number of the last batch.",
          "_proposer": "proposer of the batch",
          "_shouldStartAtElement": "Index of the element at which this batch should start."
        }
      },
      "batches()": {
        "returns": {
          "_0": "Reference to the batch storage container."
        }
      },
      "constructor": {
        "params": {
          "_libAddressManager": "Address of the Address Manager."
        }
      },
      "deleteStateBatch((uint256,bytes32,uint256,uint256,bytes))": {
        "params": {
          "_batchHeader": "Header of the batch to start deleting from."
        }
      },
      "deleteStateBatchByChainId(uint256,(uint256,bytes32,uint256,uint256,bytes))": {
        "params": {
          "_batchHeader": "Header of the batch to start deleting from.",
          "_chainId": "identity for the l2 chain."
        }
      },
      "findEarliestDisputableBatch(uint256)": {
        "params": {
          "_chainId": "chain id for the l2 chain."
        },
        "returns": {
          "_earliestDisputable": "earliest disputable batch info.",
          "_lastFinalized": "last finalized batch info."
        }
      },
      "getLastSequencerTimestamp()": {
        "returns": {
          "_lastSequencerTimestamp": "Last sequencer batch timestamp."
        }
      },
      "getLastSequencerTimestampByChainId(uint256)": {
        "params": {
          "_chainId": "identity for the l2 chain."
        },
        "returns": {
          "_lastSequencerTimestamp": "Last sequencer batch timestamp."
        }
      },
      "getTotalBatches()": {
        "returns": {
          "_totalBatches": "Total submitted batches."
        }
      },
      "getTotalBatchesByChainId(uint256)": {
        "params": {
          "_chainId": "identity for the l2 chain."
        },
        "returns": {
          "_totalBatches": "Total submitted batches."
        }
      },
      "getTotalElements()": {
        "returns": {
          "_totalElements": "Total submitted elements."
        }
      },
      "getTotalElementsByChainId(uint256)": {
        "params": {
          "_chainId": "identity for the l2 chain."
        },
        "returns": {
          "_totalElements": "Total submitted elements."
        }
      },
      "insideFraudProofWindow((uint256,bytes32,uint256,uint256,bytes))": {
        "params": {
          "_batchHeader": "Header of the batch to check."
        },
        "returns": {
          "_inside": "Whether or not the batch is inside the fraud proof window."
        }
      },
      "isDisputedBatch(bytes32)": {
        "params": {
          "stateHeaderHash": "Hash of the disputed state header."
        },
        "returns": {
          "_0": "Whether or not the batch is disputed."
        }
      },
      "resolve(string)": {
        "params": {
          "_name": "Name to resolve an address for."
        },
        "returns": {
          "_0": "Address associated with the given name."
        }
      },
      "saveDisputedBatch(bytes32)": {
        "params": {
          "stateHeaderHash": "Hash of the disputed state header."
        }
      },
      "verifyStateCommitment(bytes32,(uint256,bytes32,uint256,uint256,bytes),(uint256,bytes32[]))": {
        "params": {
          "_batchHeader": "Header of the batch in which the element was included.",
          "_element": "Hash of the element to verify a proof for.",
          "_proof": "Merkle inclusion proof for the element."
        }
      },
      "verifyStateCommitmentByChainId(uint256,bytes32,(uint256,bytes32,uint256,uint256,bytes),(uint256,bytes32[]))": {
        "params": {
          "_batchHeader": "Header of the batch in which the element was included.",
          "_chainId": "identity for the l2 chain.",
          "_element": "Hash of the element to verify a proof for.",
          "_proof": "Merkle inclusion proof for the element."
        }
      }
    },
    "title": "MVM_StateCommitmentChain",
    "version": 1
  },
  "userdoc": {
    "errors": {
      "ClaimAlreadyResolved()": [
        {
          "notice": "Thrown when resolving a claim that has already been resolved."
        }
      ],
      "UnregisteredGame()": [
        {
          "notice": "Thrown when attempting to set an anchor state using an unregistered game."
        }
      ]
    },
    "kind": "user",
    "methods": {
      "appendStateBatch(bytes32[],uint256,bytes32,uint256)": {
        "notice": "Appends a batch of state roots to the chain."
      },
      "appendStateBatchByChainId(uint256,bytes32[],uint256,string,bytes32,uint256)": {
        "notice": "Appends a batch of state roots to the chain."
      },
      "batches()": {
        "notice": "Accesses the batch storage container."
      },
      "deleteStateBatch((uint256,bytes32,uint256,uint256,bytes))": {
        "notice": "Deletes all state roots after (and including) a given batch."
      },
      "deleteStateBatchByChainId(uint256,(uint256,bytes32,uint256,uint256,bytes))": {
        "notice": "Deletes all state roots after (and including) a given batch."
      },
      "findEarliestDisputableBatch(uint256)": {
        "notice": "Get the earliest disputable state root."
      },
      "getLastSequencerTimestamp()": {
        "notice": "Retrieves the timestamp of the last batch submitted by the sequencer."
      },
      "getLastSequencerTimestampByChainId(uint256)": {
        "notice": "Retrieves the timestamp of the last batch submitted by the sequencer."
      },
      "getTotalBatches()": {
        "notice": "Retrieves the total number of batches submitted."
      },
      "getTotalBatchesByChainId(uint256)": {
        "notice": "Retrieves the total number of batches submitted."
      },
      "getTotalElements()": {
        "notice": "Retrieves the total number of elements submitted."
      },
      "getTotalElementsByChainId(uint256)": {
        "notice": "Retrieves the total number of elements submitted."
      },
      "insideFraudProofWindow((uint256,bytes32,uint256,uint256,bytes))": {
        "notice": "Checks whether a given batch is still inside its fraud proof window."
      },
      "isDisputedBatch(bytes32)": {
        "notice": "Checks if a batch is disputed."
      },
      "resolve(string)": {
        "notice": "Resolves the address associated with a given name."
      },
      "saveDisputedBatch(bytes32)": {
        "notice": "Saves a batch as disputed."
      },
      "verifyStateCommitment(bytes32,(uint256,bytes32,uint256,uint256,bytes),(uint256,bytes32[]))": {
        "notice": "Verifies a batch inclusion proof."
      },
      "verifyStateCommitmentByChainId(uint256,bytes32,(uint256,bytes32,uint256,uint256,bytes),(uint256,bytes32[]))": {
        "notice": "Verifies a batch inclusion proof."
      }
    },
    "version": 1
  },
  "storageLayout": {
    "storage": [
      {
        "astId": 13003,
        "contract": "contracts/MVM/MVM_StateCommitmentChain.sol:MVM_StateCommitmentChain",
        "label": "libAddressManager",
        "offset": 0,
        "slot": "0",
        "type": "t_contract(Lib_AddressManager)12995"
      },
      {
        "astId": 10643,
        "contract": "contracts/MVM/MVM_StateCommitmentChain.sol:MVM_StateCommitmentChain",
        "label": "FRAUD_PROOF_WINDOW",
        "offset": 0,
        "slot": "1",
        "type": "t_uint256"
      },
      {
        "astId": 10645,
        "contract": "contracts/MVM/MVM_StateCommitmentChain.sol:MVM_StateCommitmentChain",
        "label": "SEQUENCER_PUBLISH_WINDOW",
        "offset": 0,
        "slot": "2",
        "type": "t_uint256"
      },
      {
        "astId": 10648,
        "contract": "contracts/MVM/MVM_StateCommitmentChain.sol:MVM_StateCommitmentChain",
        "label": "DEFAULT_CHAINID",
        "offset": 0,
        "slot": "3",
        "type": "t_uint256"
      },
      {
        "astId": 10656,
        "contract": "contracts/MVM/MVM_StateCommitmentChain.sol:MVM_StateCommitmentChain",
        "label": "batchTimes",
        "offset": 0,
        "slot": "4",
        "type": "t_mapping(t_uint256,t_array(t_bytes16)dyn_storage)"
      },
      {
        "astId": 10660,
        "contract": "contracts/MVM/MVM_StateCommitmentChain.sol:MVM_StateCommitmentChain",
        "label": "batchLastL2BlockNumbers",
        "offset": 0,
        "slot": "5",
        "type": "t_mapping(t_bytes32,t_uint256)"
      },
      {
        "astId": 10664,
        "contract": "contracts/MVM/MVM_StateCommitmentChain.sol:MVM_StateCommitmentChain",
        "label": "disputedBatches",
        "offset": 0,
        "slot": "6",
        "type": "t_mapping(t_bytes32,t_bool)"
      }
    ],
    "types": {
      "t_array(t_bytes16)dyn_storage": {
        "base": "t_bytes16",
        "encoding": "dynamic_array",
        "label": "bytes16[]",
        "numberOfBytes": "32"
      },
      "t_bool": {
        "encoding": "inplace",
        "label": "bool",
        "numberOfBytes": "1"
      },
      "t_bytes16": {
        "encoding": "inplace",
        "label": "bytes16",
        "numberOfBytes": "16"
      },
      "t_bytes32": {
        "encoding": "inplace",
        "label": "bytes32",
        "numberOfBytes": "32"
      },
      "t_contract(Lib_AddressManager)12995": {
        "encoding": "inplace",
        "label": "contract Lib_AddressManager",
        "numberOfBytes": "20"
      },
      "t_mapping(t_bytes32,t_bool)": {
        "encoding": "mapping",
        "key": "t_bytes32",
        "label": "mapping(bytes32 => bool)",
        "numberOfBytes": "32",
        "value": "t_bool"
      },
      "t_mapping(t_bytes32,t_uint256)": {
        "encoding": "mapping",
        "key": "t_bytes32",
        "label": "mapping(bytes32 => uint256)",
        "numberOfBytes": "32",
        "value": "t_uint256"
      },
      "t_mapping(t_uint256,t_array(t_bytes16)dyn_storage)": {
        "encoding": "mapping",
        "key": "t_uint256",
        "label": "mapping(uint256 => bytes16[])",
        "numberOfBytes": "32",
        "value": "t_array(t_bytes16)dyn_storage"
      },
      "t_uint256": {
        "encoding": "inplace",
        "label": "uint256",
        "numberOfBytes": "32"
      }
    }
  }
}