{
  "address": "0xADF38460d3D410D924a2548479887907AB8420C3",
  "abi": [
    {
      "inputs": [
        {
          "internalType": "GameType",
          "name": "_gameType",
          "type": "uint32"
        },
        {
          "internalType": "Claim",
          "name": "_absolutePrestate",
          "type": "bytes32"
        },
        {
          "internalType": "uint256",
          "name": "_maxGameDepth",
          "type": "uint256"
        },
        {
          "internalType": "uint256",
          "name": "_splitDepth",
          "type": "uint256"
        },
        {
          "internalType": "Duration",
          "name": "_clockExtension",
          "type": "uint64"
        },
        {
          "internalType": "Duration",
          "name": "_maxClockDuration",
          "type": "uint64"
        },
        {
          "internalType": "contract IBigStepper",
          "name": "_vm",
          "type": "address"
        },
        {
          "internalType": "contract IDelayedWMetis",
          "name": "_wmetis",
          "type": "address"
        },
        {
          "internalType": "contract Lib_AddressManager",
          "name": "_addressManager",
          "type": "address"
        },
        {
          "internalType": "uint256",
          "name": "_l2ChainId",
          "type": "uint256"
        },
        {
          "internalType": "address",
          "name": "_proposer",
          "type": "address"
        },
        {
          "internalType": "address",
          "name": "_challenger",
          "type": "address"
        }
      ],
      "stateMutability": "nonpayable",
      "type": "constructor"
    },
    {
      "inputs": [],
      "name": "AlreadyInitialized",
      "type": "error"
    },
    {
      "inputs": [],
      "name": "AnchorRootNotFound",
      "type": "error"
    },
    {
      "inputs": [],
      "name": "BadAuth",
      "type": "error"
    },
    {
      "inputs": [],
      "name": "BlockNumberMatches",
      "type": "error"
    },
    {
      "inputs": [],
      "name": "CannotDefendRootClaim",
      "type": "error"
    },
    {
      "inputs": [],
      "name": "ClaimAboveSplit",
      "type": "error"
    },
    {
      "inputs": [],
      "name": "ClaimAlreadyExists",
      "type": "error"
    },
    {
      "inputs": [],
      "name": "ClaimAlreadyResolved",
      "type": "error"
    },
    {
      "inputs": [],
      "name": "ClockNotExpired",
      "type": "error"
    },
    {
      "inputs": [],
      "name": "ClockTimeExceeded",
      "type": "error"
    },
    {
      "inputs": [],
      "name": "DuplicateStep",
      "type": "error"
    },
    {
      "inputs": [],
      "name": "GameDepthExceeded",
      "type": "error"
    },
    {
      "inputs": [],
      "name": "GameNotInProgress",
      "type": "error"
    },
    {
      "inputs": [],
      "name": "InsufficientAllowance",
      "type": "error"
    },
    {
      "inputs": [],
      "name": "InsufficientBalance",
      "type": "error"
    },
    {
      "inputs": [],
      "name": "InvalidChallengePeriod",
      "type": "error"
    },
    {
      "inputs": [],
      "name": "InvalidClockExtension",
      "type": "error"
    },
    {
      "inputs": [],
      "name": "InvalidDisputedClaimIndex",
      "type": "error"
    },
    {
      "inputs": [],
      "name": "InvalidHeaderRLP",
      "type": "error"
    },
    {
      "inputs": [],
      "name": "InvalidLocalIdent",
      "type": "error"
    },
    {
      "inputs": [],
      "name": "InvalidOutputRootProof",
      "type": "error"
    },
    {
      "inputs": [],
      "name": "InvalidParent",
      "type": "error"
    },
    {
      "inputs": [],
      "name": "InvalidPrestate",
      "type": "error"
    },
    {
      "inputs": [],
      "name": "InvalidSplitDepth",
      "type": "error"
    },
    {
      "inputs": [],
      "name": "L2BlockNumberChallenged",
      "type": "error"
    },
    {
      "inputs": [],
      "name": "MaxDepthTooLarge",
      "type": "error"
    },
    {
      "inputs": [],
      "name": "NoCreditToClaim",
      "type": "error"
    },
    {
      "inputs": [],
      "name": "OutOfOrderResolution",
      "type": "error"
    },
    {
      "inputs": [
        {
          "internalType": "Claim",
          "name": "rootClaim",
          "type": "bytes32"
        }
      ],
      "name": "UnexpectedRootClaim",
      "type": "error"
    },
    {
      "inputs": [],
      "name": "ValidStep",
      "type": "error"
    },
    {
      "anonymous": false,
      "inputs": [
        {
          "indexed": true,
          "internalType": "uint256",
          "name": "parentIndex",
          "type": "uint256"
        },
        {
          "indexed": true,
          "internalType": "Claim",
          "name": "claim",
          "type": "bytes32"
        },
        {
          "indexed": true,
          "internalType": "address",
          "name": "claimant",
          "type": "address"
        }
      ],
      "name": "Move",
      "type": "event"
    },
    {
      "anonymous": false,
      "inputs": [
        {
          "indexed": true,
          "internalType": "enum GameStatus",
          "name": "status",
          "type": "uint8"
        }
      ],
      "name": "Resolved",
      "type": "event"
    },
    {
      "anonymous": false,
      "inputs": [
        {
          "indexed": true,
          "internalType": "address",
          "name": "intendedRecipient",
          "type": "address"
        },
        {
          "indexed": false,
          "internalType": "bytes",
          "name": "reason",
          "type": "bytes"
        }
      ],
      "name": "SlashingFailed",
      "type": "event"
    },
    {
      "inputs": [],
      "name": "absolutePrestate",
      "outputs": [
        {
          "internalType": "Claim",
          "name": "absolutePrestate_",
          "type": "bytes32"
        }
      ],
      "stateMutability": "view",
      "type": "function"
    },
    {
      "inputs": [
        {
          "internalType": "uint256",
          "name": "_ident",
          "type": "uint256"
        },
        {
          "internalType": "uint256",
          "name": "_execLeafIdx",
          "type": "uint256"
        },
        {
          "internalType": "uint256",
          "name": "_partOffset",
          "type": "uint256"
        }
      ],
      "name": "addLocalData",
      "outputs": [],
      "stateMutability": "nonpayable",
      "type": "function"
    },
    {
      "inputs": [
        {
          "internalType": "Claim",
          "name": "_disputed",
          "type": "bytes32"
        },
        {
          "internalType": "uint256",
          "name": "_parentIndex",
          "type": "uint256"
        },
        {
          "internalType": "Claim",
          "name": "_claim",
          "type": "bytes32"
        }
      ],
      "name": "attack",
      "outputs": [],
      "stateMutability": "nonpayable",
      "type": "function"
    },
    {
      "inputs": [
        {
          "components": [
            {
              "internalType": "uint256",
              "name": "batchIndex",
              "type": "uint256"
            },
            {
              "internalType": "bytes32",
              "name": "batchRoot",
              "type": "bytes32"
            },
            {
              "internalType": "uint256",
              "name": "batchSize",
              "type": "uint256"
            },
            {
              "internalType": "uint256",
              "name": "prevTotalElements",
              "type": "uint256"
            },
            {
              "internalType": "bytes",
              "name": "extraData",
              "type": "bytes"
            }
          ],
          "internalType": "struct Lib_OVMCodec.ChainBatchHeader",
          "name": "_outputRootProof",
          "type": "tuple"
        },
        {
          "internalType": "bytes",
          "name": "_headerRLP",
          "type": "bytes"
        }
      ],
      "name": "challengeRootL2Block",
      "outputs": [],
      "stateMutability": "nonpayable",
      "type": "function"
    },
    {
      "inputs": [],
      "name": "challenger",
      "outputs": [
        {
          "internalType": "address",
          "name": "challenger_",
          "type": "address"
        }
      ],
      "stateMutability": "view",
      "type": "function"
    },
    {
      "inputs": [
        {
          "internalType": "address",
          "name": "_recipient",
          "type": "address"
        }
      ],
      "name": "claimCredit",
      "outputs": [],
      "stateMutability": "nonpayable",
      "type": "function"
    },
    {
      "inputs": [
        {
          "internalType": "uint256",
          "name": "",
          "type": "uint256"
        }
      ],
      "name": "claimData",
      "outputs": [
        {
          "internalType": "uint32",
          "name": "parentIndex",
          "type": "uint32"
        },
        {
          "internalType": "address",
          "name": "counteredBy",
          "type": "address"
        },
        {
          "internalType": "address",
          "name": "claimant",
          "type": "address"
        },
        {
          "internalType": "uint128",
          "name": "bond",
          "type": "uint128"
        },
        {
          "internalType": "Claim",
          "name": "claim",
          "type": "bytes32"
        },
        {
          "internalType": "Position",
          "name": "position",
          "type": "uint128"
        },
        {
          "internalType": "Clock",
          "name": "clock",
          "type": "uint128"
        }
      ],
      "stateMutability": "view",
      "type": "function"
    },
    {
      "inputs": [],
      "name": "claimDataLen",
      "outputs": [
        {
          "internalType": "uint256",
          "name": "len_",
          "type": "uint256"
        }
      ],
      "stateMutability": "view",
      "type": "function"
    },
    {
      "inputs": [
        {
          "internalType": "Hash",
          "name": "",
          "type": "bytes32"
        }
      ],
      "name": "claims",
      "outputs": [
        {
          "internalType": "bool",
          "name": "",
          "type": "bool"
        }
      ],
      "stateMutability": "view",
      "type": "function"
    },
    {
      "inputs": [],
      "name": "clockExtension",
      "outputs": [
        {
          "internalType": "Duration",
          "name": "clockExtension_",
          "type": "uint64"
        }
      ],
      "stateMutability": "view",
      "type": "function"
    },
    {
      "inputs": [],
      "name": "createdAt",
      "outputs": [
        {
          "internalType": "Timestamp",
          "name": "",
          "type": "uint64"
        }
      ],
      "stateMutability": "view",
      "type": "function"
    },
    {
      "inputs": [
        {
          "internalType": "address",
          "name": "",
          "type": "address"
        }
      ],
      "name": "credit",
      "outputs": [
        {
          "internalType": "uint256",
          "name": "",
          "type": "uint256"
        }
      ],
      "stateMutability": "view",
      "type": "function"
    },
    {
      "inputs": [
        {
          "internalType": "Claim",
          "name": "_disputed",
          "type": "bytes32"
        },
        {
          "internalType": "uint256",
          "name": "_parentIndex",
          "type": "uint256"
        },
        {
          "internalType": "Claim",
          "name": "_claim",
          "type": "bytes32"
        }
      ],
      "name": "defend",
      "outputs": [],
      "stateMutability": "nonpayable",
      "type": "function"
    },
    {
      "inputs": [],
      "name": "extraData",
      "outputs": [
        {
          "internalType": "bytes",
          "name": "extraData_",
          "type": "bytes"
        }
      ],
      "stateMutability": "pure",
      "type": "function"
    },
    {
      "inputs": [],
      "name": "gameCreator",
      "outputs": [
        {
          "internalType": "address",
          "name": "creator_",
          "type": "address"
        }
      ],
      "stateMutability": "pure",
      "type": "function"
    },
    {
      "inputs": [],
      "name": "gameData",
      "outputs": [
        {
          "internalType": "GameType",
          "name": "gameType_",
          "type": "uint32"
        },
        {
          "internalType": "Claim",
          "name": "rootClaim_",
          "type": "bytes32"
        },
        {
          "internalType": "bytes",
          "name": "extraData_",
          "type": "bytes"
        }
      ],
      "stateMutability": "view",
      "type": "function"
    },
    {
      "inputs": [],
      "name": "gameType",
      "outputs": [
        {
          "internalType": "GameType",
          "name": "gameType_",
          "type": "uint32"
        }
      ],
      "stateMutability": "view",
      "type": "function"
    },
    {
      "inputs": [
        {
          "internalType": "uint256",
          "name": "_claimIndex",
          "type": "uint256"
        }
      ],
      "name": "getChallengerDuration",
      "outputs": [
        {
          "internalType": "Duration",
          "name": "duration_",
          "type": "uint64"
        }
      ],
      "stateMutability": "view",
      "type": "function"
    },
    {
      "inputs": [
        {
          "internalType": "uint256",
          "name": "_claimIndex",
          "type": "uint256"
        }
      ],
      "name": "getNumToResolve",
      "outputs": [
        {
          "internalType": "uint256",
          "name": "numRemainingChildren_",
          "type": "uint256"
        }
      ],
      "stateMutability": "view",
      "type": "function"
    },
    {
      "inputs": [
        {
          "internalType": "Position",
          "name": "_position",
          "type": "uint128"
        }
      ],
      "name": "getRequiredBond",
      "outputs": [
        {
          "internalType": "uint256",
          "name": "requiredBond_",
          "type": "uint256"
        }
      ],
      "stateMutability": "view",
      "type": "function"
    },
    {
      "inputs": [],
      "name": "initialize",
      "outputs": [],
      "stateMutability": "payable",
      "type": "function"
    },
    {
      "inputs": [],
      "name": "l1Head",
      "outputs": [
        {
          "internalType": "Hash",
          "name": "l1Head_",
          "type": "bytes32"
        }
      ],
      "stateMutability": "pure",
      "type": "function"
    },
    {
      "inputs": [],
      "name": "l2BlockNumber",
      "outputs": [
        {
          "internalType": "uint256",
          "name": "l2BlockNumber_",
          "type": "uint256"
        }
      ],
      "stateMutability": "pure",
      "type": "function"
    },
    {
      "inputs": [],
      "name": "l2BlockNumberChallenged",
      "outputs": [
        {
          "internalType": "bool",
          "name": "",
          "type": "bool"
        }
      ],
      "stateMutability": "view",
      "type": "function"
    },
    {
      "inputs": [],
      "name": "l2BlockNumberChallenger",
      "outputs": [
        {
          "internalType": "address",
          "name": "",
          "type": "address"
        }
      ],
      "stateMutability": "view",
      "type": "function"
    },
    {
      "inputs": [],
      "name": "l2ChainId",
      "outputs": [
        {
          "internalType": "uint256",
          "name": "l2ChainId_",
          "type": "uint256"
        }
      ],
      "stateMutability": "view",
      "type": "function"
    },
    {
      "inputs": [],
      "name": "maxClockDuration",
      "outputs": [
        {
          "internalType": "Duration",
          "name": "maxClockDuration_",
          "type": "uint64"
        }
      ],
      "stateMutability": "view",
      "type": "function"
    },
    {
      "inputs": [],
      "name": "maxGameDepth",
      "outputs": [
        {
          "internalType": "uint256",
          "name": "maxGameDepth_",
          "type": "uint256"
        }
      ],
      "stateMutability": "view",
      "type": "function"
    },
    {
      "inputs": [
        {
          "internalType": "Claim",
          "name": "_disputed",
          "type": "bytes32"
        },
        {
          "internalType": "uint256",
          "name": "_challengeIndex",
          "type": "uint256"
        },
        {
          "internalType": "Claim",
          "name": "_claim",
          "type": "bytes32"
        },
        {
          "internalType": "bool",
          "name": "_isAttack",
          "type": "bool"
        }
      ],
      "name": "move",
      "outputs": [],
      "stateMutability": "nonpayable",
      "type": "function"
    },
    {
      "inputs": [],
      "name": "proposer",
      "outputs": [
        {
          "internalType": "address",
          "name": "proposer_",
          "type": "address"
        }
      ],
      "stateMutability": "view",
      "type": "function"
    },
    {
      "inputs": [
        {
          "internalType": "uint256",
          "name": "",
          "type": "uint256"
        }
      ],
      "name": "resolutionCheckpoints",
      "outputs": [
        {
          "internalType": "bool",
          "name": "initialCheckpointComplete",
          "type": "bool"
        },
        {
          "internalType": "uint32",
          "name": "subgameIndex",
          "type": "uint32"
        },
        {
          "internalType": "Position",
          "name": "leftmostPosition",
          "type": "uint128"
        },
        {
          "internalType": "address",
          "name": "counteredBy",
          "type": "address"
        }
      ],
      "stateMutability": "view",
      "type": "function"
    },
    {
      "inputs": [],
      "name": "resolve",
      "outputs": [
        {
          "internalType": "enum GameStatus",
          "name": "status_",
          "type": "uint8"
        }
      ],
      "stateMutability": "nonpayable",
      "type": "function"
    },
    {
      "inputs": [
        {
          "internalType": "uint256",
          "name": "_claimIndex",
          "type": "uint256"
        },
        {
          "internalType": "uint256",
          "name": "_numToResolve",
          "type": "uint256"
        }
      ],
      "name": "resolveClaim",
      "outputs": [],
      "stateMutability": "nonpayable",
      "type": "function"
    },
    {
      "inputs": [],
      "name": "resolvedAt",
      "outputs": [
        {
          "internalType": "Timestamp",
          "name": "",
          "type": "uint64"
        }
      ],
      "stateMutability": "view",
      "type": "function"
    },
    {
      "inputs": [
        {
          "internalType": "uint256",
          "name": "",
          "type": "uint256"
        }
      ],
      "name": "resolvedSubgames",
      "outputs": [
        {
          "internalType": "bool",
          "name": "",
          "type": "bool"
        }
      ],
      "stateMutability": "view",
      "type": "function"
    },
    {
      "inputs": [],
      "name": "rootClaim",
      "outputs": [
        {
          "internalType": "Claim",
          "name": "rootClaim_",
          "type": "bytes32"
        }
      ],
      "stateMutability": "pure",
      "type": "function"
    },
    {
      "inputs": [],
      "name": "scc",
      "outputs": [
        {
          "internalType": "contract IMVMStateCommitmentChain",
          "name": "scc_",
          "type": "address"
        }
      ],
      "stateMutability": "view",
      "type": "function"
    },
    {
      "inputs": [],
      "name": "splitDepth",
      "outputs": [
        {
          "internalType": "uint256",
          "name": "splitDepth_",
          "type": "uint256"
        }
      ],
      "stateMutability": "view",
      "type": "function"
    },
    {
      "inputs": [],
      "name": "startingBlockNumber",
      "outputs": [
        {
          "internalType": "uint256",
          "name": "startingBlockNumber_",
          "type": "uint256"
        }
      ],
      "stateMutability": "view",
      "type": "function"
    },
    {
      "inputs": [],
      "name": "startingOutputRoot",
      "outputs": [
        {
          "internalType": "Hash",
          "name": "root",
          "type": "bytes32"
        },
        {
          "internalType": "uint256",
          "name": "l2BlockNumber",
          "type": "uint256"
        }
      ],
      "stateMutability": "view",
      "type": "function"
    },
    {
      "inputs": [],
      "name": "startingRootHash",
      "outputs": [
        {
          "internalType": "Hash",
          "name": "startingRootHash_",
          "type": "bytes32"
        }
      ],
      "stateMutability": "view",
      "type": "function"
    },
    {
      "inputs": [],
      "name": "status",
      "outputs": [
        {
          "internalType": "enum GameStatus",
          "name": "",
          "type": "uint8"
        }
      ],
      "stateMutability": "view",
      "type": "function"
    },
    {
      "inputs": [
        {
          "internalType": "uint256",
          "name": "_claimIndex",
          "type": "uint256"
        },
        {
          "internalType": "bool",
          "name": "_isAttack",
          "type": "bool"
        },
        {
          "internalType": "bytes",
          "name": "_stateData",
          "type": "bytes"
        },
        {
          "internalType": "bytes",
          "name": "_proof",
          "type": "bytes"
        }
      ],
      "name": "step",
      "outputs": [],
      "stateMutability": "nonpayable",
      "type": "function"
    },
    {
      "inputs": [
        {
          "internalType": "uint256",
          "name": "",
          "type": "uint256"
        },
        {
          "internalType": "uint256",
          "name": "",
          "type": "uint256"
        }
      ],
      "name": "subgames",
      "outputs": [
        {
          "internalType": "uint256",
          "name": "",
          "type": "uint256"
        }
      ],
      "stateMutability": "view",
      "type": "function"
    },
    {
      "inputs": [],
      "name": "version",
      "outputs": [
        {
          "internalType": "string",
          "name": "",
          "type": "string"
        }
      ],
      "stateMutability": "view",
      "type": "function"
    },
    {
      "inputs": [],
      "name": "vm",
      "outputs": [
        {
          "internalType": "contract IBigStepper",
          "name": "vm_",
          "type": "address"
        }
      ],
      "stateMutability": "view",
      "type": "function"
    },
    {
      "inputs": [],
      "name": "wmetis",
      "outputs": [
        {
          "internalType": "contract IDelayedWMetis",
          "name": "wmetis_",
          "type": "address"
        }
      ],
      "stateMutability": "view",
      "type": "function"
    }
  ],
  "transactionHash": "0x72d935710acd2c299a13f9aea9fababe36198d53d7e426ee0d9a66f29b34caf9",
  "args": [
    1,
    "0x03c41f3c818cc165de8553760fc46c2c98ed13ad66a604e5973346a28da8eb89",
    73,
    30,
    0,
    86400,
    "0x1849020E7627Fd85f25a7506433B669F97eFE2a5",
    "0xC72Cf81aE2dbB30E2021464655f5A8B835080385",
    "0xa66Fa1eD0f1C1ee300893B4eb5493FeAD9a7e9c3",
    59902,
    "0xE2e7d70f6D8D9BF07774d22Bf55D6C5f9B2521A1",
    "0xF0fef68Ef0827E52Bbb891367568c7AC3745Ce5B"
  ],
  "numDeployments": 7,
  "solcInputHash": "83ecad5ab7a3e180fbc0abc26341617e",
  "bytecode": "0x6102006040523480156200001257600080fd5b506040516200639438038062006394833981016040819052620000359162000469565b8b8b8b8b8b8b8b8b8b8b6200004d6001607e6200055c565b60ff168811156200007157604051633beff19960e11b815260040160405180910390fd5b6000198714806200008e5750876200008b88600162000582565b10155b15620000ad5760405163e62ccf3960e01b815260040160405180910390fd5b6002871015620000d05760405163e62ccf3960e01b815260040160405180910390fd5b6001600160401b038016846001600160a01b0316637dc0d1d06040518163ffffffff1660e01b8152600401602060405180830381865afa15801562000119573d6000803e3d6000fd5b505050506040513d601f19601f820116820180604052508101906200013f91906200059d565b6001600160a01b031663f3f480d96040518163ffffffff1660e01b8152600401602060405180830381865afa1580156200017d573d6000803e3d6000fd5b505050506040513d601f19601f82011682018060405250810190620001a39190620005bd565b1115620001c35760405163b4e1243360e01b815260040160405180910390fd5b6000620001e4876001600160401b03166200040860201b620010a81760201c565b620001fa906001600160401b03166002620005d7565b90506000856001600160a01b0316637dc0d1d06040518163ffffffff1660e01b8152600401602060405180830381865afa1580156200023d573d6000803e3d6000fd5b505050506040513d601f19601f820116820180604052508101906200026391906200059d565b6001600160a01b031663f3f480d96040518163ffffffff1660e01b8152600401602060405180830381865afa158015620002a1573d6000803e3d6000fd5b505050506040513d601f19601f82011682018060405250810190620002c79190620005bd565b620002e6896001600160401b03166200040860201b620010a81760201c565b6001600160401b0316620002fb919062000582565b905060006200031683836200040b60201b620024be1760201c565b90506001600160401b03811115620003415760405163235dfb2b60e21b815260040160405180910390fd5b62000360886001600160401b03166200040860201b620010a81760201c565b6001600160401b0316816001600160401b03161115620003935760405163235dfb2b60e21b815260040160405180910390fd5b50505063ffffffff9099166101205260809790975260a09590955260c0939093526001600160401b039182166101a0521660e0526001600160a01b03908116610100529081166101405290811661016052610180919091529182166101c052166101e05250620005f998505050505050505050565b90565b6000818310156200041d57816200041f565b825b9392505050565b80516001600160401b03811681146200043e57600080fd5b919050565b6001600160a01b03811681146200045957600080fd5b50565b80516200043e8162000443565b6000806000806000806000806000806000806101808d8f0312156200048d57600080fd5b8c5163ffffffff81168114620004a257600080fd5b809c505060208d01519a5060408d0151995060608d01519850620004c960808e0162000426565b9750620004d960a08e0162000426565b9650620004e960c08e016200045c565b9550620004f960e08e016200045c565b94506200050a6101008e016200045c565b93506101208d01519250620005236101408e016200045c565b9150620005346101608e016200045c565b90509295989b509295989b509295989b565b634e487b7160e01b600052601160045260246000fd5b600060ff821660ff84168082101562000579576200057962000546565b90039392505050565b6000821982111562000598576200059862000546565b500190565b600060208284031215620005b057600080fd5b81516200041f8162000443565b600060208284031215620005d057600080fd5b5051919050565b6000816000190483118215151615620005f457620005f462000546565b500290565b60805160a05160c05160e05161010051610120516101405161016051610180516101a0516101c0516101e051615bd5620007bf6000396000818161053801528181611b63015261204101526000818161081701528181611b3101528181611bcc015261200f01526000818161067d01528181612f3e01528181612fa90152612fdc0152600081816109af015281816123fc01526136650152600081816114f8015281816116e00152818161187701526135c90152600081816103a90152818161198f0152818161255601528181612bc30152613839015260008181610852015261247e0152600081816104b4015281816120fe01528181612e570152614363015260008181610a0201528181610baa01528181611d4401528181611d8601528181612dc70152818161300c015261306b015260008181610a35015281816122a201528181612a9501528181612b7a01528181612f7a015281816141da015281816145de015281816146ac0152818161474e01528181614e640152614ff8015260008181610adc01528181611e6101528181611ece01528181612b3601528181612e2b0152818161410301526141fb015260008181610744015261427e0152615bd56000f3fe6080604052600436106103085760003560e01c806370872aa51161019a578063c6f0308c116100e1578063ec5e63081161008a578063fa24f74311610064578063fa24f74314610aa9578063fa315aa914610acd578063fe2bbeb214610b0057600080fd5b8063ec5e630814610a26578063eff0f59214610a59578063f8f43ff614610a8957600080fd5b8063d6ae3cd5116100bb578063d6ae3cd5146109a0578063d8cc1a3c146109d3578063dabd396d146109f357600080fd5b8063c6f0308c146108de578063cf09e0d014610952578063d5d44d801461097357600080fd5b8063a445ece611610143578063bcef3b551161011d578063bcef3b551461087c578063bd8da9561461089e578063c395e1ca146108be57600080fd5b8063a445ece614610768578063a8e4fb9014610808578063bbdc02db1461083b57600080fd5b80638980e0cc116101745780638980e0cc146106fe5780638b85902b146107135780638d450a951461073557600080fd5b806370872aa5146106c15780637b0f0adc146106d65780638129fc1c146106f657600080fd5b80633e3ac9121161025e5780635a5fa2d9116102075780636361506d116101e15780636361506d1461064c5780636b6716c01461066e5780636f034409146106a157600080fd5b80635a5fa2d9146105f7578063609d33341461061757806360e274641461062c57600080fd5b8063543acd5011610238578063543acd501461055c57806354fd4d501461057157806357da950e146105c757600080fd5b80633e3ac912146104d8578063472777c614610509578063534db0e21461052957600080fd5b806325fc2ace116102c057806330dbe5701161029a57806330dbe5701461046357806337b1b229146104835780633a768463146104a557600080fd5b806325fc2ace1461040f5780632810e1d61461042e5780632ad69aeb1461044357600080fd5b80631e31db5a116102f15780631e31db5a1461037a5780631fa2f6bb1461039a578063200d2ed2146103e157600080fd5b806303c2924d1461030d57806319effeb41461032f575b600080fd5b34801561031957600080fd5b5061032d6103283660046152f0565b610b30565b005b34801561033b57600080fd5b5060005461035c9068010000000000000000900467ffffffffffffffff1681565b60405167ffffffffffffffff90911681526020015b60405180910390f35b34801561038657600080fd5b5061032d61039536600461535b565b61102a565b3480156103a657600080fd5b507f00000000000000000000000000000000000000000000000000000000000000005b6040516001600160a01b039091168152602001610371565b3480156103ed57600080fd5b5060005461040290600160801b900460ff1681565b60405161037191906153e2565b34801561041b57600080fd5b506008545b604051908152602001610371565b34801561043a57600080fd5b506104026112d7565b34801561044f57600080fd5b5061042061045e3660046152f0565b6117e3565b34801561046f57600080fd5b506001546103c9906001600160a01b031681565b34801561048f57600080fd5b503660011981013560f01c90033560601c6103c9565b3480156104b157600080fd5b507f00000000000000000000000000000000000000000000000000000000000000006103c9565b3480156104e457600080fd5b506000546104f990600160901b900460ff1681565b6040519015158152602001610371565b34801561051557600080fd5b5061032d61052436600461540a565b611819565b34801561053557600080fd5b507f00000000000000000000000000000000000000000000000000000000000000006103c9565b34801561056857600080fd5b506103c961182b565b34801561057d57600080fd5b506105ba6040518060400160405280600a81526020017f312e332e302d72632e310000000000000000000000000000000000000000000081525081565b6040516103719190615483565b3480156105d357600080fd5b506008546009546105e2919082565b60408051928352602083019190915201610371565b34801561060357600080fd5b50610420610612366004615496565b6118eb565b34801561062357600080fd5b506105ba611925565b34801561063857600080fd5b5061032d6106473660046154c7565b611933565b34801561065857600080fd5b503660011981013560f01c900360340135610420565b34801561067a57600080fd5b507f000000000000000000000000000000000000000000000000000000000000000061035c565b3480156106ad57600080fd5b5061032d6106bc3660046154f2565b611b26565b3480156106cd57600080fd5b50600954610420565b3480156106e257600080fd5b5061032d6106f136600461540a565b611bb4565b61032d611bc1565b34801561070a57600080fd5b50600254610420565b34801561071f57600080fd5b503660011981013560f01c900360540135610420565b34801561074157600080fd5b507f0000000000000000000000000000000000000000000000000000000000000000610420565b34801561077457600080fd5b506107ca610783366004615496565b6007602052600090815260409020805460019091015460ff821691610100810463ffffffff1691650100000000009091046001600160801b0316906001600160a01b031684565b60408051941515855263ffffffff90931660208501526001600160801b03909116918301919091526001600160a01b03166060820152608001610371565b34801561081457600080fd5b507f00000000000000000000000000000000000000000000000000000000000000006103c9565b34801561084757600080fd5b5060405163ffffffff7f0000000000000000000000000000000000000000000000000000000000000000168152602001610371565b34801561088857600080fd5b503660011981013560f01c900360140135610420565b3480156108aa57600080fd5b5061035c6108b9366004615496565b611c14565b3480156108ca57600080fd5b506104206108d9366004615533565b611dae565b3480156108ea57600080fd5b506108fe6108f9366004615496565b611f90565b6040805163ffffffff90981688526001600160a01b03968716602089015295909416948601949094526001600160801b039182166060860152608085015291821660a08401521660c082015260e001610371565b34801561095e57600080fd5b5060005461035c9067ffffffffffffffff1681565b34801561097f57600080fd5b5061042061098e3660046154c7565b60036020526000908152604090205481565b3480156109ac57600080fd5b507f0000000000000000000000000000000000000000000000000000000000000000610420565b3480156109df57600080fd5b5061032d6109ee36600461555c565b612004565b3480156109ff57600080fd5b507f000000000000000000000000000000000000000000000000000000000000000061035c565b348015610a3257600080fd5b507f0000000000000000000000000000000000000000000000000000000000000000610420565b348015610a6557600080fd5b506104f9610a74366004615496565b60046020526000908152604090205460ff1681565b348015610a9557600080fd5b5061032d610aa436600461540a565b612096565b348015610ab557600080fd5b50610abe61247c565b604051610371939291906155e8565b348015610ad957600080fd5b507f0000000000000000000000000000000000000000000000000000000000000000610420565b348015610b0c57600080fd5b506104f9610b1b366004615496565b60066020526000908152604090205460ff1681565b60008054600160801b900460ff166002811115610b4f57610b4f6153cc565b14610b6d5760405163067fe19560e41b815260040160405180910390fd5b600060028381548110610b8257610b8261560d565b906000526020600020906005020190506000610b9d84611c14565b905067ffffffffffffffff7f000000000000000000000000000000000000000000000000000000000000000081169082161015610c06576040517ff2440b5300000000000000000000000000000000000000000000000000000000815260040160405180910390fd5b60008481526006602052604090205460ff1615610c365760405163f1a9458160e01b815260040160405180910390fd5b6000848152600560205260409020805480158015610c5357508515155b15610cb657835464010000000090046001600160a01b031660008115610c795781610c88565b60018601546001600160a01b03165b9050610c9481876124d9565b505050600094855250506006602052505060409020805460ff19166001179055565b6000868152600760209081526040918290208251608081018452815460ff81161515808352610100820463ffffffff16948301949094526501000000000090046001600160801b031693810193909352600101546001600160a01b03166060830152610d3a576001600160801b036040820152600181526000869003610d3a578195505b600086826020015163ffffffff16610d529190615639565b90506000838211610d635781610d65565b835b602084015190915063ffffffff165b81811015610e6c576000868281548110610d9057610d9061560d565b6000918252602080832090910154808352600690915260409091205490915060ff16610dcf57604051634d03b32360e11b815260040160405180910390fd5b600060028281548110610de457610de461560d565b60009182526020909120600590910201805490915064010000000090046001600160a01b0316158015610e2b5750600481015460408701516001600160801b039182169116115b15610e575760018101546001600160a01b0316606087015260048101546001600160801b031660408701525b50508080610e6490615651565b915050610d74565b5063ffffffff818116602085810191825260008c815260079091526040908190208651815493519288015164ffffffffff1990941690151564ffffffff0019161761010092909416918202939093177fffffffffffffffffffffff00000000000000000000000000000000ffffffffff16650100000000006001600160801b039093169290920291909117825560608501516001909201805473ffffffffffffffffffffffffffffffffffffffff19166001600160a01b039093169290921790915584900361101f57606083015160008a8152600660205260409020805460ff1916600117905589158015610f6a5750600054600160901b900460ff165b15610fbe576001546001600160a01b0316610f85818a6124d9565b88546001600160a01b039091166401000000000277ffffffffffffffffffffffffffffffffffffffff000000001990911617885561101d565b610feb6001600160a01b03821615610fd65781610fe5565b60018901546001600160a01b03165b896124d9565b875477ffffffffffffffffffffffffffffffffffffffff0000000019166401000000006001600160a01b038316021788555b505b505050505050505050565b60008054600160801b900460ff166002811115611049576110496153cc565b146110675760405163067fe19560e41b815260040160405180910390fd5b600054600160901b900460ff16156110925760405163075173a960e11b815260040160405180910390fd5b6110ab3660011981013560f01c90036014013590565b90565b6110bc6110b7856156da565b6125b7565b146110f3576040517f9cc00b5b00000000000000000000000000000000000000000000000000000000815260040160405180910390fd5b6000611102608085018561579e565b81019061110f91906157e5565b5092505050808383604051611125929190615822565b60405180910390201461114b5760405163d81d583b60e01b815260040160405180910390fd5b600061119461118f85858080601f0160208091040260200160405190810160405280939291908181526020018383808284376000920191909152506125fd92505050565b61262a565b905060006111bb826008815181106111ae576111ae61560d565b602002602001015161282e565b90506020815111156111e05760405163d81d583b60e01b815260040160405180910390fd5b602081810151825190910360031b1c3660011981013560f01c9003605401358103611237576040517fb8ed883000000000000000000000000000000000000000000000000000000000815260040160405180910390fd5b61124660608801356001615639565b811080611263575061126060408801356060890135615639565b81115b156112815760405163d81d583b60e01b815260040160405180910390fd5b50506001805473ffffffffffffffffffffffffffffffffffffffff1916331790555050600080547fffffffffffffffffffffffffff00ffffffffffffffffffffffffffffffffffff16600160901b179055505050565b600080600054600160801b900460ff1660028111156112f8576112f86153cc565b146113165760405163067fe19560e41b815260040160405180910390fd5b6000805260066020527f54cdd369e4e8a8515e52ca72ec816c2101831ad1f18bf44102ed171459c9b4f85460ff1661136157604051634d03b32360e11b815260040160405180910390fd5b60006001600160a01b031660026000815481106113805761138061560d565b600091825260209091206005909102015464010000000090046001600160a01b0316146113ae5760016113b1565b60025b6000805467ffffffffffffffff421668010000000000000000027fffffffffffffffffffffffffffffffff0000000000000000ffffffffffffffff82168117835592935083927fffffffffffffffffffffffffffffff00ffffffffffffffffffffffffffffffff167fffffffffffffffffffffffffffffff000000000000000000ffffffffffffffff90911617600160801b836002811115611455576114556153cc565b02179055600281111561146a5761146a6153cc565b6040517f5e186f09b9c93491f14e277eea7faa5de6a2d4bda75a79af7a3684fbfb42da6090600090a260018160028111156114a7576114a76153cc565b036110a857604080518082018252601581527f4661756c7450726f6f664c6f636b696e67506f6f6c00000000000000000000006020820152905163bf40fac160e01b81526000916001600160a01b037f0000000000000000000000000000000000000000000000000000000000000000169163bf40fac19161152b91600401615483565b602060405180830381865afa158015611548573d6000803e3d6000fd5b505050506040513d601f19601f8201168201806040525081019061156c9190615832565b90506001600160a01b0381161561169757600060026000815481106115935761159361560d565b60009182526020909120600590910201546040517fc96be4cb0000000000000000000000000000000000000000000000000000000081526401000000009091046001600160a01b0390811660048301819052925083169063c96be4cb90602401600060405180830381600087803b15801561160d57600080fd5b505af192505050801561161e575060015b611695573d80801561164c576040519150601f19603f3d011682016040523d82523d6000602084013e611651565b606091505b50816001600160a01b03167f17ea47b379a2daf87a43d9fe6e50400125dff97424a6a7686eca528970fffc0f8260405161168b9190615483565b60405180910390a2505b505b604080518082018252601481527f5374617465436f6d6d69746d656e74436861696e0000000000000000000000006020820152905163bf40fac160e01b81526001600160a01b037f0000000000000000000000000000000000000000000000000000000000000000169163bf40fac1916117149190600401615483565b602060405180830381865afa158015611731573d6000803e3d6000fd5b505050506040513d601f19601f820116820180604052508101906117559190615832565b6001600160a01b0316637fe9b70f61178f600260008154811061177a5761177a61560d565b90600052602060002090600502016003015490565b6040518263ffffffff1660e01b81526004016117ad91815260200190565b600060405180830381600087803b1580156117c757600080fd5b505af11580156117db573d6000803e3d6000fd5b505050505090565b600560205281600052604060002081815481106117ff57600080fd5b90600052602060002001600091509150505481565b905090565b6118268383836001611b26565b505050565b604080518082018252601481527f5374617465436f6d6d69746d656e74436861696e0000000000000000000000006020820152905163bf40fac160e01b81526000916001600160a01b037f0000000000000000000000000000000000000000000000000000000000000000169163bf40fac1916118aa91600401615483565b602060405180830381865afa1580156118c7573d6000803e3d6000fd5b505050506040513d601f19601f820116820180604052508101906118149190615832565b6000818152600760209081526040808320600590925282208054825461191c90610100900463ffffffff168261584f565b95945050505050565b6060611814605460206128b5565b6001600160a01b03811660009081526003602052604081208054908290559081900361198b576040517f17bfe5f700000000000000000000000000000000000000000000000000000000815260040160405180910390fd5b60007f000000000000000000000000000000000000000000000000000000000000000090506000816001600160a01b031663d16cb6d86040518163ffffffff1660e01b8152600401602060405180830381865afa1580156119f0573d6000803e3d6000fd5b505050506040513d601f19601f82011682018060405250810190611a149190615832565b6040517ff3fef3a30000000000000000000000000000000000000000000000000000000081526001600160a01b038681166004830152602482018690529192509083169063f3fef3a390604401600060405180830381600087803b158015611a7b57600080fd5b505af1158015611a8f573d6000803e3d6000fd5b50506040517fa9059cbb0000000000000000000000000000000000000000000000000000000081526001600160a01b038781166004830152602482018790528416925063a9059cbb91506044016020604051808303816000875af1158015611afb573d6000803e3d6000fd5b505050506040513d601f19601f82011682018060405250810190611b1f9190615866565b5050505050565b336001600160a01b037f0000000000000000000000000000000000000000000000000000000000000000161480611b855750336001600160a01b037f000000000000000000000000000000000000000000000000000000000000000016145b611ba2576040516369c3779f60e11b815260040160405180910390fd5b611bae848484846128e9565b50505050565b6118268383836000611b26565b326001600160a01b037f00000000000000000000000000000000000000000000000000000000000000001614611c0a576040516369c3779f60e11b815260040160405180910390fd5b611c1261352b565b565b600080600054600160801b900460ff166002811115611c3557611c356153cc565b14611c535760405163067fe19560e41b815260040160405180910390fd5b600060028381548110611c6857611c6861560d565b600091825260208220600590910201805490925063ffffffff90811614611cce57815460028054909163ffffffff16908110611ca657611ca661560d565b906000526020600020906005020160040160109054906101000a90046001600160801b031690505b6004820154600090611cf990600160801b900467ffffffffffffffff165b67ffffffffffffffff1690565b611d0d9067ffffffffffffffff164261584f565b611d23611cec846001600160801b031660401c90565b67ffffffffffffffff16611d379190615639565b905067ffffffffffffffff7f00000000000000000000000000000000000000000000000000000000000000001667ffffffffffffffff168167ffffffffffffffff1611611d84578061191c565b7f000000000000000000000000000000000000000000000000000000000000000095945050505050565b60006002600081548110611dc457611dc461560d565b60009182526020909120600160059092020101546001600160a01b03163303611def57506000919050565b6000611e5a836001600160801b0316600080516020615b808339815191526307c4acdd60e01b67ffffffffffffffff831160061b83811c63ffffffff1060051b1792831c600181901c17600281901c17600481901c17600881901c17601081901c170260fb1c1a1790565b60ff1690507f0000000000000000000000000000000000000000000000000000000000000000811115611ea0576040516356f57b2b60e01b815260040160405180910390fd5b642e90edd00062061a806311e1a3006000611ebb8383615899565b9050670de0b6b3a76400006000611ef2827f00000000000000000000000000000000000000000000000000000000000000006158ad565b90506000611f10611f0b670de0b6b3a7640000866158ad565b613c28565b90506000611f1e8484613e45565b90506000611f2c8383613e94565b90506000611f3982613ec2565b90506000611f5882611f53670de0b6b3a76400008f6158ad565b614050565b90506000611f668b83613e94565b9050611f72818d6158ad565b611f7d9060326158ad565b9f9e505050505050505050505050505050565b60028181548110611fa057600080fd5b60009182526020909120600590910201805460018201546002830154600384015460049094015463ffffffff841695506401000000009093046001600160a01b03908116949216926001600160801b03918216929180821691600160801b90041687565b336001600160a01b037f00000000000000000000000000000000000000000000000000000000000000001614806120635750336001600160a01b037f000000000000000000000000000000000000000000000000000000000000000016145b612080576040516369c3779f60e11b815260040160405180910390fd5b61208e868686868686614081565b505050505050565b60008054600160801b900460ff1660028111156120b5576120b56153cc565b146120d35760405163067fe19560e41b815260040160405180910390fd5b6000806000806120e2866145a3565b935093509350935060006120f8858585856148da565b905060007f00000000000000000000000000000000000000000000000000000000000000006001600160a01b0316637dc0d1d06040518163ffffffff1660e01b8152600401602060405180830381865afa15801561215a573d6000803e3d6000fd5b505050506040513d601f19601f8201168201806040525081019061217e9190615832565b90506001890361224b576001600160a01b0381166352f0f3ad8a846121af3660011981013560f01c90036034013590565b6040517fffffffff0000000000000000000000000000000000000000000000000000000060e086901b16815260048101939093526024830191909152604482015260206064820152608481018a905260a4015b6020604051808303816000875af1158015612221573d6000803e3d6000fd5b505050506040513d601f19601f8201168201806040525081019061224591906158cc565b5061101f565b6002890361226a576001600160a01b0381166352f0f3ad8a84896121af565b60038903612289576001600160a01b0381166352f0f3ad8a84876121af565b600489036123be5760006122c66001600160801b0385167f0000000000000000000000000000000000000000000000000000000000000000614979565b6009546122d39190615639565b6122de906001615639565b90503660011981013560f01c900360540135811061230b573660011981013560f01c90036054013561230d565b805b90506001600160a01b0382166352f0f3ad8b8560405160e084901b7fffffffff000000000000000000000000000000000000000000000000000000001681526004810192909252602482015260c084901b604482015260086064820152608481018b905260a4016020604051808303816000875af1158015612393573d6000803e3d6000fd5b505050506040513d601f19601f820116820180604052508101906123b791906158cc565b505061101f565b6005890361244a576040517f52f0f3ad000000000000000000000000000000000000000000000000000000008152600481018a9052602481018390527f000000000000000000000000000000000000000000000000000000000000000060c01b604482015260086064820152608481018890526001600160a01b038216906352f0f3ad9060a401612202565b6040517fff137e6500000000000000000000000000000000000000000000000000000000815260040160405180910390fd5b7f00000000000000000000000000000000000000000000000000000000000000003660011981013560f01c90036014013560606124b7611925565b9050909192565b6000818310156124ce57816124d0565b825b90505b92915050565b60028101546001600160a01b038316600090815260036020526040812080546001600160801b0390931692839290612512908490615639565b90915550506040517f7eee288d0000000000000000000000000000000000000000000000000000000081526001600160a01b038481166004830152602482018390527f00000000000000000000000000000000000000000000000000000000000000001690637eee288d90604401600060405180830381600087803b15801561259a57600080fd5b505af11580156125ae573d6000803e3d6000fd5b50505050505050565b600081602001518260400151836060015184608001516040516020016125e094939291906158e5565b604051602081830303815290604052805190602001209050919050565b60408051808201825260008082526020918201528151808301909252825182529182019181019190915290565b6060600080612638846149fd565b91935090915060019050816001811115612654576126546153cc565b146126a65760405162461bcd60e51b815260206004820152601760248201527f496e76616c696420524c50206c6973742076616c75652e00000000000000000060448201526064015b60405180910390fd5b6040805160208082526104208201909252600091816020015b60408051808201909152600080825260208201528152602001906001900390816126bf5790505090506000835b8651811015612823576020821061276b5760405162461bcd60e51b815260206004820152602a60248201527f50726f766964656420524c50206c6973742065786365656473206d6178206c6960448201527f7374206c656e6774682e00000000000000000000000000000000000000000000606482015260840161269d565b6000806127a86040518060400160405280858c6000015161278c919061584f565b8152602001858c602001516127a19190615639565b90526149fd565b5091509150604051806040016040528083836127c49190615639565b8152602001848b602001516127d99190615639565b8152508585815181106127ee576127ee61560d565b6020908102919091010152612804600185615639565b93506128108183615639565b61281a9084615639565b925050506126ec565b508152949350505050565b6060600080600061283e856149fd565b919450925090506000816001811115612859576128596153cc565b146128a65760405162461bcd60e51b815260206004820152601860248201527f496e76616c696420524c502062797465732076616c75652e0000000000000000604482015260640161269d565b61191c85602001518484614d4e565b6040518181523660011981013560f01c90038284820160208401378260208301016000815260208101604052505092915050565b60008054600160801b900460ff166002811115612908576129086153cc565b146129265760405163067fe19560e41b815260040160405180910390fd5b60006002848154811061293b5761293b61560d565b60009182526020918290206040805160e0810182526005909302909101805463ffffffff811684526001600160a01b0364010000000090910481169484019490945260018101549093169082015260028201546001600160801b03908116606083015260038301546080830181905260049093015480821660a0840152600160801b90041660c0820152915085146129ff576040517f3014033200000000000000000000000000000000000000000000000000000000815260040160405180910390fd5b60a0810151600083156001600160801b0383161760011b90506000612a83826001600160801b0316600080516020615b808339815191526307c4acdd60e01b67ffffffffffffffff831160061b83811c63ffffffff1060051b1792831c600181901c17600281901c17600481901c17600881901c17601081901c170260fb1c1a1790565b60ff169050861580612abe5750612abb7f00000000000000000000000000000000000000000000000000000000000000006002615639565b81145b8015612ac8575084155b15612aff576040517fa42637bc00000000000000000000000000000000000000000000000000000000815260040160405180910390fd5b600054600160901b900460ff168015612b16575086155b15612b345760405163075173a960e11b815260040160405180910390fd5b7f0000000000000000000000000000000000000000000000000000000000000000811115612b75576040516356f57b2b60e01b815260040160405180910390fd5b612ba07f00000000000000000000000000000000000000000000000000000000000000006001615639565b8103612bb257612bb286888588614e29565b6000612bbd83611dae565b905060007f000000000000000000000000000000000000000000000000000000000000000090506000816001600160a01b031663d16cb6d86040518163ffffffff1660e01b8152600401602060405180830381865afa158015612c24573d6000803e3d6000fd5b505050506040513d601f19601f82011682018060405250810190612c489190615832565b6040516370a0823160e01b815233600482015290915083906001600160a01b038316906370a0823190602401602060405180830381865afa158015612c91573d6000803e3d6000fd5b505050506040513d601f19601f82011682018060405250810190612cb591906158cc565b1015612ced576040517ff4d678b800000000000000000000000000000000000000000000000000000000815260040160405180910390fd5b6040517fdd62ed3e00000000000000000000000000000000000000000000000000000000815233600482015230602482015283906001600160a01b0383169063dd62ed3e90604401602060405180830381865afa158015612d52573d6000803e3d6000fd5b505050506040513d601f19601f82011682018060405250810190612d7691906158cc565b1015612dae576040517f13be252b00000000000000000000000000000000000000000000000000000000815260040160405180910390fd5b506000612dba8a611c14565b905067ffffffffffffffff7f0000000000000000000000000000000000000000000000000000000000000000811690821603612e22576040517f3381d11400000000000000000000000000000000000000000000000000000000815260040160405180910390fd5b6000612e4f60017f000000000000000000000000000000000000000000000000000000000000000061584f565b8503612f73577f00000000000000000000000000000000000000000000000000000000000000006001600160a01b0316637dc0d1d06040518163ffffffff1660e01b8152600401602060405180830381865afa158015612eb3573d6000803e3d6000fd5b505050506040513d601f19601f82011682018060405250810190612ed79190615832565b6001600160a01b031663f3f480d96040518163ffffffff1660e01b8152600401602060405180830381865afa158015612f14573d6000803e3d6000fd5b505050506040513d601f19601f82011682018060405250810190612f3891906158cc565b612f6c907f000000000000000000000000000000000000000000000000000000000000000067ffffffffffffffff1661590a565b9050613006565b612f9e60017f000000000000000000000000000000000000000000000000000000000000000061584f565b8503612fd957612f6c7f000000000000000000000000000000000000000000000000000000000000000067ffffffffffffffff166002615936565b507f000000000000000000000000000000000000000000000000000000000000000067ffffffffffffffff165b61303a817f000000000000000000000000000000000000000000000000000000000000000067ffffffffffffffff16615966565b67ffffffffffffffff166130558367ffffffffffffffff1690565b67ffffffffffffffff16111561309c57613099817f000000000000000000000000000000000000000000000000000000000000000067ffffffffffffffff16615966565b91505b6000604083901b421760008c8152608089901b6001600160801b038f1617602052604081209192509060008181526004602052604090205490915060ff1615613111576040517f80497e3b00000000000000000000000000000000000000000000000000000000815260040160405180910390fd5b60016004600083815260200190815260200160002060006101000a81548160ff02191690831515021790555060026040518060e001604052808f63ffffffff16815260200160006001600160a01b03168152602001336001600160a01b03168152602001886001600160801b031681526020018e81526020018a6001600160801b03168152602001846001600160801b0316815250908060018154018082558091505060019003906000526020600020906005020160009091909190915060008201518160000160006101000a81548163ffffffff021916908363ffffffff16021790555060208201518160000160046101000a8154816001600160a01b0302191690836001600160a01b0316021790555060408201518160010160006101000a8154816001600160a01b0302191690836001600160a01b0316021790555060608201518160020160006101000a8154816001600160801b0302191690836001600160801b031602179055506080820151816003015560a08201518160040160006101000a8154816001600160801b0302191690836001600160801b0316021790555060c08201518160040160106101000a8154816001600160801b0302191690836001600160801b031602179055505050600560008e81526020019081526020016000206001600280549050613308919061584f565b8154600181018355600092835260209092209091015585156134ec576000856001600160a01b031663d16cb6d86040518163ffffffff1660e01b8152600401602060405180830381865afa158015613364573d6000803e3d6000fd5b505050506040513d601f19601f820116820180604052508101906133889190615832565b6040517f23b872dd000000000000000000000000000000000000000000000000000000008152336004820152306024820152604481018990529091506001600160a01b038216906323b872dd906064016020604051808303816000875af11580156133f7573d6000803e3d6000fd5b505050506040513d601f19601f8201168201806040525081019061341b9190615866565b5060405163095ea7b360e01b81526001600160a01b0387811660048301526024820189905282169063095ea7b3906044016020604051808303816000875af115801561346b573d6000803e3d6000fd5b505050506040513d601f19601f8201168201806040525081019061348f9190615866565b5060405163b6b55f2560e01b8152600481018890526001600160a01b0387169063b6b55f2590602401600060405180830381600087803b1580156134d257600080fd5b505af11580156134e6573d6000803e3d6000fd5b50505050505b60405133908d908f907f9b3245740ec3b155098a55be84957a4da13eaf7f14a8bc6f53126c0b9350f2be90600090a45050505050505050505050505050565b60005471010000000000000000000000000000000000900460ff161561357d576040517f0dc149f000000000000000000000000000000000000000000000000000000000815260040160405180910390fd5b604080518082018252601481527f5374617465436f6d6d69746d656e74436861696e0000000000000000000000006020820152905163bf40fac160e01b81526000916001600160a01b037f0000000000000000000000000000000000000000000000000000000000000000169163bf40fac1916135fc91600401615483565b602060405180830381865afa158015613619573d6000803e3d6000fd5b505050506040513d601f19601f8201168201806040525081019061363d9190615832565b6040517fa0832c030000000000000000000000000000000000000000000000000000000081527f0000000000000000000000000000000000000000000000000000000000000000600482015290915060009081906001600160a01b0384169063a0832c03906024016040805180830381865afa1580156136c1573d6000803e3d6000fd5b505050506040513d601f19601f820116820180604052508101906136e5919061598f565b90925090508180613722576040517f6a6bc3b200000000000000000000000000000000000000000000000000000000815260040160405180910390fd5b6040517f5fc993dd000000000000000000000000000000000000000000000000000000008152600481018490526001600160a01b03851690635fc993dd90602401602060405180830381865afa158015613780573d6000803e3d6000fd5b505050506040513d601f19601f820116820180604052508101906137a49190615866565b156137c25760405163f1a9458160e01b815260040160405180910390fd5b604080518082019091528181526020018290526008819055600982905536607a146137f557639824bdab6000526004601cfd5b813660011981013560f01c900360540135116138355760405163f40239db60e01b81523660011981013560f01c900360140135600482015260240161269d565b60007f000000000000000000000000000000000000000000000000000000000000000090506000816001600160a01b031663d16cb6d86040518163ffffffff1660e01b8152600401602060405180830381865afa15801561389a573d6000803e3d6000fd5b505050506040513d601f19601f820116820180604052508101906138be9190615832565b6040805160e08101825263ffffffff8152600060208201529192506002919081013660011981013560f01c90033560601c6001600160a01b0390811682526040516370a0823160e01b8152306004820152602090920191908516906370a0823190602401602060405180830381865afa15801561393f573d6000803e3d6000fd5b505050506040513d601f19601f8201168201806040525081019061396391906158cc565b6001600160801b031681526020013660011981013560f01c900360140135815260016020820152604001426001600160801b0390811690915282546001808201855560009485526020808620855160059094020180549186015163ffffffff9094167fffffffffffffffff000000000000000000000000000000000000000000000000909216919091176401000000006001600160a01b0394851602178155604080860151928201805473ffffffffffffffffffffffffffffffffffffffff19169385169390931790925560608501516002820180547fffffffffffffffffffffffffffffffff00000000000000000000000000000000169186169190911790556080850151600382015560a085015160c090950151948416600160801b9590941694909402929092176004938401558354710100000000000000000000000000000000007fffffffffffffffffffffffffffff00ffffffffffffffffffffffffffffffffff90911617845590516370a0823160e01b815230928101929092528316906370a0823190602401602060405180830381865afa158015613b0c573d6000803e3d6000fd5b505050506040513d601f19601f82011682018060405250810190613b3091906158cc565b60405163095ea7b360e01b81526001600160a01b038581166004830152602482018390529192509083169063095ea7b3906044016020604051808303816000875af1158015613b83573d6000803e3d6000fd5b505050506040513d601f19601f82011682018060405250810190613ba79190615866565b5060405163b6b55f2560e01b8152600481018290526001600160a01b0384169063b6b55f2590602401600060405180830381600087803b158015613bea57600080fd5b505af1158015613bfe573d6000803e3d6000fd5b50506000805467ffffffffffffffff19164267ffffffffffffffff16179055505050505050505050565b6001600160801b03811160071b81811c67ffffffffffffffff1060061b1781811c63ffffffff1060051b1781811c61ffff1060041b1781811c60ff1060031b1760008213613c7e57631615e6386000526004601cfd5b7ff8f9f9faf9fdfafbf9fdfcfdfafbfcfef9fafdfafcfcfbfefafafcfbffffffff6f8421084210842108cc6318c6db6d54be83831c1c601f161a1890811b609f90811c6c465772b2bbbb5f824b15207a3081018102606090811d6d0388eaa27412d5aca026815d636e018202811d6d0df99ac502031bf953eff472fdcc018202811d6d13cdffb29d51d99322bdff5f2211018202811d6d0a0f742023def783a307a986912e018202811d6d01920d8043ca89b5239253284e42018202811d6c0b7a86d7375468fac667a0a527016c29508e458543d8aa4df2abee7883018302821d6d0139601a2efabe717e604cbb4894018302821d6d02247f7a7b6594320649aa03aba1018302821d6c8c3f38e95a6b1ff2ab1c3b343619018302821d6d02384773bdf1ac5676facced60901901830290911d6cb9a025d814b29c212b8b1a07cd19019091027ffffffffffffffff5f6af8f7b3396644f18e157960000000000000000000000000105711340daa0d5f769dba1915cef59f0815a5506029190037d0267a36c0c95b3975ab3ee5b203a7614a3f75373f047d803ae7b6687f2b302017d57115e47018c7177eebf7cd370a3356a1b7863008a5ae8028c72b88642840160ae1d90565b60007812725dd1d243aba0e75fe645cc4873f9e65afe688c928e1f218311670de0b6b3a764000002158202613e8257637c5f487d6000526004601cfd5b50670de0b6b3a7640000919091020490565b600081600019048311820215613eb25763bac65e5b6000526004601cfd5b50670de0b6b3a764000091020490565b600068023f2fa8f6da5b9d28198213613eda57919050565b680755bf798b4a1bf1e58212613ef85763a37bfec96000526004601cfd5b6503782dace9d9604e83901b059150600060606bb17217f7d1cf79abc9e3b39884821b056b80000000000000000000000001901d6bb17217f7d1cf79abc9e3b39881029093036c240c330e9fb2d9cbaf0fd5aafb1981018102606090811d6d0277594991cfc85f6e2461837cd9018202811d6d1a521255e34f6a5061b25ef1c9c319018202811d6db1bbb201f443cf962f1a1d3db4a5018202811d6e02c72388d9f74f51a9331fed693f1419018202811d6e05180bb14799ab47a8a8cb2a527d57016d02d16720577bd19bf614176fe9ea6c10fe68e7fd37d0007b713f765084018402831d9081019084016d01d3967ed30fc4f89c02bab5708119010290911d6e0587f503bb6ea29d25fcb7401964500190910279d835ebba824c98fb31b83b2ca45c000000000000000000000000010574029d9dc38563c32e5c2f6dc192ee70ef65f9978af30260c3939093039290921c92915050565b60006124d0670de0b6b3a76400008361406886613c28565b61407291906159b3565b61407c9190615a53565b613ec2565b60008054600160801b900460ff1660028111156140a0576140a06153cc565b146140be5760405163067fe19560e41b815260040160405180910390fd5b6000600287815481106140d3576140d361560d565b6000918252602082206005919091020160048101549092506001600160801b0316908715821760011b90506141297f00000000000000000000000000000000000000000000000000000000000000006001615639565b614192826001600160801b0316600080516020615b808339815191526307c4acdd60e01b67ffffffffffffffff831160061b83811c63ffffffff1060051b1792831c600181901c17600281901c17600481901c17600881901c17601081901c170260fb1c1a1790565b60ff16146141cc576040517f5f53dd9800000000000000000000000000000000000000000000000000000000815260040160405180910390fd5b60008089156142a85761421f7f00000000000000000000000000000000000000000000000000000000000000007f000000000000000000000000000000000000000000000000000000000000000061584f565b6001901b614235846001600160801b0316614f6c565b6001600160801b03166142489190615a81565b1561427c5761427361426460016001600160801b038716615a95565b865463ffffffff166000614fe1565b6003015461429e565b7f00000000000000000000000000000000000000000000000000000000000000005b91508490506142c9565b600385015491506142c66142646001600160801b0386166001615ab5565b90505b600882901b60088a8a6040516142e0929190615822565b6040518091039020901b14614321576040517f696550ff00000000000000000000000000000000000000000000000000000000815260040160405180910390fd5b600061432c8c6150aa565b9050600061433b836003015490565b6040517fe14ced320000000000000000000000000000000000000000000000000000000081527f00000000000000000000000000000000000000000000000000000000000000006001600160a01b03169063e14ced32906143a8908f908f908f908f908a90600401615b00565b6020604051808303816000875af11580156143c7573d6000803e3d6000fd5b505050506040513d601f19601f820116820180604052508101906143eb91906158cc565b600485015491149150600090600290614463906001600160801b0316600080516020615b808339815191526307c4acdd60e01b67ffffffffffffffff831160061b83811c63ffffffff1060051b1792831c600181901c17600281901c17600481901c17600881901c17601081901c170260fb1c1a1790565b6144cc896001600160801b0316600080516020615b808339815191526307c4acdd60e01b67ffffffffffffffff831160061b83811c63ffffffff1060051b1792831c600181901c17600281901c17600481901c17600881901c17601081901c170260fb1c1a1790565b6144d69190615b3a565b6144e09190615b5d565b60ff161590508115158103614521576040517ffb4e40dd00000000000000000000000000000000000000000000000000000000815260040160405180910390fd5b875464010000000090046001600160a01b03161561456b576040517f9071e6af00000000000000000000000000000000000000000000000000000000815260040160405180910390fd5b5050855477ffffffffffffffffffffffffffffffffffffffff0000000019163364010000000002179095555050505050505050505050565b60008060008060008590506000600282815481106145c3576145c361560d565b600091825260209091206004600590920201908101549091507f000000000000000000000000000000000000000000000000000000000000000090614667906001600160801b0316600080516020615b808339815191526307c4acdd60e01b67ffffffffffffffff831160061b83811c63ffffffff1060051b1792831c600181901c17600281901c17600481901c17600881901c17601081901c170260fb1c1a1790565b60ff16116146a1576040517fb34b5c2200000000000000000000000000000000000000000000000000000000815260040160405180910390fd5b6000815b60048301547f000000000000000000000000000000000000000000000000000000000000000090614735906001600160801b0316600080516020615b808339815191526307c4acdd60e01b67ffffffffffffffff831160061b83811c63ffffffff1060051b1792831c600181901c17600281901c17600481901c17600881901c17601081901c170260fb1c1a1790565b60ff1692508211156147aa57825463ffffffff166147747f00000000000000000000000000000000000000000000000000000000000000006001615639565b830361477e578391505b600281815481106147915761479161560d565b90600052602060002090600502019350809450506146a5565b600481810154908401546001600160801b0391821691166000816001600160801b03166147ef6147e3856001600160801b031660011c90565b6001600160801b031690565b6001600160801b03161490508015614888576000614815836001600160801b0316614f6c565b6001600160801b0316111561486557600061484561483d60016001600160801b038616615a95565b896001614fe1565b6003810154600490910154909c506001600160801b03169a5061486b9050565b6008549a505b600386015460048701549099506001600160801b031697506148cc565b60006148a161483d6001600160801b0385166001615ab5565b6003808901546004808b015492840154930154909e506001600160801b039182169d50919b50169850505b505050505050509193509193565b60006001600160801b038416156149355760408051602081018790526001600160801b038087169282019290925260608101859052908316608082015260a0016040516020818303038152906040528051906020012061191c565b828260405160200161495a9291909182526001600160801b0316602082015260400190565b6040516020818303038152906040528051906020012095945050505050565b6000806149dc84600080516020615b808339815191526307c4acdd60e01b67ffffffffffffffff831160061b83811c63ffffffff1060051b1792831c600181901c17600281901c17600481901c17600881901c17601081901c170260fb1c1a1790565b60ff1690508083036001841b600180831b0386831b17039250505092915050565b600080600080846000015111614a555760405162461bcd60e51b815260206004820152601860248201527f524c50206974656d2063616e6e6f74206265206e756c6c2e0000000000000000604482015260640161269d565b6020840151805160001a607f8111614a7a576000600160009450945094505050614d47565b60b78111614af6576000614a8f60808361584f565b905080876000015111614ae45760405162461bcd60e51b815260206004820152601960248201527f496e76616c696420524c502073686f727420737472696e672e00000000000000604482015260640161269d565b60019550935060009250614d47915050565b60bf8111614be5576000614b0b60b78361584f565b905080876000015111614b605760405162461bcd60e51b815260206004820152601f60248201527f496e76616c696420524c50206c6f6e6720737472696e67206c656e6774682e00604482015260640161269d565b600183015160208290036101000a9004614b7a8183615639565b885111614bc95760405162461bcd60e51b815260206004820152601860248201527f496e76616c696420524c50206c6f6e6720737472696e672e0000000000000000604482015260640161269d565b614bd4826001615639565b9650945060009350614d4792505050565b60f78111614c60576000614bfa60c08361584f565b905080876000015111614c4f5760405162461bcd60e51b815260206004820152601760248201527f496e76616c696420524c502073686f7274206c6973742e000000000000000000604482015260640161269d565b600195509350849250614d47915050565b6000614c6d60f78361584f565b905080876000015111614cc25760405162461bcd60e51b815260206004820152601d60248201527f496e76616c696420524c50206c6f6e67206c697374206c656e6774682e000000604482015260640161269d565b600183015160208290036101000a9004614cdc8183615639565b885111614d2b5760405162461bcd60e51b815260206004820152601660248201527f496e76616c696420524c50206c6f6e67206c6973742e00000000000000000000604482015260640161269d565b614d36826001615639565b9650945060019350614d4792505050565b9193909250565b606060008267ffffffffffffffff811115614d6b57614d6b61566a565b6040519080825280601f01601f191660200182016040528015614d95576020820181803683370190505b5090508051600003614da8579050614e22565b6000614db48587615639565b90506020820160005b614dc8602087615899565b811015614dff5782518252614dde602084615639565b9250614deb602083615639565b915080614df781615651565b915050614dbd565b5080519151601f86166020036101000a6000190192831692191691909117905290505b9392505050565b6000614e3f6001600160801b0384166001615ab5565b90506000614e4f82866001614fe1565b9050600086901a8380614f085750614e8860027f0000000000000000000000000000000000000000000000000000000000000000615a81565b6004830154600290614ef9906001600160801b0316600080516020615b808339815191526307c4acdd60e01b67ffffffffffffffff831160061b83811c63ffffffff1060051b1792831c600181901c17600281901c17600481901c17600881901c17601081901c170260fb1c1a1790565b614f039190615b5d565b60ff16145b15614f475760ff811660011480614f22575060ff81166002145b614f425760405163f40239db60e01b81526004810188905260240161269d565b6125ae565b60ff8116156125ae5760405163f40239db60e01b81526004810188905260240161269d565b600080614fcf83600080516020615b808339815191526307c4acdd60e01b67ffffffffffffffff831160061b83811c63ffffffff1060051b1792831c600181901c17600281901c17600481901c17600881901c17601081901c170260fb1c1a1790565b600160ff919091161b90920392915050565b600080826150215761501c6001600160801b0386167f00000000000000000000000000000000000000000000000000000000000000006150d9565b615033565b615033856001600160801b03166151f6565b9050600284815481106150485761504861560d565b906000526020600020906005020191505b60048201546001600160801b038281169116146150a257815460028054909163ffffffff1690811061508d5761508d61560d565b90600052602060002090600502019150615059565b509392505050565b60008060008060006150bb866145a3565b93509350935093506150cf848484846148da565b9695505050505050565b600081615145846001600160801b0316600080516020615b808339815191526307c4acdd60e01b67ffffffffffffffff831160061b83811c63ffffffff1060051b1792831c600181901c17600281901c17600481901c17600881901c17601081901c170260fb1c1a1790565b60ff161161515b5763b34b5c226000526004601cfd5b615164836151f6565b9050816151d0826001600160801b0316600080516020615b808339815191526307c4acdd60e01b67ffffffffffffffff831160061b83811c63ffffffff1060051b1792831c600181901c17600281901c17600481901c17600881901c17601081901c170260fb1c1a1790565b60ff16116124d3576124d06151e6836001615639565b6001600160801b03831690615271565b6000811960018301168161526082600080516020615b808339815191526307c4acdd60e01b67ffffffffffffffff831160061b83811c63ffffffff1060051b1792831c600181901c17600281901c17600481901c17600881901c17601081901c170260fb1c1a1790565b60ff169390931c8015179392505050565b6000806152d484600080516020615b808339815191526307c4acdd60e01b67ffffffffffffffff831160061b83811c63ffffffff1060051b1792831c600181901c17600281901c17600481901c17600881901c17601081901c170260fb1c1a1790565b60ff169050808303600180821b0385821b179250505092915050565b6000806040838503121561530357600080fd5b50508035926020909101359150565b60008083601f84011261532457600080fd5b50813567ffffffffffffffff81111561533c57600080fd5b60208301915083602082850101111561535457600080fd5b9250929050565b60008060006040848603121561537057600080fd5b833567ffffffffffffffff8082111561538857600080fd5b9085019060a0828803121561539c57600080fd5b909350602085013590808211156153b257600080fd5b506153bf86828701615312565b9497909650939450505050565b634e487b7160e01b600052602160045260246000fd5b602081016003831061540457634e487b7160e01b600052602160045260246000fd5b91905290565b60008060006060848603121561541f57600080fd5b505081359360208301359350604090920135919050565b6000815180845260005b8181101561545c57602081850181015186830182015201615440565b8181111561546e576000602083870101525b50601f01601f19169290920160200192915050565b6020815260006124d06020830184615436565b6000602082840312156154a857600080fd5b5035919050565b6001600160a01b03811681146154c457600080fd5b50565b6000602082840312156154d957600080fd5b8135614e22816154af565b80151581146154c457600080fd5b6000806000806080858703121561550857600080fd5b8435935060208501359250604085013591506060850135615528816154e4565b939692955090935050565b60006020828403121561554557600080fd5b81356001600160801b0381168114614e2257600080fd5b6000806000806000806080878903121561557557600080fd5b863595506020870135615587816154e4565b9450604087013567ffffffffffffffff808211156155a457600080fd5b6155b08a838b01615312565b909650945060608901359150808211156155c957600080fd5b506155d689828a01615312565b979a9699509497509295939492505050565b63ffffffff8416815282602082015260606040820152600061191c6060830184615436565b634e487b7160e01b600052603260045260246000fd5b634e487b7160e01b600052601160045260246000fd5b6000821982111561564c5761564c615623565b500190565b60006001820161566357615663615623565b5060010190565b634e487b7160e01b600052604160045260246000fd5b60405160a0810167ffffffffffffffff811182821017156156a3576156a361566a565b60405290565b604051601f8201601f1916810167ffffffffffffffff811182821017156156d2576156d261566a565b604052919050565b600060a082360312156156ec57600080fd5b6156f4615680565b82358152602080840135818301526040840135604083015260608401356060830152608084013567ffffffffffffffff8082111561573157600080fd5b9085019036601f83011261574457600080fd5b8135818111156157565761575661566a565b615768601f8201601f191685016156a9565b9150808252368482850101111561577e57600080fd5b808484018584013760009082019093019290925250608082015292915050565b6000808335601e198436030181126157b557600080fd5b83018035915067ffffffffffffffff8211156157d057600080fd5b60200191503681900382131561535457600080fd5b600080600080608085870312156157fb57600080fd5b84359350602085013561580d816154af565b93969395505050506040820135916060013590565b8183823760009101908152919050565b60006020828403121561584457600080fd5b8151614e22816154af565b60008282101561586157615861615623565b500390565b60006020828403121561587857600080fd5b8151614e22816154e4565b634e487b7160e01b600052601260045260246000fd5b6000826158a8576158a8615883565b500490565b60008160001904831182151516156158c7576158c7615623565b500290565b6000602082840312156158de57600080fd5b5051919050565b8481528360208201528260408201526080606082015260006150cf6080830184615436565b600067ffffffffffffffff80831681851680830382111561592d5761592d615623565b01949350505050565b600067ffffffffffffffff8083168185168183048111821515161561595d5761595d615623565b02949350505050565b600067ffffffffffffffff8381169083168181101561598757615987615623565b039392505050565b600080604083850312156159a257600080fd5b505080516020909101519092909150565b60007f7fffffffffffffffffffffffffffffffffffffffffffffffffffffffffffffff6000841360008413858304851182821616156159f4576159f4615623565b600160ff1b6000871286820588128184161615615a1357615a13615623565b60008712925087820587128484161615615a2f57615a2f615623565b87850587128184161615615a4557615a45615623565b505050929093029392505050565b600082615a6257615a62615883565b600160ff1b821460001984141615615a7c57615a7c615623565b500590565b600082615a9057615a90615883565b500690565b60006001600160801b038381169083168181101561598757615987615623565b60006001600160801b0380831681851680830382111561592d5761592d615623565b81835281816020850137506000828201602090810191909152601f909101601f19169091010190565b606081526000615b14606083018789615ad7565b8281036020840152615b27818688615ad7565b9150508260408301529695505050505050565b600060ff821660ff841680821015615b5457615b54615623565b90039392505050565b600060ff831680615b7057615b70615883565b8060ff8416069150509291505056fe0009010a0d15021d0b0e10121619031e080c141c0f111807131b17061a05041fa2646970667358221220da30b05f9b116ae862214de0cd5f4d40c8e4cc2392d012c352310187691c356a64736f6c634300080f0033",
  "devdoc": {
    "errors": {
      "UnexpectedRootClaim(bytes32)": [
        {
          "params": {
            "rootClaim": "is the claim that was unexpected."
          }
        }
      ]
    },
    "kind": "dev",
    "methods": {
      "addLocalData(uint256,uint256,uint256)": {
        "params": {
          "_execLeafIdx": "The index of the leaf claim in an execution subgame that requires the local data for a step.",
          "_ident": "The local identifier of the data to post.",
          "_partOffset": "The offset of the data to post."
        }
      },
      "attack(bytes32,uint256,bytes32)": {
        "params": {
          "_claim": "The `Claim` at the relative attack position.",
          "_disputed": "The `Claim` being attacked.",
          "_parentIndex": "Index of the `Claim` to attack in the `claimData` array. This must match the `_disputed` claim."
        }
      },
      "challengeRootL2Block((uint256,bytes32,uint256,uint256,bytes),bytes)": {
        "params": {
          "_headerRLP": "The RLP-encoded L2 block header.",
          "_outputRootProof": "The output root proof."
        }
      },
      "claimCredit(address)": {
        "params": {
          "_recipient": "The owner and recipient of the credit."
        }
      },
      "constructor": {
        "params": {
          "_absolutePrestate": "The absolute prestate of the instruction trace.",
          "_addressManager": "Address manager contract.",
          "_challenger": "Address that is allowed to challenge instances of this contract.",
          "_clockExtension": "The clock extension to perform when the remaining duration is less than the extension.",
          "_gameType": "The type ID of the game.",
          "_l2ChainId": "Chain ID of the L2 network this contract argues about.",
          "_maxClockDuration": "The maximum amount of time that may accumulate on a team's chess clock.",
          "_maxGameDepth": "The maximum depth of bisection.",
          "_proposer": "Address that is allowed to create instances of this contract.",
          "_splitDepth": "The final depth of the output bisection portion of the game.",
          "_vm": "An onchain VM that performs single instruction steps on an FPP trace.",
          "_wmetis": "WMETIS contract for holding METIS."
        }
      },
      "defend(bytes32,uint256,bytes32)": {
        "params": {
          "_claim": "The `Claim` at the relative defense position.",
          "_parentIndex": "Index of the claim to defend in the `claimData` array. This must match the `_disputed` claim."
        }
      },
      "extraData()": {
        "details": "`clones-with-immutable-args` argument #4",
        "returns": {
          "extraData_": "Any extra data supplied to the dispute game contract by the creator."
        }
      },
      "gameCreator()": {
        "details": "`clones-with-immutable-args` argument #1",
        "returns": {
          "creator_": "The creator of the dispute game."
        }
      },
      "gameData()": {
        "returns": {
          "extraData_": "Any extra data supplied to the dispute game contract by the creator.",
          "gameType_": "The type of proof system being used.",
          "rootClaim_": "The root claim of the DisputeGame."
        }
      },
      "gameType()": {
        "details": "The reference impl should be entirely different depending on the type (fault, validity)      i.e. The game type should indicate the security model.",
        "returns": {
          "gameType_": "The type of proof system being used."
        }
      },
      "getChallengerDuration(uint256)": {
        "params": {
          "_claimIndex": "The index of the subgame root claim."
        },
        "returns": {
          "duration_": "The time elapsed on the potential challenger to `_claimIndex`'s chess clock."
        }
      },
      "getNumToResolve(uint256)": {
        "params": {
          "_claimIndex": "The subgame root claim's index within `claimData`."
        },
        "returns": {
          "numRemainingChildren_": "The number of children that still need to be checked to resolve the subgame."
        }
      },
      "getRequiredBond(uint128)": {
        "params": {
          "_position": "The position of the bonded interaction."
        },
        "returns": {
          "requiredBond_": "The required ETH bond for the given move, in wei."
        }
      },
      "initialize()": {
        "details": "This function may only be called once."
      },
      "l1Head()": {
        "details": "`clones-with-immutable-args` argument #3",
        "returns": {
          "l1Head_": "The parent hash of the L1 block when the dispute game was created."
        }
      },
      "move(bytes32,uint256,bytes32,bool)": {
        "params": {
          "_challengeIndex": "The index of the claim being moved against. This must match the `_disputed` claim.",
          "_claim": "The claim at the next logical position in the game.",
          "_isAttack": "Whether or not the move is an attack or defense."
        }
      },
      "resolve()": {
        "details": "May only be called if the `status` is `IN_PROGRESS`.",
        "returns": {
          "status_": "The status of the game after resolution."
        }
      },
      "resolveClaim(uint256,uint256)": {
        "details": "This function must be called bottom-up in the DAG      A subgame is a tree of claims that has a maximum depth of 1.      A subgame root claims is valid if, and only if, all of its child claims are invalid.      At the deepest level in the DAG, a claim is invalid if there's a successful step against it.",
        "params": {
          "_claimIndex": "The index of the subgame root claim to resolve.",
          "_numToResolve": "The number of subgames to resolve in this call. If the input is `0`, and this is the first                      page, this function will attempt to check all of the subgame's children at once."
        }
      },
      "rootClaim()": {
        "details": "`clones-with-immutable-args` argument #2",
        "returns": {
          "rootClaim_": "The root claim of the DisputeGame."
        }
      },
      "step(uint256,bool,bytes,bytes)": {
        "details": "This function should point to a fault proof processor in order to execute      a step in the fault proof program on-chain. The interface of the fault proof      processor contract should adhere to the `IBigStepper` interface.",
        "params": {
          "_claimIndex": "The index of the challenged claim within `claimData`.",
          "_isAttack": "Whether or not the step is an attack or a defense.",
          "_proof": "Proof to access memory nodes in the VM's merkle state tree.",
          "_stateData": "The stateData of the step is the preimage of the claim at the given        prestate, which is at `_stateIndex` if the move is an attack and `_claimIndex` if        the move is a defense. If the step is an attack on the first instruction, it is        the absolute prestate of the fault proof VM."
        }
      }
    },
    "title": "PermissionedDisputeGame",
    "version": 1
  },
  "userdoc": {
    "errors": {
      "AlreadyInitialized()": [
        {
          "notice": "Thrown when a dispute game has already been initialized."
        }
      ],
      "AnchorRootNotFound()": [
        {
          "notice": "Thrown when an anchor root is not found for a given game type."
        }
      ],
      "BadAuth()": [
        {
          "notice": "Thrown when an unauthorized address attempts to interact with the game."
        }
      ],
      "BlockNumberMatches()": [
        {
          "notice": "Thrown when there is a match between the block number in the output root proof and the block number         claimed in the dispute game."
        }
      ],
      "CannotDefendRootClaim()": [
        {
          "notice": "Thrown when a defense against the root claim is attempted."
        }
      ],
      "ClaimAboveSplit()": [
        {
          "notice": "Thrown when a parent output root is attempted to be found on a claim that is in         the output root portion of the tree."
        }
      ],
      "ClaimAlreadyExists()": [
        {
          "notice": "Thrown when a claim is attempting to be made that already exists."
        }
      ],
      "ClaimAlreadyResolved()": [
        {
          "notice": "Thrown when resolving a claim that has already been resolved."
        }
      ],
      "ClockNotExpired()": [
        {
          "notice": "Thrown when the game is attempted to be resolved too early."
        }
      ],
      "ClockTimeExceeded()": [
        {
          "notice": "Thrown when a move is attempted to be made after the clock has timed out."
        }
      ],
      "DuplicateStep()": [
        {
          "notice": "Thrown when trying to step against a claim for a second time, after it has already been countered with         an instruction step."
        }
      ],
      "GameDepthExceeded()": [
        {
          "notice": "Thrown when a move is attempted to be made at or greater than the max depth of the game."
        }
      ],
      "GameNotInProgress()": [
        {
          "notice": "Thrown when an action that requires the game to be `IN_PROGRESS` is invoked when         the game is not in progress."
        }
      ],
      "InsufficientAllowance()": [
        {
          "notice": "Thrown when a user has insufficient allowance for a bond."
        }
      ],
      "InsufficientBalance()": [
        {
          "notice": "Thrown when a user has insufficient balance for a bond."
        }
      ],
      "InvalidChallengePeriod()": [
        {
          "notice": "Thrown on deployment if the PreimageOracle challenge period is too high."
        }
      ],
      "InvalidClockExtension()": [
        {
          "notice": "Thrown on deployment if the max clock duration is less than or equal to the clock extension."
        }
      ],
      "InvalidDisputedClaimIndex()": [
        {
          "notice": "Thrown when a disputed claim does not match its index in the game."
        }
      ],
      "InvalidHeaderRLP()": [
        {
          "notice": "Thrown when header RLP is invalid with respect to the block hash in an output root proof."
        }
      ],
      "InvalidLocalIdent()": [
        {
          "notice": "Thrown when an invalid local identifier is passed to the `addLocalData` function."
        }
      ],
      "InvalidOutputRootProof()": [
        {
          "notice": "Thrown when an output root proof is invalid."
        }
      ],
      "InvalidParent()": [
        {
          "notice": "Thrown when a step is attempted above the maximum game depth."
        }
      ],
      "InvalidPrestate()": [
        {
          "notice": "Thrown when an invalid prestate is supplied to `step`."
        }
      ],
      "InvalidSplitDepth()": [
        {
          "notice": "Thrown on deployment if the split depth is greater than or equal to the max         depth of the game."
        }
      ],
      "L2BlockNumberChallenged()": [
        {
          "notice": "Thrown when the L2 block number claim has already been challenged."
        }
      ],
      "MaxDepthTooLarge()": [
        {
          "notice": "Thrown on deployment if the max depth is greater than `LibPosition.`"
        }
      ],
      "NoCreditToClaim()": [
        {
          "notice": "Thrown when a credit claim is attempted for a value of 0."
        }
      ],
      "OutOfOrderResolution()": [
        {
          "notice": "Thrown when resolving claims out of order."
        }
      ],
      "UnexpectedRootClaim(bytes32)": [
        {
          "notice": "Thrown when the root claim has an unexpected VM status.         Some games can only start with a root-claim with a specific status."
        }
      ],
      "ValidStep()": [
        {
          "notice": "Thrown when a step is made that computes the expected post state correctly."
        }
      ]
    },
    "events": {
      "Move(uint256,bytes32,address)": {
        "notice": "Emitted when a new claim is added to the DAG by `claimant`"
      },
      "Resolved(uint8)": {
        "notice": "Emitted when the game is resolved."
      },
      "SlashingFailed(address,bytes)": {
        "notice": "Emitted when slashing fails"
      }
    },
    "kind": "user",
    "methods": {
      "absolutePrestate()": {
        "notice": "Returns the absolute prestate of the instruction trace."
      },
      "addLocalData(uint256,uint256,uint256)": {
        "notice": "Posts the requested local data to the VM's `PreimageOralce`."
      },
      "attack(bytes32,uint256,bytes32)": {
        "notice": "Attack a disagreed upon `Claim`."
      },
      "challengeRootL2Block((uint256,bytes32,uint256,uint256,bytes),bytes)": {
        "notice": "Challenges the root L2 block number by providing the preimage of the output root and the L2 block header         and showing that the committed L2 block number is incorrect relative to the claimed L2 block number."
      },
      "challenger()": {
        "notice": "Returns the challenger address."
      },
      "claimCredit(address)": {
        "notice": "Claim the credit belonging to the recipient address."
      },
      "claimData(uint256)": {
        "notice": "An append-only array of all claims made during the dispute game."
      },
      "claimDataLen()": {
        "notice": "Returns the length of the `claimData` array."
      },
      "claims(bytes32)": {
        "notice": "A mapping to allow for constant-time lookups of existing claims."
      },
      "clockExtension()": {
        "notice": "Returns the clock extension constant."
      },
      "createdAt()": {
        "notice": "The starting timestamp of the game"
      },
      "credit(address)": {
        "notice": "Credited balances for winning participants."
      },
      "defend(bytes32,uint256,bytes32)": {
        "notice": "Defend an agreed upon `Claim`._disputed The `Claim` being defended."
      },
      "extraData()": {
        "notice": "Getter for the extra data."
      },
      "gameCreator()": {
        "notice": "Getter for the creator of the dispute game."
      },
      "gameData()": {
        "notice": "A compliant implementation of this interface should return the components of the         game UUID's preimage provided in the cwia payload. The preimage of the UUID is         constructed as `keccak256(gameType . rootClaim . extraData)` where `.` denotes         concatenation."
      },
      "gameType()": {
        "notice": "Getter for the game type."
      },
      "getChallengerDuration(uint256)": {
        "notice": "Returns the amount of time elapsed on the potential challenger to `_claimIndex`'s chess clock. Maxes         out at `MAX_CLOCK_DURATION`."
      },
      "getNumToResolve(uint256)": {
        "notice": "Returns the number of children that still need to be resolved in order to fully resolve a subgame rooted         at `_claimIndex`."
      },
      "getRequiredBond(uint128)": {
        "notice": "Returns the required bond for a given move kind."
      },
      "initialize()": {
        "notice": "Initializes the contract."
      },
      "l1Head()": {
        "notice": "Getter for the parent hash of the L1 block when the dispute game was created."
      },
      "l2BlockNumber()": {
        "notice": "The l2BlockNumber of the disputed output root in the `L2OutputOracle`."
      },
      "l2BlockNumberChallenged()": {
        "notice": "Flag for whether or not the L2 block number claim has been invalidated via `challengeRootL2Block`."
      },
      "l2BlockNumberChallenger()": {
        "notice": "The challenger of the L2 block number claim. Should always be `address(0)` if `l2BlockNumberChallenged`         is `false`. Should be the address of the challenger if `l2BlockNumberChallenged` is `true`."
      },
      "l2ChainId()": {
        "notice": "Returns the chain ID of the L2 network this contract argues about."
      },
      "maxClockDuration()": {
        "notice": "Returns the max clock duration."
      },
      "maxGameDepth()": {
        "notice": "Returns the max game depth."
      },
      "move(bytes32,uint256,bytes32,bool)": {
        "notice": "Generic move function, used for both `attack` and `defend` moves._disputed The disputed `Claim`."
      },
      "proposer()": {
        "notice": "Returns the proposer address."
      },
      "resolutionCheckpoints(uint256)": {
        "notice": "A mapping of claim indices to resolution checkpoints."
      },
      "resolve()": {
        "notice": "If all necessary information has been gathered, this function should mark the game         status as either `CHALLENGER_WINS` or `DEFENDER_WINS` and return the status of         the resolved game. It is at this stage that the bonds should be awarded to the         necessary parties."
      },
      "resolveClaim(uint256,uint256)": {
        "notice": "Resolves the subgame rooted at the given claim index. `_numToResolve` specifies how many children of         the subgame will be checked in this call. If `_numToResolve` is less than the number of children, an         internal cursor will be updated and this function may be called again to complete resolution of the         subgame."
      },
      "resolvedAt()": {
        "notice": "The timestamp of the game's global resolution."
      },
      "resolvedSubgames(uint256)": {
        "notice": "A mapping of resolved subgames rooted at a claim index."
      },
      "rootClaim()": {
        "notice": "Getter for the root claim."
      },
      "scc()": {
        "notice": "Returns the anchor state registry contract."
      },
      "splitDepth()": {
        "notice": "Returns the split depth."
      },
      "startingBlockNumber()": {
        "notice": "Only the starting block number of the game."
      },
      "startingOutputRoot()": {
        "notice": "The latest finalized output root, serving as the anchor for output bisection."
      },
      "startingRootHash()": {
        "notice": "Only the starting output root of the game."
      },
      "status()": {
        "notice": "Returns the current status of the game."
      },
      "step(uint256,bool,bytes,bytes)": {
        "notice": "Perform an instruction step via an on-chain fault proof processor."
      },
      "subgames(uint256,uint256)": {
        "notice": "A mapping of subgames rooted at a claim index to other claim indices in the subgame."
      },
      "version()": {
        "notice": "Semantic version."
      },
      "vm()": {
        "notice": "Returns the address of the VM."
      },
      "wmetis()": {
        "notice": "Returns the WMETIS contract for holding METIS."
      }
    },
    "notice": "PermissionedDisputeGame is a contract that inherits from `FaultDisputeGame`, and contains two roles:         - The `challenger` role, which is allowed to challenge a dispute.         - The `proposer` role, which is allowed to create proposals and participate in their game.         This contract exists as a way for networks to support the fault proof iteration of the OptimismPortal         contract without needing to support a fully permissionless system. Permissionless systems can introduce         costs that certain networks may not wish to support. This contract can also be used as a fallback mechanism         in case of a failure in the permissionless fault proof system in the stage one release.",
    "version": 1
  },
  "storageLayout": {
    "storage": [
      {
        "astId": 11202,
        "contract": "contracts/L1/dispute/PermissionedDisputeGame.sol:PermissionedDisputeGame",
        "label": "createdAt",
        "offset": 0,
        "slot": "0",
        "type": "t_userDefinedValueType(Timestamp)16076"
      },
      {
        "astId": 11206,
        "contract": "contracts/L1/dispute/PermissionedDisputeGame.sol:PermissionedDisputeGame",
        "label": "resolvedAt",
        "offset": 8,
        "slot": "0",
        "type": "t_userDefinedValueType(Timestamp)16076"
      },
      {
        "astId": 11210,
        "contract": "contracts/L1/dispute/PermissionedDisputeGame.sol:PermissionedDisputeGame",
        "label": "status",
        "offset": 16,
        "slot": "0",
        "type": "t_enum(GameStatus)16126"
      },
      {
        "astId": 11213,
        "contract": "contracts/L1/dispute/PermissionedDisputeGame.sol:PermissionedDisputeGame",
        "label": "initialized",
        "offset": 17,
        "slot": "0",
        "type": "t_bool"
      },
      {
        "astId": 11216,
        "contract": "contracts/L1/dispute/PermissionedDisputeGame.sol:PermissionedDisputeGame",
        "label": "l2BlockNumberChallenged",
        "offset": 18,
        "slot": "0",
        "type": "t_bool"
      },
      {
        "astId": 11219,
        "contract": "contracts/L1/dispute/PermissionedDisputeGame.sol:PermissionedDisputeGame",
        "label": "l2BlockNumberChallenger",
        "offset": 0,
        "slot": "1",
        "type": "t_address"
      },
      {
        "astId": 11224,
        "contract": "contracts/L1/dispute/PermissionedDisputeGame.sol:PermissionedDisputeGame",
        "label": "claimData",
        "offset": 0,
        "slot": "2",
        "type": "t_array(t_struct(ClaimData)15406_storage)dyn_storage"
      },
      {
        "astId": 11229,
        "contract": "contracts/L1/dispute/PermissionedDisputeGame.sol:PermissionedDisputeGame",
        "label": "credit",
        "offset": 0,
        "slot": "3",
        "type": "t_mapping(t_address,t_uint256)"
      },
      {
        "astId": 11235,
        "contract": "contracts/L1/dispute/PermissionedDisputeGame.sol:PermissionedDisputeGame",
        "label": "claims",
        "offset": 0,
        "slot": "4",
        "type": "t_mapping(t_userDefinedValueType(Hash)16061,t_bool)"
      },
      {
        "astId": 11241,
        "contract": "contracts/L1/dispute/PermissionedDisputeGame.sol:PermissionedDisputeGame",
        "label": "subgames",
        "offset": 0,
        "slot": "5",
        "type": "t_mapping(t_uint256,t_array(t_uint256)dyn_storage)"
      },
      {
        "astId": 11246,
        "contract": "contracts/L1/dispute/PermissionedDisputeGame.sol:PermissionedDisputeGame",
        "label": "resolvedSubgames",
        "offset": 0,
        "slot": "6",
        "type": "t_mapping(t_uint256,t_bool)"
      },
      {
        "astId": 11252,
        "contract": "contracts/L1/dispute/PermissionedDisputeGame.sol:PermissionedDisputeGame",
        "label": "resolutionCheckpoints",
        "offset": 0,
        "slot": "7",
        "type": "t_mapping(t_uint256,t_struct(ResolutionCheckpoint)15416_storage)"
      },
      {
        "astId": 11256,
        "contract": "contracts/L1/dispute/PermissionedDisputeGame.sol:PermissionedDisputeGame",
        "label": "startingOutputRoot",
        "offset": 0,
        "slot": "8",
        "type": "t_struct(OutputRoot)16132_storage"
      }
    ],
    "types": {
      "t_address": {
        "encoding": "inplace",
        "label": "address",
        "numberOfBytes": "20"
      },
      "t_array(t_struct(ClaimData)15406_storage)dyn_storage": {
        "base": "t_struct(ClaimData)15406_storage",
        "encoding": "dynamic_array",
        "label": "struct IFaultDisputeGame.ClaimData[]",
        "numberOfBytes": "32"
      },
      "t_array(t_uint256)dyn_storage": {
        "base": "t_uint256",
        "encoding": "dynamic_array",
        "label": "uint256[]",
        "numberOfBytes": "32"
      },
      "t_bool": {
        "encoding": "inplace",
        "label": "bool",
        "numberOfBytes": "1"
      },
      "t_enum(GameStatus)16126": {
        "encoding": "inplace",
        "label": "enum GameStatus",
        "numberOfBytes": "1"
      },
      "t_mapping(t_address,t_uint256)": {
        "encoding": "mapping",
        "key": "t_address",
        "label": "mapping(address => uint256)",
        "numberOfBytes": "32",
        "value": "t_uint256"
      },
      "t_mapping(t_uint256,t_array(t_uint256)dyn_storage)": {
        "encoding": "mapping",
        "key": "t_uint256",
        "label": "mapping(uint256 => uint256[])",
        "numberOfBytes": "32",
        "value": "t_array(t_uint256)dyn_storage"
      },
      "t_mapping(t_uint256,t_bool)": {
        "encoding": "mapping",
        "key": "t_uint256",
        "label": "mapping(uint256 => bool)",
        "numberOfBytes": "32",
        "value": "t_bool"
      },
      "t_mapping(t_uint256,t_struct(ResolutionCheckpoint)15416_storage)": {
        "encoding": "mapping",
        "key": "t_uint256",
        "label": "mapping(uint256 => struct IFaultDisputeGame.ResolutionCheckpoint)",
        "numberOfBytes": "32",
        "value": "t_struct(ResolutionCheckpoint)15416_storage"
      },
      "t_mapping(t_userDefinedValueType(Hash)16061,t_bool)": {
        "encoding": "mapping",
        "key": "t_userDefinedValueType(Hash)16061",
        "label": "mapping(Hash => bool)",
        "numberOfBytes": "32",
        "value": "t_bool"
      },
      "t_struct(ClaimData)15406_storage": {
        "encoding": "inplace",
        "label": "struct IFaultDisputeGame.ClaimData",
        "members": [
          {
            "astId": 15390,
            "contract": "contracts/L1/dispute/PermissionedDisputeGame.sol:PermissionedDisputeGame",
            "label": "parentIndex",
            "offset": 0,
            "slot": "0",
            "type": "t_uint32"
          },
          {
            "astId": 15392,
            "contract": "contracts/L1/dispute/PermissionedDisputeGame.sol:PermissionedDisputeGame",
            "label": "counteredBy",
            "offset": 4,
            "slot": "0",
            "type": "t_address"
          },
          {
            "astId": 15394,
            "contract": "contracts/L1/dispute/PermissionedDisputeGame.sol:PermissionedDisputeGame",
            "label": "claimant",
            "offset": 0,
            "slot": "1",
            "type": "t_address"
          },
          {
            "astId": 15396,
            "contract": "contracts/L1/dispute/PermissionedDisputeGame.sol:PermissionedDisputeGame",
            "label": "bond",
            "offset": 0,
            "slot": "2",
            "type": "t_uint128"
          },
          {
            "astId": 15399,
            "contract": "contracts/L1/dispute/PermissionedDisputeGame.sol:PermissionedDisputeGame",
            "label": "claim",
            "offset": 0,
            "slot": "3",
            "type": "t_userDefinedValueType(Claim)16014"
          },
          {
            "astId": 15402,
            "contract": "contracts/L1/dispute/PermissionedDisputeGame.sol:PermissionedDisputeGame",
            "label": "position",
            "offset": 0,
            "slot": "4",
            "type": "t_userDefinedValueType(Position)15672"
          },
          {
            "astId": 15405,
            "contract": "contracts/L1/dispute/PermissionedDisputeGame.sol:PermissionedDisputeGame",
            "label": "clock",
            "offset": 16,
            "slot": "4",
            "type": "t_userDefinedValueType(Clock)15922"
          }
        ],
        "numberOfBytes": "160"
      },
      "t_struct(OutputRoot)16132_storage": {
        "encoding": "inplace",
        "label": "struct OutputRoot",
        "members": [
          {
            "astId": 16129,
            "contract": "contracts/L1/dispute/PermissionedDisputeGame.sol:PermissionedDisputeGame",
            "label": "root",
            "offset": 0,
            "slot": "0",
            "type": "t_userDefinedValueType(Hash)16061"
          },
          {
            "astId": 16131,
            "contract": "contracts/L1/dispute/PermissionedDisputeGame.sol:PermissionedDisputeGame",
            "label": "l2BlockNumber",
            "offset": 0,
            "slot": "1",
            "type": "t_uint256"
          }
        ],
        "numberOfBytes": "64"
      },
      "t_struct(ResolutionCheckpoint)15416_storage": {
        "encoding": "inplace",
        "label": "struct IFaultDisputeGame.ResolutionCheckpoint",
        "members": [
          {
            "astId": 15408,
            "contract": "contracts/L1/dispute/PermissionedDisputeGame.sol:PermissionedDisputeGame",
            "label": "initialCheckpointComplete",
            "offset": 0,
            "slot": "0",
            "type": "t_bool"
          },
          {
            "astId": 15410,
            "contract": "contracts/L1/dispute/PermissionedDisputeGame.sol:PermissionedDisputeGame",
            "label": "subgameIndex",
            "offset": 1,
            "slot": "0",
            "type": "t_uint32"
          },
          {
            "astId": 15413,
            "contract": "contracts/L1/dispute/PermissionedDisputeGame.sol:PermissionedDisputeGame",
            "label": "leftmostPosition",
            "offset": 5,
            "slot": "0",
            "type": "t_userDefinedValueType(Position)15672"
          },
          {
            "astId": 15415,
            "contract": "contracts/L1/dispute/PermissionedDisputeGame.sol:PermissionedDisputeGame",
            "label": "counteredBy",
            "offset": 0,
            "slot": "1",
            "type": "t_address"
          }
        ],
        "numberOfBytes": "64"
      },
      "t_uint128": {
        "encoding": "inplace",
        "label": "uint128",
        "numberOfBytes": "16"
      },
      "t_uint256": {
        "encoding": "inplace",
        "label": "uint256",
        "numberOfBytes": "32"
      },
      "t_uint32": {
        "encoding": "inplace",
        "label": "uint32",
        "numberOfBytes": "4"
      },
      "t_userDefinedValueType(Claim)16014": {
        "encoding": "inplace",
        "label": "Claim",
        "numberOfBytes": "32"
      },
      "t_userDefinedValueType(Clock)15922": {
        "encoding": "inplace",
        "label": "Clock",
        "numberOfBytes": "16"
      },
      "t_userDefinedValueType(Hash)16061": {
        "encoding": "inplace",
        "label": "Hash",
        "numberOfBytes": "32"
      },
      "t_userDefinedValueType(Position)15672": {
        "encoding": "inplace",
        "label": "Position",
        "numberOfBytes": "16"
      },
      "t_userDefinedValueType(Timestamp)16076": {
        "encoding": "inplace",
        "label": "Timestamp",
        "numberOfBytes": "8"
      }
    }
  }
}