{
  "address": "0xeF31500874838359928140Da607f4ab2F26CDeB1",
  "abi": [
    {
      "inputs": [
        {
          "internalType": "uint256",
          "name": "_minProposalSize",
          "type": "uint256"
        },
        {
          "internalType": "uint256",
          "name": "_challengePeriod",
          "type": "uint256"
        }
      ],
      "stateMutability": "nonpayable",
      "type": "constructor"
    },
    {
      "inputs": [],
      "name": "ActiveProposal",
      "type": "error"
    },
    {
      "inputs": [],
      "name": "AlreadyFinalized",
      "type": "error"
    },
    {
      "inputs": [],
      "name": "AlreadyInitialized",
      "type": "error"
    },
    {
      "inputs": [],
      "name": "BadProposal",
      "type": "error"
    },
    {
      "inputs": [],
      "name": "BondTransferFailed",
      "type": "error"
    },
    {
      "inputs": [],
      "name": "InsufficientBond",
      "type": "error"
    },
    {
      "inputs": [],
      "name": "InvalidInputSize",
      "type": "error"
    },
    {
      "inputs": [],
      "name": "InvalidPreimage",
      "type": "error"
    },
    {
      "inputs": [],
      "name": "InvalidProof",
      "type": "error"
    },
    {
      "inputs": [],
      "name": "NotEOA",
      "type": "error"
    },
    {
      "inputs": [],
      "name": "NotInitialized",
      "type": "error"
    },
    {
      "inputs": [],
      "name": "PartOffsetOOB",
      "type": "error"
    },
    {
      "inputs": [],
      "name": "PostStateMatches",
      "type": "error"
    },
    {
      "inputs": [],
      "name": "StatesNotContiguous",
      "type": "error"
    },
    {
      "inputs": [],
      "name": "TreeSizeOverflow",
      "type": "error"
    },
    {
      "inputs": [],
      "name": "WrongStartingBlock",
      "type": "error"
    },
    {
      "inputs": [],
      "name": "KECCAK_TREE_DEPTH",
      "outputs": [
        {
          "internalType": "uint256",
          "name": "",
          "type": "uint256"
        }
      ],
      "stateMutability": "view",
      "type": "function"
    },
    {
      "inputs": [],
      "name": "MAX_LEAF_COUNT",
      "outputs": [
        {
          "internalType": "uint256",
          "name": "",
          "type": "uint256"
        }
      ],
      "stateMutability": "view",
      "type": "function"
    },
    {
      "inputs": [],
      "name": "MIN_BOND_SIZE",
      "outputs": [
        {
          "internalType": "uint256",
          "name": "",
          "type": "uint256"
        }
      ],
      "stateMutability": "view",
      "type": "function"
    },
    {
      "inputs": [],
      "name": "PRECOMPILE_CALL_RESERVED_GAS",
      "outputs": [
        {
          "internalType": "uint256",
          "name": "",
          "type": "uint256"
        }
      ],
      "stateMutability": "view",
      "type": "function"
    },
    {
      "inputs": [
        {
          "internalType": "uint256",
          "name": "_uuid",
          "type": "uint256"
        },
        {
          "internalType": "uint256",
          "name": "_inputStartBlock",
          "type": "uint256"
        },
        {
          "internalType": "bytes",
          "name": "_input",
          "type": "bytes"
        },
        {
          "internalType": "bytes32[]",
          "name": "_stateCommitments",
          "type": "bytes32[]"
        },
        {
          "internalType": "bool",
          "name": "_finalize",
          "type": "bool"
        }
      ],
      "name": "addLeavesLPP",
      "outputs": [],
      "stateMutability": "nonpayable",
      "type": "function"
    },
    {
      "inputs": [
        {
          "internalType": "address",
          "name": "_claimant",
          "type": "address"
        },
        {
          "internalType": "uint256",
          "name": "_uuid",
          "type": "uint256"
        },
        {
          "components": [
            {
              "internalType": "bytes",
              "name": "input",
              "type": "bytes"
            },
            {
              "internalType": "uint256",
              "name": "index",
              "type": "uint256"
            },
            {
              "internalType": "bytes32",
              "name": "stateCommitment",
              "type": "bytes32"
            }
          ],
          "internalType": "struct PreimageOracle.Leaf",
          "name": "_postState",
          "type": "tuple"
        },
        {
          "internalType": "bytes32[]",
          "name": "_postStateProof",
          "type": "bytes32[]"
        }
      ],
      "name": "challengeFirstLPP",
      "outputs": [],
      "stateMutability": "nonpayable",
      "type": "function"
    },
    {
      "inputs": [
        {
          "internalType": "address",
          "name": "_claimant",
          "type": "address"
        },
        {
          "internalType": "uint256",
          "name": "_uuid",
          "type": "uint256"
        },
        {
          "components": [
            {
              "internalType": "uint64[25]",
              "name": "state",
              "type": "uint64[25]"
            }
          ],
          "internalType": "struct LibKeccak.StateMatrix",
          "name": "_stateMatrix",
          "type": "tuple"
        },
        {
          "components": [
            {
              "internalType": "bytes",
              "name": "input",
              "type": "bytes"
            },
            {
              "internalType": "uint256",
              "name": "index",
              "type": "uint256"
            },
            {
              "internalType": "bytes32",
              "name": "stateCommitment",
              "type": "bytes32"
            }
          ],
          "internalType": "struct PreimageOracle.Leaf",
          "name": "_preState",
          "type": "tuple"
        },
        {
          "internalType": "bytes32[]",
          "name": "_preStateProof",
          "type": "bytes32[]"
        },
        {
          "components": [
            {
              "internalType": "bytes",
              "name": "input",
              "type": "bytes"
            },
            {
              "internalType": "uint256",
              "name": "index",
              "type": "uint256"
            },
            {
              "internalType": "bytes32",
              "name": "stateCommitment",
              "type": "bytes32"
            }
          ],
          "internalType": "struct PreimageOracle.Leaf",
          "name": "_postState",
          "type": "tuple"
        },
        {
          "internalType": "bytes32[]",
          "name": "_postStateProof",
          "type": "bytes32[]"
        }
      ],
      "name": "challengeLPP",
      "outputs": [],
      "stateMutability": "nonpayable",
      "type": "function"
    },
    {
      "inputs": [],
      "name": "challengePeriod",
      "outputs": [
        {
          "internalType": "uint256",
          "name": "challengePeriod_",
          "type": "uint256"
        }
      ],
      "stateMutability": "view",
      "type": "function"
    },
    {
      "inputs": [
        {
          "internalType": "address",
          "name": "_owner",
          "type": "address"
        },
        {
          "internalType": "uint256",
          "name": "_uuid",
          "type": "uint256"
        }
      ],
      "name": "getTreeRootLPP",
      "outputs": [
        {
          "internalType": "bytes32",
          "name": "treeRoot_",
          "type": "bytes32"
        }
      ],
      "stateMutability": "view",
      "type": "function"
    },
    {
      "inputs": [
        {
          "internalType": "uint256",
          "name": "_uuid",
          "type": "uint256"
        },
        {
          "internalType": "uint32",
          "name": "_partOffset",
          "type": "uint32"
        },
        {
          "internalType": "uint32",
          "name": "_claimedSize",
          "type": "uint32"
        }
      ],
      "name": "initLPP",
      "outputs": [],
      "stateMutability": "payable",
      "type": "function"
    },
    {
      "inputs": [
        {
          "internalType": "uint256",
          "name": "_z",
          "type": "uint256"
        },
        {
          "internalType": "uint256",
          "name": "_y",
          "type": "uint256"
        },
        {
          "internalType": "bytes",
          "name": "_commitment",
          "type": "bytes"
        },
        {
          "internalType": "bytes",
          "name": "_proof",
          "type": "bytes"
        },
        {
          "internalType": "uint256",
          "name": "_partOffset",
          "type": "uint256"
        }
      ],
      "name": "loadBlobPreimagePart",
      "outputs": [],
      "stateMutability": "nonpayable",
      "type": "function"
    },
    {
      "inputs": [
        {
          "internalType": "uint256",
          "name": "_partOffset",
          "type": "uint256"
        },
        {
          "internalType": "bytes",
          "name": "_preimage",
          "type": "bytes"
        }
      ],
      "name": "loadKeccak256PreimagePart",
      "outputs": [],
      "stateMutability": "nonpayable",
      "type": "function"
    },
    {
      "inputs": [
        {
          "internalType": "uint256",
          "name": "_ident",
          "type": "uint256"
        },
        {
          "internalType": "bytes32",
          "name": "_localContext",
          "type": "bytes32"
        },
        {
          "internalType": "bytes32",
          "name": "_word",
          "type": "bytes32"
        },
        {
          "internalType": "uint256",
          "name": "_size",
          "type": "uint256"
        },
        {
          "internalType": "uint256",
          "name": "_partOffset",
          "type": "uint256"
        }
      ],
      "name": "loadLocalData",
      "outputs": [
        {
          "internalType": "bytes32",
          "name": "key_",
          "type": "bytes32"
        }
      ],
      "stateMutability": "nonpayable",
      "type": "function"
    },
    {
      "inputs": [
        {
          "internalType": "uint256",
          "name": "_partOffset",
          "type": "uint256"
        },
        {
          "internalType": "address",
          "name": "_precompile",
          "type": "address"
        },
        {
          "internalType": "uint64",
          "name": "_requiredGas",
          "type": "uint64"
        },
        {
          "internalType": "bytes",
          "name": "_input",
          "type": "bytes"
        }
      ],
      "name": "loadPrecompilePreimagePart",
      "outputs": [],
      "stateMutability": "nonpayable",
      "type": "function"
    },
    {
      "inputs": [
        {
          "internalType": "uint256",
          "name": "_partOffset",
          "type": "uint256"
        },
        {
          "internalType": "bytes",
          "name": "_preimage",
          "type": "bytes"
        }
      ],
      "name": "loadSha256PreimagePart",
      "outputs": [],
      "stateMutability": "nonpayable",
      "type": "function"
    },
    {
      "inputs": [],
      "name": "minProposalSize",
      "outputs": [
        {
          "internalType": "uint256",
          "name": "minProposalSize_",
          "type": "uint256"
        }
      ],
      "stateMutability": "view",
      "type": "function"
    },
    {
      "inputs": [
        {
          "internalType": "bytes32",
          "name": "",
          "type": "bytes32"
        }
      ],
      "name": "preimageLengths",
      "outputs": [
        {
          "internalType": "uint256",
          "name": "",
          "type": "uint256"
        }
      ],
      "stateMutability": "view",
      "type": "function"
    },
    {
      "inputs": [
        {
          "internalType": "bytes32",
          "name": "",
          "type": "bytes32"
        },
        {
          "internalType": "uint256",
          "name": "",
          "type": "uint256"
        }
      ],
      "name": "preimagePartOk",
      "outputs": [
        {
          "internalType": "bool",
          "name": "",
          "type": "bool"
        }
      ],
      "stateMutability": "view",
      "type": "function"
    },
    {
      "inputs": [
        {
          "internalType": "bytes32",
          "name": "",
          "type": "bytes32"
        },
        {
          "internalType": "uint256",
          "name": "",
          "type": "uint256"
        }
      ],
      "name": "preimageParts",
      "outputs": [
        {
          "internalType": "bytes32",
          "name": "",
          "type": "bytes32"
        }
      ],
      "stateMutability": "view",
      "type": "function"
    },
    {
      "inputs": [
        {
          "internalType": "address",
          "name": "",
          "type": "address"
        },
        {
          "internalType": "uint256",
          "name": "",
          "type": "uint256"
        },
        {
          "internalType": "uint256",
          "name": "",
          "type": "uint256"
        }
      ],
      "name": "proposalBlocks",
      "outputs": [
        {
          "internalType": "uint64",
          "name": "",
          "type": "uint64"
        }
      ],
      "stateMutability": "view",
      "type": "function"
    },
    {
      "inputs": [
        {
          "internalType": "address",
          "name": "_claimant",
          "type": "address"
        },
        {
          "internalType": "uint256",
          "name": "_uuid",
          "type": "uint256"
        }
      ],
      "name": "proposalBlocksLen",
      "outputs": [
        {
          "internalType": "uint256",
          "name": "len_",
          "type": "uint256"
        }
      ],
      "stateMutability": "view",
      "type": "function"
    },
    {
      "inputs": [
        {
          "internalType": "address",
          "name": "",
          "type": "address"
        },
        {
          "internalType": "uint256",
          "name": "",
          "type": "uint256"
        }
      ],
      "name": "proposalBonds",
      "outputs": [
        {
          "internalType": "uint256",
          "name": "",
          "type": "uint256"
        }
      ],
      "stateMutability": "view",
      "type": "function"
    },
    {
      "inputs": [
        {
          "internalType": "address",
          "name": "",
          "type": "address"
        },
        {
          "internalType": "uint256",
          "name": "",
          "type": "uint256"
        },
        {
          "internalType": "uint256",
          "name": "",
          "type": "uint256"
        }
      ],
      "name": "proposalBranches",
      "outputs": [
        {
          "internalType": "bytes32",
          "name": "",
          "type": "bytes32"
        }
      ],
      "stateMutability": "view",
      "type": "function"
    },
    {
      "inputs": [],
      "name": "proposalCount",
      "outputs": [
        {
          "internalType": "uint256",
          "name": "count_",
          "type": "uint256"
        }
      ],
      "stateMutability": "view",
      "type": "function"
    },
    {
      "inputs": [
        {
          "internalType": "address",
          "name": "",
          "type": "address"
        },
        {
          "internalType": "uint256",
          "name": "",
          "type": "uint256"
        }
      ],
      "name": "proposalMetadata",
      "outputs": [
        {
          "internalType": "LPPMetaData",
          "name": "",
          "type": "bytes32"
        }
      ],
      "stateMutability": "view",
      "type": "function"
    },
    {
      "inputs": [
        {
          "internalType": "address",
          "name": "",
          "type": "address"
        },
        {
          "internalType": "uint256",
          "name": "",
          "type": "uint256"
        }
      ],
      "name": "proposalParts",
      "outputs": [
        {
          "internalType": "bytes32",
          "name": "",
          "type": "bytes32"
        }
      ],
      "stateMutability": "view",
      "type": "function"
    },
    {
      "inputs": [
        {
          "internalType": "uint256",
          "name": "",
          "type": "uint256"
        }
      ],
      "name": "proposals",
      "outputs": [
        {
          "internalType": "address",
          "name": "claimant",
          "type": "address"
        },
        {
          "internalType": "uint256",
          "name": "uuid",
          "type": "uint256"
        }
      ],
      "stateMutability": "view",
      "type": "function"
    },
    {
      "inputs": [
        {
          "internalType": "bytes32",
          "name": "_key",
          "type": "bytes32"
        },
        {
          "internalType": "uint256",
          "name": "_offset",
          "type": "uint256"
        }
      ],
      "name": "readPreimage",
      "outputs": [
        {
          "internalType": "bytes32",
          "name": "dat_",
          "type": "bytes32"
        },
        {
          "internalType": "uint256",
          "name": "datLen_",
          "type": "uint256"
        }
      ],
      "stateMutability": "view",
      "type": "function"
    },
    {
      "inputs": [
        {
          "internalType": "address",
          "name": "_claimant",
          "type": "address"
        },
        {
          "internalType": "uint256",
          "name": "_uuid",
          "type": "uint256"
        },
        {
          "components": [
            {
              "internalType": "uint64[25]",
              "name": "state",
              "type": "uint64[25]"
            }
          ],
          "internalType": "struct LibKeccak.StateMatrix",
          "name": "_stateMatrix",
          "type": "tuple"
        },
        {
          "components": [
            {
              "internalType": "bytes",
              "name": "input",
              "type": "bytes"
            },
            {
              "internalType": "uint256",
              "name": "index",
              "type": "uint256"
            },
            {
              "internalType": "bytes32",
              "name": "stateCommitment",
              "type": "bytes32"
            }
          ],
          "internalType": "struct PreimageOracle.Leaf",
          "name": "_preState",
          "type": "tuple"
        },
        {
          "internalType": "bytes32[]",
          "name": "_preStateProof",
          "type": "bytes32[]"
        },
        {
          "components": [
            {
              "internalType": "bytes",
              "name": "input",
              "type": "bytes"
            },
            {
              "internalType": "uint256",
              "name": "index",
              "type": "uint256"
            },
            {
              "internalType": "bytes32",
              "name": "stateCommitment",
              "type": "bytes32"
            }
          ],
          "internalType": "struct PreimageOracle.Leaf",
          "name": "_postState",
          "type": "tuple"
        },
        {
          "internalType": "bytes32[]",
          "name": "_postStateProof",
          "type": "bytes32[]"
        }
      ],
      "name": "squeezeLPP",
      "outputs": [],
      "stateMutability": "nonpayable",
      "type": "function"
    },
    {
      "inputs": [],
      "name": "version",
      "outputs": [
        {
          "internalType": "string",
          "name": "",
          "type": "string"
        }
      ],
      "stateMutability": "view",
      "type": "function"
    },
    {
      "inputs": [
        {
          "internalType": "uint256",
          "name": "",
          "type": "uint256"
        }
      ],
      "name": "zeroHashes",
      "outputs": [
        {
          "internalType": "bytes32",
          "name": "",
          "type": "bytes32"
        }
      ],
      "stateMutability": "view",
      "type": "function"
    }
  ],
  "transactionHash": "0x18e7fdb3e03abdb36ddc2376e622eb203cfcc4a13f43a1c09133804a4e7e20df",
  "args": [
    126000,
    86400
  ],
  "numDeployments": 2,
  "solcInputHash": "83ecad5ab7a3e180fbc0abc26341617e",
  "bytecode": "0x60c06040523480156200001157600080fd5b50604051620035313803806200353183398101604081905262000034916200014f565b60a082905260808190526001600160401b038111156200009a5760405162461bcd60e51b815260206004820152601a60248201527f6368616c6c656e676520706572696f6420746f6f206c61726765000000000000604482015260640160405180910390fd5b60005b620000ab600160106200018a565b811015620001465760038160108110620000c957620000c9620001a4565b015460038260108110620000e157620000e1620001a4565b01546040805160208101939093528201526060016040516020818303038152906040528051906020012060038260016200011c9190620001ba565b601081106200012f576200012f620001a4565b0155806200013d81620001d5565b9150506200009d565b505050620001f1565b600080604083850312156200016357600080fd5b505080516020909101519092909150565b634e487b7160e01b600052601160045260246000fd5b6000828210156200019f576200019f62000174565b500390565b634e487b7160e01b600052603260045260246000fd5b60008219821115620001d057620001d062000174565b500190565b600060018201620001ea57620001ea62000174565b5060010190565b60805160a05161330c620002256000396000818161059501526119a601526000818161069501526112c8015261330c6000f3fe6080604052600436106101d85760003560e01c80639d53a64811610102578063ddcd58de11610095578063ec5efcbc11610064578063ec5efcbc14610666578063f3f480d914610686578063faf37bc7146106b9578063fef2b4ed146106cc57600080fd5b8063ddcd58de146105b9578063e03110e1146105f1578063e159261114610626578063ea7139501461064657600080fd5b8063b5e7154c116100d1578063b5e7154c1461053a578063d18534b514610551578063da35c66414610571578063dd24f9bf1461058657600080fd5b80639d53a648146104805780639d7e8769146104c2578063b2e67ba8146104e2578063b4801e611461051a57600080fd5b806361238bde1161017a5780637ac54767116101495780637ac54767146103bd5780638542cf50146103dd578063882856ef146104285780638dc4be111461046057600080fd5b806361238bde146103115780636551927b146103495780637051472e146103815780637917de1d1461039d57600080fd5b80633909af5c116101b65780633909af5c146102645780634d52b4c91461028657806352f0f3ad1461029b57806354fd4d50146102bb57600080fd5b8063013cf08b146101dd5780630359a563146102215780632055b36b1461024f575b600080fd5b3480156101e957600080fd5b506101fd6101f836600461290c565b6106f9565b604080516001600160a01b0390931683526020830191909152015b60405180910390f35b34801561022d57600080fd5b5061024161023c366004612941565b610731565b604051908152602001610218565b34801561025b57600080fd5b50610241601081565b34801561027057600080fd5b5061028461027f366004612b0c565b61084f565b005b34801561029257600080fd5b50610241610a1e565b3480156102a757600080fd5b506102416102b6366004612bf7565b610a39565b3480156102c757600080fd5b506103046040518060400160405280600a81526020017f312e312e322d72632e310000000000000000000000000000000000000000000081525081565b6040516102189190612c5e565b34801561031d57600080fd5b5061024161032c366004612c91565b600160209081526000928352604080842090915290825290205481565b34801561035557600080fd5b50610241610364366004612941565b601560209081526000928352604080842090915290825290205481565b34801561038d57600080fd5b506102416703782dace9d9000081565b3480156103a957600080fd5b506102846103b8366004612cf4565b610ad8565b3480156103c957600080fd5b506102416103d836600461290c565b610f7a565b3480156103e957600080fd5b506104186103f8366004612c91565b600260209081526000928352604080842090915290825290205460ff1681565b6040519015158152602001610218565b34801561043457600080fd5b50610448610443366004612d8f565b610f91565b6040516001600160401b039091168152602001610218565b34801561046c57600080fd5b5061028461047b366004612dc2565b610fea565b34801561048c57600080fd5b5061024161049b366004612941565b6001600160a01b039091166000908152601860209081526040808320938352929052205490565b3480156104ce57600080fd5b506102846104dd366004612e0d565b6110af565b3480156104ee57600080fd5b506102416104fd366004612941565b601760209081526000928352604080842090915290825290205481565b34801561052657600080fd5b50610241610535366004612d8f565b6111fc565b34801561054657600080fd5b50610241620186a081565b34801561055d57600080fd5b5061028461056c366004612b0c565b61122e565b34801561057d57600080fd5b50601354610241565b34801561059257600080fd5b507f0000000000000000000000000000000000000000000000000000000000000000610241565b3480156105c557600080fd5b506102416105d4366004612941565b601660209081526000928352604080842090915290825290205481565b3480156105fd57600080fd5b5061061161060c366004612c91565b611561565b60408051928352602083019190915201610218565b34801561063257600080fd5b50610284610641366004612dc2565b611652565b34801561065257600080fd5b50610284610661366004612e98565b6116ea565b34801561067257600080fd5b50610284610681366004612f06565b6117f5565b34801561069257600080fd5b507f0000000000000000000000000000000000000000000000000000000000000000610241565b6102846106c7366004612f8d565b61190c565b3480156106d857600080fd5b506102416106e736600461290c565b60006020819052908152604090205481565b6013818154811061070957600080fd5b6000918252602090912060029091020180546001909101546001600160a01b03909116915082565b6001600160a01b038216600090815260156020908152604080832084845290915281205481906107679060601c63ffffffff1690565b63ffffffff16905060005b601081101561084757816001166001036107ed576001600160a01b0385166000908152601460209081526040808320878452909152902081601081106107ba576107ba612fc9565b0154604080516020810192909252810184905260600160405160208183030381529060405280519060200120925061082e565b826003826010811061080157610801612fc9565b01546040805160208101939093528201526060016040516020818303038152906040528051906020012092505b60019190911c908061083f81612ff5565b915050610772565b505092915050565b600061085b8a8a610731565b905061087e86868360208b01356108796108748d61300e565b611b80565b611bc0565b801561089c575061089c83838360208801356108796108748a61300e565b6108b9576040516309bde33960e01b815260040160405180910390fd5b8660400135886040516020016108cf91906130be565b604051602081830303815290604052805190602001201461090357604051630cb4548160e11b815260040160405180910390fd5b83602001358760200135600161091991906130fb565b1461093757604051639a3b119960e01b815260040160405180910390fd5b61097f886109458680613113565b8080601f016020809104026020016040519081016040528093929190818152602001838380828437600092019190915250611c2192505050565b61098888611d7b565b83604001358860405160200161099e91906130be565b60405160208183030381529060405280519060200120036109d257604051639843145b60e01b815260040160405180910390fd5b6001600160a01b038a1660009081526015602090815260408083208c84529091529020805467ffffffffffffffff19166001179055610a128a8a33612503565b50505050505050505050565b6001610a2c6010600261323f565b610a36919061324b565b81565b6000610a4586866125af565b9050610a528360086130fb565b82101580610a605750602083115b15610a7e5760405163fe25498760e01b815260040160405180910390fd5b6000602081815260c085901b825260089590955282518282526002865260408083208584528752808320805460ff191660019081179091558484528752808320948352938652838220558181529384905292205592915050565b60608115610af157610aea86866125f4565b9050610b2b565b85858080601f0160208091040260200160405190810160405280939291908181526020018383808284376000920191909152509293505050505b3360009081526014602090815260408083208b845290915280822081516102008101928390529160109082845b815481526020019060010190808311610b585750505050509050600060156000336001600160a01b03166001600160a01b0316815260200190815260200160002060008b81526020019081526020016000205490506000610bbf8260601c63ffffffff1690565b63ffffffff169050333214610be757604051635d04968b60e11b815260040160405180910390fd5b610bf78260801c63ffffffff1690565b63ffffffff16600003610c36576040517f87138d5c00000000000000000000000000000000000000000000000000000000815260040160405180910390fd5b610c408260c01c90565b6001600160401b031615610c80576040517f475a253500000000000000000000000000000000000000000000000000000000815260040160405180910390fd5b898114610cb9576040517f60f95d5a00000000000000000000000000000000000000000000000000000000815260040160405180910390fd5b610cc689898d888661266d565b83516020850160888204881415608883061715610ceb576307b1daf16000526004601cfd5b60405160c8810160405260005b83811015610d9b578083018051835260208101516020840152604081015160408401526060810151606084015260808101516080840152508460888301526088810460051b8b013560a883015260c882206001860195508560005b610200811015610d90576001821615610d705782818b0152610d90565b8981015160009081526020938452604090209260019290921c9101610d53565b505050608801610cf8565b50505050600160106002610daf919061323f565b610db9919061324b565b811115610df2576040517f6229572300000000000000000000000000000000000000000000000000000000815260040160405180910390fd5b610e54610e058360401c63ffffffff1690565b610e159063ffffffff168a6130fb565b60401b6bffffffff000000000000000019606084901b167fffffffffffffffffffffffffffffffff0000000000000000ffffffffffffffff8516171790565b91508415610ec85777ffffffffffffffffffffffffffffffffffffffffffffffff82164260c01b179150610e8e8260801c63ffffffff1690565b63ffffffff16610ea48360401c63ffffffff1690565b63ffffffff1614610ec857604051637b1dafd160e01b815260040160405180910390fd5b3360009081526014602090815260408083208e84529091529020610eee90846010612882565b503360008181526018602090815260408083208f8452825280832080546001810182559084528284206004820401805460039092166008026101000a6001600160401b03818102199093164390931602919091179055838352601582528083208f8452909152812084905560609190911b81523690601437366014016000a05050505050505050505050565b60038160108110610f8a57600080fd5b0154905081565b60186020528260005260406000206020528160005260406000208181548110610fb957600080fd5b906000526020600020906004918282040191900660080292509250509054906101000a90046001600160401b031681565b6044356000806008830186106110085763fe2549876000526004601cfd5b60c083901b60805260888386823786600882030151915060206000858360025afa90508061103557600080fd5b50600080516001600160f81b03167f0400000000000000000000000000000000000000000000000000000000000000178082526002602090815260408084208a85528252808420805460ff191660019081179091558385528252808420998452988152888320939093558152908190529490942055505050565b600080603087600037602060006030600060025afa806110d75763f91129696000526004601cfd5b6000516001600160f81b0316600160f81b17608081815260a08c905260c08b905260308a60e037603088609083013760008060c083600a5afa925082611125576309bde3396000526004601cfd5b6028861061113b5763fe2549876000526004601cfd5b6000602882015278200000000000000000000000000000000000000000000000008152600881018b905285810151935060308a8237603081019b909b52505060509098206001600160f81b03167f05000000000000000000000000000000000000000000000000000000000000001760008181526002602090815260408083208684528252808320805460ff1916600190811790915584845282528083209583529481528482209a909a559081528089529190912096909655505050505050565b6014602052826000526040600020602052816000526040600020816010811061122457600080fd5b0154925083915050565b6001600160a01b03891660009081526015602090815260408083208b84529091529020546001600160401b03811615611293576040517fc334f06900000000000000000000000000000000000000000000000000000000815260040160405180910390fd5b61129d8160c01c90565b6001600160401b03166000036112c6576040516355d4cbf960e01b815260040160405180910390fd5b7f00000000000000000000000000000000000000000000000000000000000000006112f18260c01c90565b611304906001600160401b03164261324b565b11611322576040516355d4cbf960e01b815260040160405180910390fd5b600061132e8b8b610731565b905061134787878360208c01356108796108748e61300e565b8015611365575061136584848360208901356108796108748b61300e565b611382576040516309bde33960e01b815260040160405180910390fd5b87604001358960405160200161139891906130be565b60405160208183030381529060405280519060200120146113cc57604051630cb4548160e11b815260040160405180910390fd5b8460200135886020013560016113e291906130fb565b141580611414575060016113fc8360601c63ffffffff1690565b6114069190613262565b63ffffffff16856020013514155b1561143257604051639a3b119960e01b815260040160405180910390fd5b611440896109458780613113565b61144989611d7b565b60006114548a6127a6565b6001600160f81b0316600160f91b17905060006114778460a01c63ffffffff1690565b6001600160401b03169050600160026000848152602001908152602001600020600083815260200190815260200160002060006101000a81548160ff021916908315150217905550601760008e6001600160a01b03166001600160a01b0316815260200190815260200160002060008d8152602001908152602001600020546001600084815260200190815260200160002060008381526020019081526020016000208190555061152e8460801c63ffffffff1690565b600083815260208190526040902063ffffffff9190911690556115528d8d81612503565b50505050505050505050505050565b6000828152600260209081526040808320848452909152812054819060ff166115ea576040517f08c379a000000000000000000000000000000000000000000000000000000000815260206004820152601460248201527f7072652d696d616765206d757374206578697374000000000000000000000000604482015260640160405180910390fd5b50600083815260208181526040909120546116068160086130fb565b6116118560206130fb565b1061162f57836116228260086130fb565b61162c919061324b565b91505b506000938452600160209081526040808620948652939052919092205492909150565b6044356000806008830186106116705763fe2549876000526004601cfd5b60c083901b6080526088838682378087016007190151908490206001600160f81b0316600160f91b1760008181526002602090815260408083208b84528252808320805460ff1916600190811790915584845282528083209a83529981528982209390935590815290819052959095209190915550505050565b60008060008060808860601b81528760c01b6014820152858782601c0137601c860181206001600160f81b03167f0600000000000000000000000000000000000000000000000000000000000000179350604088026260216001603f5a02101561175c5763dd629f866000526004601cfd5b6000808783601c018c5afa94503d6001019150600882018a106117875763fe2549876000526004601cfd5b60c082901b81526008018481533d6000600183013e8901600719015160008481526002602090815260408083208d84528252808320805460ff1916600190811790915587845282528083209c83529b81528b8220929092559384528390529790912096909655505050505050565b60006118018686610731565b905061181a83838360208801356108796108748a61300e565b611837576040516309bde33960e01b815260040160405180910390fd5b60208401351561185a57604051639a3b119960e01b815260040160405180910390fd5b6118626128c0565b611870816109458780613113565b61187981611d7b565b84604001358160405160200161188f91906130be565b60405160208183030381529060405280519060200120036118c357604051639843145b60e01b815260040160405180910390fd5b6001600160a01b03871660009081526015602090815260408083208984529091529020805467ffffffffffffffff19166001179055611903878733612503565b50505050505050565b6703782dace9d9000034101561194e576040517fe92c469f00000000000000000000000000000000000000000000000000000000815260040160405180910390fd5b33321461196e57604051635d04968b60e11b815260040160405180910390fd5b611979816008613287565b63ffffffff168263ffffffff16106119a45760405163fe25498760e01b815260040160405180910390fd5b7f00000000000000000000000000000000000000000000000000000000000000008163ffffffff1610156119eb57604051637b1dafd160e01b815260040160405180910390fd5b336000908152601560209081526040808320868452909152902054611a168160801c63ffffffff1690565b63ffffffff1615611a53576040517f0dc149f000000000000000000000000000000000000000000000000000000000815260040160405180910390fd5b608082901b7fffffffffffffffffffffffff00000000ffffffffffffffffffffffffffffffff60a085901b167fffffffffffffffff0000000000000000ffffffffffffffffffffffffffffffff83161717336000818152601560209081526040808320898452825280832094909455835180850185528381528082018981526013805460018101825590855291517f66de8ffda797e3de9c05e8fc57b3bf0ec28a930d40b0d285d93c06501cf6a090600290930292830180547fffffffffffffffffffffffff0000000000000000000000000000000000000000166001600160a01b03909216919091179055517f66de8ffda797e3de9c05e8fc57b3bf0ec28a930d40b0d285d93c06501cf6a0919091015591815260168252828120968152959052909320349055505050565b6000816000015182602001518360400151604051602001611ba3939291906132af565b604051602081830303815290604052805190602001209050919050565b60008160005b6010811015611c14578060051b880135600186831c1660018114611bf95760008481526020839052604090209350611c0a565b600082815260208590526040902093505b5050600101611bc6565b5090931495945050505050565b6088815114611c2f57600080fd5b6020810160208301611caf565b8260031b8201518060001a8160011a60081b178160021a60101b8260031a60181b17178160041a60201b8260051a60281b178260061a60301b8360071a60381b1717179050611ca981611c95868560059190911b015190565b186001600160401b0316600586901b840152565b50505050565b611cbb60008383611c3c565b611cc760018383611c3c565b611cd360028383611c3c565b611cdf60038383611c3c565b611ceb60048383611c3c565b611cf760058383611c3c565b611d0360068383611c3c565b611d0f60078383611c3c565b611d1b60088383611c3c565b611d2760098383611c3c565b611d33600a8383611c3c565b611d3f600b8383611c3c565b611d4b600c8383611c3c565b611d57600d8383611c3c565b611d63600e8383611c3c565b611d6f600f8383611c3c565b611ca960108383611c3c565b6040805178010000000000008082800000000000808a8000000080008000602082015279808b00000000800000018000000080008081800000000000800991810191909152788a00000000000000880000000080008009000000008000000a60608201527b8000808b800000000000008b8000000000008089800000000000800360808201527f80000000000080028000000000000080000000000000800a800000008000000a60a08201527f800000008000808180000000000080800000000080000001800000008000800860c082015260009060e001604051602081830303815290604052905060208201602082016123e3565b6102808101516101e082015161014083015160a0840151845118189118186102a082015161020083015161016084015160c0850151602086015118189118186102c083015161022084015161018085015160e0860151604087015118189118186102e08401516102408501516101a0860151610100870151606088015118189118186103008501516102608601516101c0870151610120880151608089015118189118188084603f1c611f2d8660011b6001600160401b031690565b18188584603f1c611f478660011b6001600160401b031690565b18188584603f1c611f618660011b6001600160401b031690565b181895508483603f1c611f7d8560011b6001600160401b031690565b181894508387603f1c611f998960011b6001600160401b031690565b60208b01518b5186186001600160401b03168c5291189190911897508118600181901b603f9190911c18935060c08801518118601481901c602c9190911b186001600160401b031660208901526101208801518718602c81901c60149190911b186001600160401b031660c08901526102c08801518618600381901c603d9190911b186001600160401b03166101208901526101c08801518718601981901c60279190911b186001600160401b03166102c08901526102808801518218602e81901c60129190911b186001600160401b03166101c089015260408801518618600281901c603e9190911b186001600160401b03166102808901526101808801518618601581901c602b9190911b186001600160401b031660408901526101a08801518518602781901c60199190911b186001600160401b03166101808901526102608801518718603881901c60089190911b186001600160401b03166101a08901526102e08801518518600881901c60389190911b186001600160401b03166102608901526101e08801518218601781901c60299190911b186001600160401b03166102e089015260808801518718602581901c601b9190911b186001600160401b03166101e08901526103008801518718603281901c600e9190911b186001600160401b031660808901526102a08801518118603e81901c60029190911b186001600160401b03166103008901526101008801518518600981901c60379190911b186001600160401b03166102a08901526102008801518118601381901c602d9190911b186001600160401b031661010089015260a08801518218601c81901c60249190911b186001600160401b031661020089015260608801518518602481901c601c9190911b186001600160401b031660a08901526102408801518518602b81901c60159190911b186001600160401b031660608901526102208801518618603181901c600f9190911b186001600160401b03166102408901526101608801518118603681901c600a9190911b186001600160401b03166102208901525060e08701518518603a81901c60069190911b186001600160401b03166101608801526101408701518118603d81901c60039190911b186001600160401b031660e088015250506001600160401b0381166101408601525b5050505050565b600582811b8201805160018501831b8401805160028701851b8601805160038901871b8801805160048b0190981b890180516001600160401b03861985168918811690995283198a16861889169096528819861683188816909352841986168818871690528419831684189095169052919391929190611903565b61237e6000826122f8565b6123896005826122f8565b612394600a826122f8565b61239f600f826122f8565b6123aa6014826122f8565b50565b6123b681611e71565b6123bf81612373565b600383901b820151815160c09190911c90611ca99082186001600160401b03168352565b6123ef600082846123ad565b6123fb600182846123ad565b612407600282846123ad565b612413600382846123ad565b61241f600482846123ad565b61242b600582846123ad565b612437600682846123ad565b612443600782846123ad565b61244f600882846123ad565b61245b600982846123ad565b612467600a82846123ad565b612473600b82846123ad565b61247f600c82846123ad565b61248b600d82846123ad565b612497600e82846123ad565b6124a3600f82846123ad565b6124af601082846123ad565b6124bb601182846123ad565b6124c7601282846123ad565b6124d3601382846123ad565b6124df601482846123ad565b6124eb601582846123ad565b6124f7601682846123ad565b611ca9601782846123ad565b6001600160a01b0383811660009081526016602090815260408083208684529091528082208054908390559051909284169083908381818185875af1925050503d806000811461256f576040519150601f19603f3d011682016040523d82523d6000602084013e612574565b606091505b50509050806122f1576040517f83e6cc6b00000000000000000000000000000000000000000000000000000000815260040160405180910390fd5b600160f81b6001600160f81b038316176125ed818360408051600093845233602052918152606090922091526001600160f81b0316600160f81b1790565b9392505050565b606060405190508160208201818101828683376088830680801561263d5760888290038501848101848103803687375060806001820353506001845160001a1784538652612654565b608836843760018353608060878401536088850186525b5050505050601f19603f82510116810160405292915050565b600061267f8260a01c63ffffffff1690565b6001600160401b03169050600061269c8360801c63ffffffff1690565b63ffffffff16905060006126b68460401c63ffffffff1690565b63ffffffff1690506008831080156126cc575080155b156127005760c082901b6000908152883560085283513382526017602090815260408084208a85529091529091205561279c565b6008831015801561271e57508061271860088561324b565b93508310155b8015612732575061272f87826130fb565b83105b1561279c576000612743828561324b565b9050876127518260206130fb565b1015801561275d575085155b1561277b5760405163fe25498760e01b815260040160405180910390fd5b3360009081526017602090815260408083208a845290915290209089013590555b5050505050505050565b6000612826565b66ff00ff00ff00ff8160081c1667ff00ff00ff00ff006127d68360081b6001600160401b031690565b1617905065ffff0000ffff8160101c1667ffff0000ffff00006128028360101b6001600160401b031690565b1617905060008160201c61281f8360201b6001600160401b031690565b1792915050565b6080820151602083019061283e906127ad565b6127ad565b604082015161284c906127ad565b60401b1761286461283960018460059190911b015190565b825160809190911b90612876906127ad565b60c01b17179392505050565b82601081019282156128b0579160200282015b828111156128b0578251825591602001919060010190612895565b506128bc9291506128d8565b5090565b60405180602001604052806128d36128ed565b905290565b5b808211156128bc57600081556001016128d9565b6040518061032001604052806019906020820280368337509192915050565b60006020828403121561291e57600080fd5b5035919050565b80356001600160a01b038116811461293c57600080fd5b919050565b6000806040838503121561295457600080fd5b61295d83612925565b946020939093013593505050565b634e487b7160e01b600052604160045260246000fd5b60405161032081016001600160401b03811182821017156129a4576129a461296b565b60405290565b604051606081016001600160401b03811182821017156129a4576129a461296b565b604051601f8201601f191681016001600160401b03811182821017156129f4576129f461296b565b604052919050565b80356001600160401b038116811461293c57600080fd5b6000610320808385031215612a2757600080fd5b60405160208082018281106001600160401b0382111715612a4a57612a4a61296b565b806040525081935085601f860112612a6157600080fd5b612a69612981565b928501928087851115612a7b57600080fd5b865b85811015612a9b57612a8e816129fc565b8352918301918301612a7d565b509092525091949350505050565b600060608284031215612abb57600080fd5b50919050565b60008083601f840112612ad357600080fd5b5081356001600160401b03811115612aea57600080fd5b6020830191508360208260051b8501011115612b0557600080fd5b9250929050565b60008060008060008060008060006103e08a8c031215612b2b57600080fd5b612b348a612925565b985060208a01359750612b4a8b60408c01612a13565b96506103608a01356001600160401b0380821115612b6757600080fd5b612b738d838e01612aa9565b97506103808c0135915080821115612b8a57600080fd5b612b968d838e01612ac1565b90975095506103a08c0135915080821115612bb057600080fd5b612bbc8d838e01612aa9565b94506103c08c0135915080821115612bd357600080fd5b50612be08c828d01612ac1565b915080935050809150509295985092959850929598565b600080600080600060a08688031215612c0f57600080fd5b505083359560208501359550604085013594606081013594506080013592509050565b60005b83811015612c4d578181015183820152602001612c35565b83811115611ca95750506000910152565b6020815260008251806020840152612c7d816040850160208701612c32565b601f01601f19169190910160400192915050565b60008060408385031215612ca457600080fd5b50508035926020909101359150565b60008083601f840112612cc557600080fd5b5081356001600160401b03811115612cdc57600080fd5b602083019150836020828501011115612b0557600080fd5b600080600080600080600060a0888a031215612d0f57600080fd5b873596506020880135955060408801356001600160401b0380821115612d3457600080fd5b612d408b838c01612cb3565b909750955060608a0135915080821115612d5957600080fd5b50612d668a828b01612ac1565b90945092505060808801358015158114612d7f57600080fd5b8091505092959891949750929550565b600080600060608486031215612da457600080fd5b612dad84612925565b95602085013595506040909401359392505050565b600080600060408486031215612dd757600080fd5b8335925060208401356001600160401b03811115612df457600080fd5b612e0086828701612cb3565b9497909650939450505050565b600080600080600080600060a0888a031215612e2857600080fd5b873596506020880135955060408801356001600160401b0380821115612e4d57600080fd5b612e598b838c01612cb3565b909750955060608a0135915080821115612e7257600080fd5b50612e7f8a828b01612cb3565b989b979a50959894979596608090950135949350505050565b600080600080600060808688031215612eb057600080fd5b85359450612ec060208701612925565b9350612ece604087016129fc565b925060608601356001600160401b03811115612ee957600080fd5b612ef588828901612cb3565b969995985093965092949392505050565b600080600080600060808688031215612f1e57600080fd5b612f2786612925565b94506020860135935060408601356001600160401b0380821115612f4a57600080fd5b612f5689838a01612aa9565b94506060880135915080821115612f6c57600080fd5b50612ef588828901612ac1565b803563ffffffff8116811461293c57600080fd5b600080600060608486031215612fa257600080fd5b83359250612fb260208501612f79565b9150612fc060408501612f79565b90509250925092565b634e487b7160e01b600052603260045260246000fd5b634e487b7160e01b600052601160045260246000fd5b60006001820161300757613007612fdf565b5060010190565b60006060823603121561302057600080fd5b6130286129aa565b82356001600160401b038082111561303f57600080fd5b9084019036601f83011261305257600080fd5b81356020828211156130665761306661296b565b613078601f8301601f191682016129cc565b9250818352368183860101111561308e57600080fd5b81818501828501376000918301810191909152908352848101359083015250604092830135928101929092525090565b81516103208201908260005b60198110156130f25782516001600160401b03168252602092830192909101906001016130ca565b50505092915050565b6000821982111561310e5761310e612fdf565b500190565b6000808335601e1984360301811261312a57600080fd5b8301803591506001600160401b0382111561314457600080fd5b602001915036819003821315612b0557600080fd5b600181815b8085111561319457816000190482111561317a5761317a612fdf565b8085161561318757918102915b93841c939080029061315e565b509250929050565b6000826131ab57506001613239565b816131b857506000613239565b81600181146131ce57600281146131d8576131f4565b6001915050613239565b60ff8411156131e9576131e9612fdf565b50506001821b613239565b5060208310610133831016604e8410600b8410161715613217575081810a613239565b6132218383613159565b806000190482111561323557613235612fdf565b0290505b92915050565b60006125ed838361319c565b60008282101561325d5761325d612fdf565b500390565b600063ffffffff8381169083168181101561327f5761327f612fdf565b039392505050565b600063ffffffff8083168185168083038211156132a6576132a6612fdf565b01949350505050565b600084516132c1818460208901612c32565b9190910192835250602082015260400191905056fea2646970667358221220aeb48b05f2b46d53c3921e8274ea51798f42833f52ad16514dcdf5641dc12b2064736f6c634300080f0033",
  "devdoc": {
    "custom:attribution": "Solady <https://github.com/Vectorized/solady/blob/main/src/utils/MerkleProofLib.sol#L13-L43>Beacon Deposit Contract <0x00000000219ab540356cbb839cbe05303d7705fa>",
    "kind": "dev",
    "methods": {
      "loadBlobPreimagePart(uint256,uint256,bytes,bytes,uint256)": {
        "params": {
          "_commitment": "The commitment to the polynomial. 48 bytes, part of the preimage key.",
          "_partOffset": "The offset of the preimage to store.",
          "_proof": "The KZG proof, part of the preimage key.",
          "_y": "Big endian point value. The preimage for the key.",
          "_z": "Big endian point value. Part of the preimage key."
        }
      },
      "loadKeccak256PreimagePart(uint256,bytes)": {
        "params": {
          "_partOffset": "The offset of the preimage to read.",
          "_preimage": "The preimage data."
        }
      },
      "loadLocalData(uint256,bytes32,bytes32,uint256,uint256)": {
        "details": "The local data parts are loaded into the preimage oracle under the context      of the caller - no other account can write to the caller's context      specific data.      There are 5 local data identifiers:      ┌────────────┬────────────────────────┐      │ Identifier │      Data              │      ├────────────┼────────────────────────┤      │          1 │ L1 Head Hash (bytes32) │      │          2 │ Output Root (bytes32)  │      │          3 │ Root Claim (bytes32)   │      │          4 │ L2 Block Number (u64)  │      │          5 │ Chain ID (u64)         │      └────────────┴────────────────────────┘",
        "params": {
          "_ident": "The identifier of the local data.",
          "_localContext": "The local key context for the preimage oracle. Optionally, can be set as a constant                      if the caller only requires one set of local keys.",
          "_partOffset": "The offset of the local data part to write to the oracle.",
          "_size": "The number of bytes in `_word` to load.",
          "_word": "The local data word."
        }
      },
      "loadPrecompilePreimagePart(uint256,address,uint64,bytes)": {
        "params": {
          "_input": "The input to the precompile call.",
          "_partOffset": "The offset of the precompile result being loaded.",
          "_precompile": "The precompile address",
          "_requiredGas": "The gas required to fully execute an L1 precompile."
        }
      },
      "loadSha256PreimagePart(uint256,bytes)": {
        "params": {
          "_partOffset": "The offset of the preimage to read.",
          "_preimage": "The preimage data."
        }
      },
      "readPreimage(bytes32,uint256)": {
        "params": {
          "_key": "The key of the preimage to read.",
          "_offset": "The offset of the preimage to read."
        },
        "returns": {
          "datLen_": "The length of the preimage data.",
          "dat_": "The preimage data."
        }
      }
    },
    "stateVariables": {
      "version": {
        "custom:semver": "1.1.2-rc.1"
      }
    },
    "title": "PreimageOracle",
    "version": 1
  },
  "userdoc": {
    "errors": {
      "ActiveProposal()": [
        {
          "notice": "Thrown when the proposal has not matured past the challenge period."
        }
      ],
      "AlreadyFinalized()": [
        {
          "notice": "Thrown when the preimage proposal has already been finalized."
        }
      ],
      "AlreadyInitialized()": [
        {
          "notice": "Thrown when attempting to re-initialize an existing large preimage proposal."
        }
      ],
      "BadProposal()": [
        {
          "notice": "Thrown when attempting to finalize a proposal that has been challenged."
        }
      ],
      "BondTransferFailed()": [
        {
          "notice": "Thrown when a bond transfer fails."
        }
      ],
      "InsufficientBond()": [
        {
          "notice": "Thrown when an insufficient bond is provided for a large preimage proposal."
        }
      ],
      "InvalidInputSize()": [
        {
          "notice": "Thrown when a leaf with an invalid input size is added."
        }
      ],
      "InvalidPreimage()": [
        {
          "notice": "Thrown when the prestate preimage doesn't match the claimed preimage."
        }
      ],
      "InvalidProof()": [
        {
          "notice": "Thrown when a merkle proof fails to verify."
        }
      ],
      "NotEOA()": [
        {
          "notice": "Thrown when the caller of a function is not an EOA."
        }
      ],
      "NotInitialized()": [
        {
          "notice": "Thrown when attempting to add leaves to a preimage proposal that has not been initialized."
        }
      ],
      "PartOffsetOOB()": [
        {
          "notice": "Thrown when a passed part offset is out of bounds."
        }
      ],
      "PostStateMatches()": [
        {
          "notice": "Thrown when the permutation yields the expected result."
        }
      ],
      "StatesNotContiguous()": [
        {
          "notice": "Thrown when the pre and post states passed aren't contiguous."
        }
      ],
      "TreeSizeOverflow()": [
        {
          "notice": "Thrown when the preimage is too large to fit in the tree."
        }
      ],
      "WrongStartingBlock()": [
        {
          "notice": "Thrown when data is submitted out of order in a large preimage proposal."
        }
      ]
    },
    "kind": "user",
    "methods": {
      "KECCAK_TREE_DEPTH()": {
        "notice": "The depth of the keccak256 merkle tree. Supports up to 65,536 keccak blocks, or ~8.91MB preimages."
      },
      "MAX_LEAF_COUNT()": {
        "notice": "The maximum number of keccak blocks that can fit into the merkle tree."
      },
      "MIN_BOND_SIZE()": {
        "notice": "The minimum bond size for large preimage proposals."
      },
      "PRECOMPILE_CALL_RESERVED_GAS()": {
        "notice": "The reserved gas for precompile call setup."
      },
      "addLeavesLPP(uint256,uint256,bytes,bytes32[],bool)": {
        "notice": "Adds a contiguous list of keccak state matrices to the merkle tree."
      },
      "challengeFirstLPP(address,uint256,(bytes,uint256,bytes32),bytes32[])": {
        "notice": "Challenge the first keccak256 block that was absorbed."
      },
      "challengeLPP(address,uint256,(uint64[25]),(bytes,uint256,bytes32),bytes32[],(bytes,uint256,bytes32),bytes32[])": {
        "notice": "Challenge a keccak256 block that was committed to in the merkle tree."
      },
      "challengePeriod()": {
        "notice": "Returns the length of the large preimage proposal challenge period."
      },
      "getTreeRootLPP(address,uint256)": {
        "notice": "Gets the current merkle root of the large preimage proposal tree."
      },
      "initLPP(uint256,uint32,uint32)": {
        "notice": "Initialize a large preimage proposal. Must be called before adding any leaves."
      },
      "loadKeccak256PreimagePart(uint256,bytes)": {
        "notice": "Prepares a preimage to be read by keccak256 key, starting at the given offset and up to 32 bytes         (clipped at preimage length, if out of data)."
      },
      "loadLocalData(uint256,bytes32,bytes32,uint256,uint256)": {
        "notice": "Loads of local data part into the preimage oracle."
      },
      "loadPrecompilePreimagePart(uint256,address,uint64,bytes)": {
        "notice": "Prepares a precompile result to be read by a precompile key for the specified offset.         The precompile result data is a concatenation of the precompile call status byte and its return data.         The preimage key is `6 ++ keccak256(precompile ++ input)[1:]`."
      },
      "loadSha256PreimagePart(uint256,bytes)": {
        "notice": "Prepares a preimage to be read by sha256 key, starting at the given offset and up to 32 bytes         (clipped at preimage length, if out of data)."
      },
      "minProposalSize()": {
        "notice": "Returns the minimum size (in bytes) of a large preimage proposal."
      },
      "preimageLengths(bytes32)": {
        "notice": "Mapping of pre-image keys to pre-image lengths."
      },
      "preimagePartOk(bytes32,uint256)": {
        "notice": "Mapping of pre-image keys to pre-image part offsets to preimage preparedness."
      },
      "preimageParts(bytes32,uint256)": {
        "notice": "Mapping of pre-image keys to pre-image offsets to pre-image parts."
      },
      "proposalBlocks(address,uint256,uint256)": {
        "notice": "Mapping of claimants to proposal UUIDs to blocks which leaves were added to the merkle tree."
      },
      "proposalBlocksLen(address,uint256)": {
        "notice": "Returns the length of the array with the block numbers of `addLeavesLPP` calls for a given large         preimage proposal."
      },
      "proposalBonds(address,uint256)": {
        "notice": "Mapping of claimants to proposal UUIDs to bond amounts."
      },
      "proposalBranches(address,uint256,uint256)": {
        "notice": "Mapping of claimants to proposal UUIDs to the current branch path of the merkleization process."
      },
      "proposalCount()": {
        "notice": "Returns the length of the `proposals` array"
      },
      "proposalMetadata(address,uint256)": {
        "notice": "Mapping of claimants to proposal UUIDs to the timestamp of creation of the proposal as well as the challenged status."
      },
      "proposalParts(address,uint256)": {
        "notice": "Mapping of claimants to proposal UUIDs to the preimage part picked up during the absorbtion process."
      },
      "proposals(uint256)": {
        "notice": "Append-only array of large preimage proposals for off-chain reference."
      },
      "readPreimage(bytes32,uint256)": {
        "notice": "Reads a preimage from the oracle."
      },
      "squeezeLPP(address,uint256,(uint64[25]),(bytes,uint256,bytes32),bytes32[],(bytes,uint256,bytes32),bytes32[])": {
        "notice": "Finalize a large preimage proposal after the challenge period has passed."
      },
      "version()": {
        "notice": "The semantic version of the Preimage Oracle contract."
      },
      "zeroHashes(uint256)": {
        "notice": "Static padding hashes. These values are persisted in storage, but are entirely immutable         after the constructor's execution."
      }
    },
    "notice": "A contract for storing permissioned pre-images.",
    "version": 1
  },
  "storageLayout": {
    "storage": [
      {
        "astId": 5466,
        "contract": "contracts/L1/cannon/PreimageOracle.sol:PreimageOracle",
        "label": "preimageLengths",
        "offset": 0,
        "slot": "0",
        "type": "t_mapping(t_bytes32,t_uint256)"
      },
      {
        "astId": 5473,
        "contract": "contracts/L1/cannon/PreimageOracle.sol:PreimageOracle",
        "label": "preimageParts",
        "offset": 0,
        "slot": "1",
        "type": "t_mapping(t_bytes32,t_mapping(t_uint256,t_bytes32))"
      },
      {
        "astId": 5480,
        "contract": "contracts/L1/cannon/PreimageOracle.sol:PreimageOracle",
        "label": "preimagePartOk",
        "offset": 0,
        "slot": "2",
        "type": "t_mapping(t_bytes32,t_mapping(t_uint256,t_bool))"
      },
      {
        "astId": 5502,
        "contract": "contracts/L1/cannon/PreimageOracle.sol:PreimageOracle",
        "label": "zeroHashes",
        "offset": 0,
        "slot": "3",
        "type": "t_array(t_bytes32)16_storage"
      },
      {
        "astId": 5507,
        "contract": "contracts/L1/cannon/PreimageOracle.sol:PreimageOracle",
        "label": "proposals",
        "offset": 0,
        "slot": "19",
        "type": "t_array(t_struct(LargePreimageProposalKeys)5497_storage)dyn_storage"
      },
      {
        "astId": 5516,
        "contract": "contracts/L1/cannon/PreimageOracle.sol:PreimageOracle",
        "label": "proposalBranches",
        "offset": 0,
        "slot": "20",
        "type": "t_mapping(t_address,t_mapping(t_uint256,t_array(t_bytes32)16_storage))"
      },
      {
        "astId": 5524,
        "contract": "contracts/L1/cannon/PreimageOracle.sol:PreimageOracle",
        "label": "proposalMetadata",
        "offset": 0,
        "slot": "21",
        "type": "t_mapping(t_address,t_mapping(t_uint256,t_userDefinedValueType(LPPMetaData)7116))"
      },
      {
        "astId": 5531,
        "contract": "contracts/L1/cannon/PreimageOracle.sol:PreimageOracle",
        "label": "proposalBonds",
        "offset": 0,
        "slot": "22",
        "type": "t_mapping(t_address,t_mapping(t_uint256,t_uint256))"
      },
      {
        "astId": 5538,
        "contract": "contracts/L1/cannon/PreimageOracle.sol:PreimageOracle",
        "label": "proposalParts",
        "offset": 0,
        "slot": "23",
        "type": "t_mapping(t_address,t_mapping(t_uint256,t_bytes32))"
      },
      {
        "astId": 5546,
        "contract": "contracts/L1/cannon/PreimageOracle.sol:PreimageOracle",
        "label": "proposalBlocks",
        "offset": 0,
        "slot": "24",
        "type": "t_mapping(t_address,t_mapping(t_uint256,t_array(t_uint64)dyn_storage))"
      }
    ],
    "types": {
      "t_address": {
        "encoding": "inplace",
        "label": "address",
        "numberOfBytes": "20"
      },
      "t_array(t_bytes32)16_storage": {
        "base": "t_bytes32",
        "encoding": "inplace",
        "label": "bytes32[16]",
        "numberOfBytes": "512"
      },
      "t_array(t_struct(LargePreimageProposalKeys)5497_storage)dyn_storage": {
        "base": "t_struct(LargePreimageProposalKeys)5497_storage",
        "encoding": "dynamic_array",
        "label": "struct PreimageOracle.LargePreimageProposalKeys[]",
        "numberOfBytes": "32"
      },
      "t_array(t_uint64)dyn_storage": {
        "base": "t_uint64",
        "encoding": "dynamic_array",
        "label": "uint64[]",
        "numberOfBytes": "32"
      },
      "t_bool": {
        "encoding": "inplace",
        "label": "bool",
        "numberOfBytes": "1"
      },
      "t_bytes32": {
        "encoding": "inplace",
        "label": "bytes32",
        "numberOfBytes": "32"
      },
      "t_mapping(t_address,t_mapping(t_uint256,t_array(t_bytes32)16_storage))": {
        "encoding": "mapping",
        "key": "t_address",
        "label": "mapping(address => mapping(uint256 => bytes32[16]))",
        "numberOfBytes": "32",
        "value": "t_mapping(t_uint256,t_array(t_bytes32)16_storage)"
      },
      "t_mapping(t_address,t_mapping(t_uint256,t_array(t_uint64)dyn_storage))": {
        "encoding": "mapping",
        "key": "t_address",
        "label": "mapping(address => mapping(uint256 => uint64[]))",
        "numberOfBytes": "32",
        "value": "t_mapping(t_uint256,t_array(t_uint64)dyn_storage)"
      },
      "t_mapping(t_address,t_mapping(t_uint256,t_bytes32))": {
        "encoding": "mapping",
        "key": "t_address",
        "label": "mapping(address => mapping(uint256 => bytes32))",
        "numberOfBytes": "32",
        "value": "t_mapping(t_uint256,t_bytes32)"
      },
      "t_mapping(t_address,t_mapping(t_uint256,t_uint256))": {
        "encoding": "mapping",
        "key": "t_address",
        "label": "mapping(address => mapping(uint256 => uint256))",
        "numberOfBytes": "32",
        "value": "t_mapping(t_uint256,t_uint256)"
      },
      "t_mapping(t_address,t_mapping(t_uint256,t_userDefinedValueType(LPPMetaData)7116))": {
        "encoding": "mapping",
        "key": "t_address",
        "label": "mapping(address => mapping(uint256 => LPPMetaData))",
        "numberOfBytes": "32",
        "value": "t_mapping(t_uint256,t_userDefinedValueType(LPPMetaData)7116)"
      },
      "t_mapping(t_bytes32,t_mapping(t_uint256,t_bool))": {
        "encoding": "mapping",
        "key": "t_bytes32",
        "label": "mapping(bytes32 => mapping(uint256 => bool))",
        "numberOfBytes": "32",
        "value": "t_mapping(t_uint256,t_bool)"
      },
      "t_mapping(t_bytes32,t_mapping(t_uint256,t_bytes32))": {
        "encoding": "mapping",
        "key": "t_bytes32",
        "label": "mapping(bytes32 => mapping(uint256 => bytes32))",
        "numberOfBytes": "32",
        "value": "t_mapping(t_uint256,t_bytes32)"
      },
      "t_mapping(t_bytes32,t_uint256)": {
        "encoding": "mapping",
        "key": "t_bytes32",
        "label": "mapping(bytes32 => uint256)",
        "numberOfBytes": "32",
        "value": "t_uint256"
      },
      "t_mapping(t_uint256,t_array(t_bytes32)16_storage)": {
        "encoding": "mapping",
        "key": "t_uint256",
        "label": "mapping(uint256 => bytes32[16])",
        "numberOfBytes": "32",
        "value": "t_array(t_bytes32)16_storage"
      },
      "t_mapping(t_uint256,t_array(t_uint64)dyn_storage)": {
        "encoding": "mapping",
        "key": "t_uint256",
        "label": "mapping(uint256 => uint64[])",
        "numberOfBytes": "32",
        "value": "t_array(t_uint64)dyn_storage"
      },
      "t_mapping(t_uint256,t_bool)": {
        "encoding": "mapping",
        "key": "t_uint256",
        "label": "mapping(uint256 => bool)",
        "numberOfBytes": "32",
        "value": "t_bool"
      },
      "t_mapping(t_uint256,t_bytes32)": {
        "encoding": "mapping",
        "key": "t_uint256",
        "label": "mapping(uint256 => bytes32)",
        "numberOfBytes": "32",
        "value": "t_bytes32"
      },
      "t_mapping(t_uint256,t_uint256)": {
        "encoding": "mapping",
        "key": "t_uint256",
        "label": "mapping(uint256 => uint256)",
        "numberOfBytes": "32",
        "value": "t_uint256"
      },
      "t_mapping(t_uint256,t_userDefinedValueType(LPPMetaData)7116)": {
        "encoding": "mapping",
        "key": "t_uint256",
        "label": "mapping(uint256 => LPPMetaData)",
        "numberOfBytes": "32",
        "value": "t_userDefinedValueType(LPPMetaData)7116"
      },
      "t_struct(LargePreimageProposalKeys)5497_storage": {
        "encoding": "inplace",
        "label": "struct PreimageOracle.LargePreimageProposalKeys",
        "members": [
          {
            "astId": 5493,
            "contract": "contracts/L1/cannon/PreimageOracle.sol:PreimageOracle",
            "label": "claimant",
            "offset": 0,
            "slot": "0",
            "type": "t_address"
          },
          {
            "astId": 5496,
            "contract": "contracts/L1/cannon/PreimageOracle.sol:PreimageOracle",
            "label": "uuid",
            "offset": 0,
            "slot": "1",
            "type": "t_uint256"
          }
        ],
        "numberOfBytes": "64"
      },
      "t_uint256": {
        "encoding": "inplace",
        "label": "uint256",
        "numberOfBytes": "32"
      },
      "t_uint64": {
        "encoding": "inplace",
        "label": "uint64",
        "numberOfBytes": "8"
      },
      "t_userDefinedValueType(LPPMetaData)7116": {
        "encoding": "inplace",
        "label": "LPPMetaData",
        "numberOfBytes": "32"
      }
    }
  }
}