{
  "address": "0x321cB848868051ae49E8857b4f81fa0DE1D46Ae2",
  "abi": [
    {
      "inputs": [
        {
          "internalType": "uint256",
          "name": "_minProposalSize",
          "type": "uint256"
        },
        {
          "internalType": "uint256",
          "name": "_challengePeriod",
          "type": "uint256"
        }
      ],
      "stateMutability": "nonpayable",
      "type": "constructor"
    },
    {
      "inputs": [],
      "name": "ActiveProposal",
      "type": "error"
    },
    {
      "inputs": [],
      "name": "AlreadyFinalized",
      "type": "error"
    },
    {
      "inputs": [],
      "name": "AlreadyInitialized",
      "type": "error"
    },
    {
      "inputs": [],
      "name": "BadProposal",
      "type": "error"
    },
    {
      "inputs": [],
      "name": "BondTransferFailed",
      "type": "error"
    },
    {
      "inputs": [],
      "name": "InsufficientBond",
      "type": "error"
    },
    {
      "inputs": [],
      "name": "InvalidInputSize",
      "type": "error"
    },
    {
      "inputs": [],
      "name": "InvalidPreimage",
      "type": "error"
    },
    {
      "inputs": [],
      "name": "InvalidProof",
      "type": "error"
    },
    {
      "inputs": [],
      "name": "NotEOA",
      "type": "error"
    },
    {
      "inputs": [],
      "name": "NotInitialized",
      "type": "error"
    },
    {
      "inputs": [],
      "name": "PartOffsetOOB",
      "type": "error"
    },
    {
      "inputs": [],
      "name": "PostStateMatches",
      "type": "error"
    },
    {
      "inputs": [],
      "name": "StatesNotContiguous",
      "type": "error"
    },
    {
      "inputs": [],
      "name": "TreeSizeOverflow",
      "type": "error"
    },
    {
      "inputs": [],
      "name": "WrongStartingBlock",
      "type": "error"
    },
    {
      "inputs": [],
      "name": "KECCAK_TREE_DEPTH",
      "outputs": [
        {
          "internalType": "uint256",
          "name": "",
          "type": "uint256"
        }
      ],
      "stateMutability": "view",
      "type": "function"
    },
    {
      "inputs": [],
      "name": "MAX_LEAF_COUNT",
      "outputs": [
        {
          "internalType": "uint256",
          "name": "",
          "type": "uint256"
        }
      ],
      "stateMutability": "view",
      "type": "function"
    },
    {
      "inputs": [],
      "name": "MIN_BOND_SIZE",
      "outputs": [
        {
          "internalType": "uint256",
          "name": "",
          "type": "uint256"
        }
      ],
      "stateMutability": "view",
      "type": "function"
    },
    {
      "inputs": [],
      "name": "PRECOMPILE_CALL_RESERVED_GAS",
      "outputs": [
        {
          "internalType": "uint256",
          "name": "",
          "type": "uint256"
        }
      ],
      "stateMutability": "view",
      "type": "function"
    },
    {
      "inputs": [
        {
          "internalType": "uint256",
          "name": "_uuid",
          "type": "uint256"
        },
        {
          "internalType": "uint256",
          "name": "_inputStartBlock",
          "type": "uint256"
        },
        {
          "internalType": "bytes",
          "name": "_input",
          "type": "bytes"
        },
        {
          "internalType": "bytes32[]",
          "name": "_stateCommitments",
          "type": "bytes32[]"
        },
        {
          "internalType": "bool",
          "name": "_finalize",
          "type": "bool"
        }
      ],
      "name": "addLeavesLPP",
      "outputs": [],
      "stateMutability": "nonpayable",
      "type": "function"
    },
    {
      "inputs": [
        {
          "internalType": "address",
          "name": "_claimant",
          "type": "address"
        },
        {
          "internalType": "uint256",
          "name": "_uuid",
          "type": "uint256"
        },
        {
          "components": [
            {
              "internalType": "bytes",
              "name": "input",
              "type": "bytes"
            },
            {
              "internalType": "uint256",
              "name": "index",
              "type": "uint256"
            },
            {
              "internalType": "bytes32",
              "name": "stateCommitment",
              "type": "bytes32"
            }
          ],
          "internalType": "struct PreimageOracle.Leaf",
          "name": "_postState",
          "type": "tuple"
        },
        {
          "internalType": "bytes32[]",
          "name": "_postStateProof",
          "type": "bytes32[]"
        }
      ],
      "name": "challengeFirstLPP",
      "outputs": [],
      "stateMutability": "nonpayable",
      "type": "function"
    },
    {
      "inputs": [
        {
          "internalType": "address",
          "name": "_claimant",
          "type": "address"
        },
        {
          "internalType": "uint256",
          "name": "_uuid",
          "type": "uint256"
        },
        {
          "components": [
            {
              "internalType": "uint64[25]",
              "name": "state",
              "type": "uint64[25]"
            }
          ],
          "internalType": "struct LibKeccak.StateMatrix",
          "name": "_stateMatrix",
          "type": "tuple"
        },
        {
          "components": [
            {
              "internalType": "bytes",
              "name": "input",
              "type": "bytes"
            },
            {
              "internalType": "uint256",
              "name": "index",
              "type": "uint256"
            },
            {
              "internalType": "bytes32",
              "name": "stateCommitment",
              "type": "bytes32"
            }
          ],
          "internalType": "struct PreimageOracle.Leaf",
          "name": "_preState",
          "type": "tuple"
        },
        {
          "internalType": "bytes32[]",
          "name": "_preStateProof",
          "type": "bytes32[]"
        },
        {
          "components": [
            {
              "internalType": "bytes",
              "name": "input",
              "type": "bytes"
            },
            {
              "internalType": "uint256",
              "name": "index",
              "type": "uint256"
            },
            {
              "internalType": "bytes32",
              "name": "stateCommitment",
              "type": "bytes32"
            }
          ],
          "internalType": "struct PreimageOracle.Leaf",
          "name": "_postState",
          "type": "tuple"
        },
        {
          "internalType": "bytes32[]",
          "name": "_postStateProof",
          "type": "bytes32[]"
        }
      ],
      "name": "challengeLPP",
      "outputs": [],
      "stateMutability": "nonpayable",
      "type": "function"
    },
    {
      "inputs": [],
      "name": "challengePeriod",
      "outputs": [
        {
          "internalType": "uint256",
          "name": "challengePeriod_",
          "type": "uint256"
        }
      ],
      "stateMutability": "view",
      "type": "function"
    },
    {
      "inputs": [
        {
          "internalType": "address",
          "name": "_owner",
          "type": "address"
        },
        {
          "internalType": "uint256",
          "name": "_uuid",
          "type": "uint256"
        }
      ],
      "name": "getTreeRootLPP",
      "outputs": [
        {
          "internalType": "bytes32",
          "name": "treeRoot_",
          "type": "bytes32"
        }
      ],
      "stateMutability": "view",
      "type": "function"
    },
    {
      "inputs": [
        {
          "internalType": "uint256",
          "name": "_uuid",
          "type": "uint256"
        },
        {
          "internalType": "uint32",
          "name": "_partOffset",
          "type": "uint32"
        },
        {
          "internalType": "uint32",
          "name": "_claimedSize",
          "type": "uint32"
        }
      ],
      "name": "initLPP",
      "outputs": [],
      "stateMutability": "payable",
      "type": "function"
    },
    {
      "inputs": [
        {
          "internalType": "uint256",
          "name": "_z",
          "type": "uint256"
        },
        {
          "internalType": "uint256",
          "name": "_y",
          "type": "uint256"
        },
        {
          "internalType": "bytes",
          "name": "_commitment",
          "type": "bytes"
        },
        {
          "internalType": "bytes",
          "name": "_proof",
          "type": "bytes"
        },
        {
          "internalType": "uint256",
          "name": "_partOffset",
          "type": "uint256"
        }
      ],
      "name": "loadBlobPreimagePart",
      "outputs": [],
      "stateMutability": "nonpayable",
      "type": "function"
    },
    {
      "inputs": [
        {
          "internalType": "uint256",
          "name": "_partOffset",
          "type": "uint256"
        },
        {
          "internalType": "bytes",
          "name": "_preimage",
          "type": "bytes"
        }
      ],
      "name": "loadKeccak256PreimagePart",
      "outputs": [],
      "stateMutability": "nonpayable",
      "type": "function"
    },
    {
      "inputs": [
        {
          "internalType": "uint256",
          "name": "_ident",
          "type": "uint256"
        },
        {
          "internalType": "bytes32",
          "name": "_localContext",
          "type": "bytes32"
        },
        {
          "internalType": "bytes32",
          "name": "_word",
          "type": "bytes32"
        },
        {
          "internalType": "uint256",
          "name": "_size",
          "type": "uint256"
        },
        {
          "internalType": "uint256",
          "name": "_partOffset",
          "type": "uint256"
        }
      ],
      "name": "loadLocalData",
      "outputs": [
        {
          "internalType": "bytes32",
          "name": "key_",
          "type": "bytes32"
        }
      ],
      "stateMutability": "nonpayable",
      "type": "function"
    },
    {
      "inputs": [
        {
          "internalType": "uint256",
          "name": "_partOffset",
          "type": "uint256"
        },
        {
          "internalType": "address",
          "name": "_precompile",
          "type": "address"
        },
        {
          "internalType": "uint64",
          "name": "_requiredGas",
          "type": "uint64"
        },
        {
          "internalType": "bytes",
          "name": "_input",
          "type": "bytes"
        }
      ],
      "name": "loadPrecompilePreimagePart",
      "outputs": [],
      "stateMutability": "nonpayable",
      "type": "function"
    },
    {
      "inputs": [
        {
          "internalType": "uint256",
          "name": "_partOffset",
          "type": "uint256"
        },
        {
          "internalType": "bytes",
          "name": "_preimage",
          "type": "bytes"
        }
      ],
      "name": "loadSha256PreimagePart",
      "outputs": [],
      "stateMutability": "nonpayable",
      "type": "function"
    },
    {
      "inputs": [],
      "name": "minProposalSize",
      "outputs": [
        {
          "internalType": "uint256",
          "name": "minProposalSize_",
          "type": "uint256"
        }
      ],
      "stateMutability": "view",
      "type": "function"
    },
    {
      "inputs": [
        {
          "internalType": "bytes32",
          "name": "",
          "type": "bytes32"
        }
      ],
      "name": "preimageLengths",
      "outputs": [
        {
          "internalType": "uint256",
          "name": "",
          "type": "uint256"
        }
      ],
      "stateMutability": "view",
      "type": "function"
    },
    {
      "inputs": [
        {
          "internalType": "bytes32",
          "name": "",
          "type": "bytes32"
        },
        {
          "internalType": "uint256",
          "name": "",
          "type": "uint256"
        }
      ],
      "name": "preimagePartOk",
      "outputs": [
        {
          "internalType": "bool",
          "name": "",
          "type": "bool"
        }
      ],
      "stateMutability": "view",
      "type": "function"
    },
    {
      "inputs": [
        {
          "internalType": "bytes32",
          "name": "",
          "type": "bytes32"
        },
        {
          "internalType": "uint256",
          "name": "",
          "type": "uint256"
        }
      ],
      "name": "preimageParts",
      "outputs": [
        {
          "internalType": "bytes32",
          "name": "",
          "type": "bytes32"
        }
      ],
      "stateMutability": "view",
      "type": "function"
    },
    {
      "inputs": [
        {
          "internalType": "address",
          "name": "",
          "type": "address"
        },
        {
          "internalType": "uint256",
          "name": "",
          "type": "uint256"
        },
        {
          "internalType": "uint256",
          "name": "",
          "type": "uint256"
        }
      ],
      "name": "proposalBlocks",
      "outputs": [
        {
          "internalType": "uint64",
          "name": "",
          "type": "uint64"
        }
      ],
      "stateMutability": "view",
      "type": "function"
    },
    {
      "inputs": [
        {
          "internalType": "address",
          "name": "_claimant",
          "type": "address"
        },
        {
          "internalType": "uint256",
          "name": "_uuid",
          "type": "uint256"
        }
      ],
      "name": "proposalBlocksLen",
      "outputs": [
        {
          "internalType": "uint256",
          "name": "len_",
          "type": "uint256"
        }
      ],
      "stateMutability": "view",
      "type": "function"
    },
    {
      "inputs": [
        {
          "internalType": "address",
          "name": "",
          "type": "address"
        },
        {
          "internalType": "uint256",
          "name": "",
          "type": "uint256"
        }
      ],
      "name": "proposalBonds",
      "outputs": [
        {
          "internalType": "uint256",
          "name": "",
          "type": "uint256"
        }
      ],
      "stateMutability": "view",
      "type": "function"
    },
    {
      "inputs": [
        {
          "internalType": "address",
          "name": "",
          "type": "address"
        },
        {
          "internalType": "uint256",
          "name": "",
          "type": "uint256"
        },
        {
          "internalType": "uint256",
          "name": "",
          "type": "uint256"
        }
      ],
      "name": "proposalBranches",
      "outputs": [
        {
          "internalType": "bytes32",
          "name": "",
          "type": "bytes32"
        }
      ],
      "stateMutability": "view",
      "type": "function"
    },
    {
      "inputs": [],
      "name": "proposalCount",
      "outputs": [
        {
          "internalType": "uint256",
          "name": "count_",
          "type": "uint256"
        }
      ],
      "stateMutability": "view",
      "type": "function"
    },
    {
      "inputs": [
        {
          "internalType": "address",
          "name": "",
          "type": "address"
        },
        {
          "internalType": "uint256",
          "name": "",
          "type": "uint256"
        }
      ],
      "name": "proposalMetadata",
      "outputs": [
        {
          "internalType": "LPPMetaData",
          "name": "",
          "type": "bytes32"
        }
      ],
      "stateMutability": "view",
      "type": "function"
    },
    {
      "inputs": [
        {
          "internalType": "address",
          "name": "",
          "type": "address"
        },
        {
          "internalType": "uint256",
          "name": "",
          "type": "uint256"
        }
      ],
      "name": "proposalParts",
      "outputs": [
        {
          "internalType": "bytes32",
          "name": "",
          "type": "bytes32"
        }
      ],
      "stateMutability": "view",
      "type": "function"
    },
    {
      "inputs": [
        {
          "internalType": "uint256",
          "name": "",
          "type": "uint256"
        }
      ],
      "name": "proposals",
      "outputs": [
        {
          "internalType": "address",
          "name": "claimant",
          "type": "address"
        },
        {
          "internalType": "uint256",
          "name": "uuid",
          "type": "uint256"
        }
      ],
      "stateMutability": "view",
      "type": "function"
    },
    {
      "inputs": [
        {
          "internalType": "bytes32",
          "name": "_key",
          "type": "bytes32"
        },
        {
          "internalType": "uint256",
          "name": "_offset",
          "type": "uint256"
        }
      ],
      "name": "readPreimage",
      "outputs": [
        {
          "internalType": "bytes32",
          "name": "dat_",
          "type": "bytes32"
        },
        {
          "internalType": "uint256",
          "name": "datLen_",
          "type": "uint256"
        }
      ],
      "stateMutability": "view",
      "type": "function"
    },
    {
      "inputs": [
        {
          "internalType": "address",
          "name": "_claimant",
          "type": "address"
        },
        {
          "internalType": "uint256",
          "name": "_uuid",
          "type": "uint256"
        },
        {
          "components": [
            {
              "internalType": "uint64[25]",
              "name": "state",
              "type": "uint64[25]"
            }
          ],
          "internalType": "struct LibKeccak.StateMatrix",
          "name": "_stateMatrix",
          "type": "tuple"
        },
        {
          "components": [
            {
              "internalType": "bytes",
              "name": "input",
              "type": "bytes"
            },
            {
              "internalType": "uint256",
              "name": "index",
              "type": "uint256"
            },
            {
              "internalType": "bytes32",
              "name": "stateCommitment",
              "type": "bytes32"
            }
          ],
          "internalType": "struct PreimageOracle.Leaf",
          "name": "_preState",
          "type": "tuple"
        },
        {
          "internalType": "bytes32[]",
          "name": "_preStateProof",
          "type": "bytes32[]"
        },
        {
          "components": [
            {
              "internalType": "bytes",
              "name": "input",
              "type": "bytes"
            },
            {
              "internalType": "uint256",
              "name": "index",
              "type": "uint256"
            },
            {
              "internalType": "bytes32",
              "name": "stateCommitment",
              "type": "bytes32"
            }
          ],
          "internalType": "struct PreimageOracle.Leaf",
          "name": "_postState",
          "type": "tuple"
        },
        {
          "internalType": "bytes32[]",
          "name": "_postStateProof",
          "type": "bytes32[]"
        }
      ],
      "name": "squeezeLPP",
      "outputs": [],
      "stateMutability": "nonpayable",
      "type": "function"
    },
    {
      "inputs": [],
      "name": "version",
      "outputs": [
        {
          "internalType": "string",
          "name": "",
          "type": "string"
        }
      ],
      "stateMutability": "view",
      "type": "function"
    },
    {
      "inputs": [
        {
          "internalType": "uint256",
          "name": "",
          "type": "uint256"
        }
      ],
      "name": "zeroHashes",
      "outputs": [
        {
          "internalType": "bytes32",
          "name": "",
          "type": "bytes32"
        }
      ],
      "stateMutability": "view",
      "type": "function"
    }
  ],
  "transactionHash": "0xe0d8d3998f865461b9f7c7fe8fbb97e6ca75747b794688d0b1ecf4f038908a46",
  "args": [
    126000,
    86400
  ],
  "numDeployments": 1,
  "solcInputHash": "d4ef876c21b9fffbee7cb8c376509b73",
  "bytecode": "0x60c06040523480156200001157600080fd5b5060405162003a3f38038062003a3f83398101604081905262000034916200014f565b60a082905260808190526001600160401b038111156200009a5760405162461bcd60e51b815260206004820152601a60248201527f6368616c6c656e676520706572696f6420746f6f206c61726765000000000000604482015260640160405180910390fd5b60005b620000ab600160106200018a565b811015620001465760038160108110620000c957620000c9620001a4565b015460038260108110620000e157620000e1620001a4565b01546040805160208101939093528201526060016040516020818303038152906040528051906020012060038260016200011c9190620001ba565b601081106200012f576200012f620001a4565b0155806200013d81620001d5565b9150506200009d565b505050620001f1565b600080604083850312156200016357600080fd5b505080516020909101519092909150565b634e487b7160e01b600052601160045260246000fd5b6000828210156200019f576200019f62000174565b500390565b634e487b7160e01b600052603260045260246000fd5b60008219821115620001d057620001d062000174565b500190565b600060018201620001ea57620001ea62000174565b5060010190565b60805160a05161381a62000225600039600081816105b00152611d540152600081816106b00152611499015261381a6000f3fe6080604052600436106101d85760003560e01c80639d53a64811610102578063ddcd58de11610095578063ec5efcbc11610064578063ec5efcbc14610681578063f3f480d9146106a1578063faf37bc7146106d4578063fef2b4ed146106e757600080fd5b8063ddcd58de146105d4578063e03110e11461060c578063e159261114610641578063ea7139501461066157600080fd5b8063b5e7154c116100d1578063b5e7154c14610555578063d18534b51461056c578063da35c6641461058c578063dd24f9bf146105a157600080fd5b80639d53a6481461048e5780639d7e8769146104dd578063b2e67ba8146104fd578063b4801e611461053557600080fd5b806361238bde1161017a5780637ac54767116101495780637ac54767146103ca5780638542cf50146103ea578063882856ef146104355780638dc4be111461046e57600080fd5b806361238bde1461031e5780636551927b146103565780637051472e1461038e5780637917de1d146103aa57600080fd5b80633909af5c116101b65780633909af5c146102715780634d52b4c91461029357806352f0f3ad146102a857806354fd4d50146102c857600080fd5b8063013cf08b146101dd5780630359a5631461022e5780632055b36b1461025c575b600080fd5b3480156101e957600080fd5b506101fd6101f8366004612d93565b610714565b6040805173ffffffffffffffffffffffffffffffffffffffff90931683526020830191909152015b60405180910390f35b34801561023a57600080fd5b5061024e610249366004612dd5565b610759565b604051908152602001610225565b34801561026857600080fd5b5061024e601081565b34801561027d57600080fd5b5061029161028c366004612fbf565b610891565b005b34801561029f57600080fd5b5061024e610ae8565b3480156102b457600080fd5b5061024e6102c33660046130ab565b610b03565b3480156102d457600080fd5b506103116040518060400160405280600a81526020017f312e312e322d72632e310000000000000000000000000000000000000000000081525081565b6040516102259190613112565b34801561032a57600080fd5b5061024e610339366004613145565b600160209081526000928352604080842090915290825290205481565b34801561036257600080fd5b5061024e610371366004612dd5565b601560209081526000928352604080842090915290825290205481565b34801561039a57600080fd5b5061024e6703782dace9d9000081565b3480156103b657600080fd5b506102916103c53660046131a9565b610bbb565b3480156103d657600080fd5b5061024e6103e5366004612d93565b6110be565b3480156103f657600080fd5b50610425610405366004613145565b600260209081526000928352604080842090915290825290205460ff1681565b6040519015158152602001610225565b34801561044157600080fd5b50610455610450366004613245565b6110d5565b60405167ffffffffffffffff9091168152602001610225565b34801561047a57600080fd5b50610291610489366004613278565b61112f565b34801561049a57600080fd5b5061024e6104a9366004612dd5565b73ffffffffffffffffffffffffffffffffffffffff9091166000908152601860209081526040808320938352929052205490565b3480156104e957600080fd5b506102916104f83660046132c4565b61120c565b34801561050957600080fd5b5061024e610518366004612dd5565b601760209081526000928352604080842090915290825290205481565b34801561054157600080fd5b5061024e610550366004613245565b6113a5565b34801561056157600080fd5b5061024e620186a081565b34801561057857600080fd5b50610291610587366004612fbf565b6113d7565b34801561059857600080fd5b5060135461024e565b3480156105ad57600080fd5b507f000000000000000000000000000000000000000000000000000000000000000061024e565b3480156105e057600080fd5b5061024e6105ef366004612dd5565b601660209081526000928352604080842090915290825290205481565b34801561061857600080fd5b5061062c610627366004613145565b6117e6565b60408051928352602083019190915201610225565b34801561064d57600080fd5b5061029161065c366004613278565b6118d7565b34801561066d57600080fd5b5061029161067c366004613350565b6119c1565b34801561068d57600080fd5b5061029161069c3660046133bf565b611b02565b3480156106ad57600080fd5b507f000000000000000000000000000000000000000000000000000000000000000061024e565b6102916106e2366004613447565b611c88565b3480156106f357600080fd5b5061024e610702366004612d93565b60006020819052908152604090205481565b6013818154811061072457600080fd5b60009182526020909120600290910201805460019091015473ffffffffffffffffffffffffffffffffffffffff909116915082565b73ffffffffffffffffffffffffffffffffffffffff82166000908152601560209081526040808320848452909152812054819061079c9060601c63ffffffff1690565b63ffffffff16905060005b6010811015610889578160011660010361082f5773ffffffffffffffffffffffffffffffffffffffff85166000908152601460209081526040808320878452909152902081601081106107fc576107fc613483565b01546040805160208101929092528101849052606001604051602081830303815290604052805190602001209250610870565b826003826010811061084357610843613483565b01546040805160208101939093528201526060016040516020818303038152906040528051906020012092505b60019190911c9080610881816134e1565b9150506107a7565b505092915050565b600061089d8a8a610759565b90506108c086868360208b01356108bb6108b68d6134fb565b611f54565b611f94565b80156108de57506108de83838360208801356108bb6108b68a6134fb565b610914576040517f09bde33900000000000000000000000000000000000000000000000000000000815260040160405180910390fd5b86604001358860405160200161092a91906135ac565b6040516020818303038152906040528051906020012014610977576040517f1968a90200000000000000000000000000000000000000000000000000000000815260040160405180910390fd5b83602001358760200135600161098d91906135ea565b146109c4576040517f9a3b119900000000000000000000000000000000000000000000000000000000815260040160405180910390fd5b610a0c886109d28680613602565b8080601f016020809104026020016040519081016040528093929190818152602001838380828437600092019190915250611ff592505050565b610a1588612150565b836040013588604051602001610a2b91906135ac565b6040516020818303038152906040528051906020012003610a78576040517f9843145b00000000000000000000000000000000000000000000000000000000815260040160405180910390fd5b73ffffffffffffffffffffffffffffffffffffffff8a1660009081526015602090815260408083208c8452909152902080547fffffffffffffffffffffffffffffffffffffffffffffffff0000000000000000166001179055610adc8a8a336128f8565b50505050505050505050565b6001610af66010600261374d565b610b009190613759565b81565b6000610b0f86866129b1565b9050610b1c8360086135ea565b82101580610b2a5750602083115b15610b61576040517ffe25498700000000000000000000000000000000000000000000000000000000815260040160405180910390fd5b6000602081815260c085901b825260089590955282518282526002865260408083208584528752808320805460ff191660019081179091558484528752808320948352938652838220558181529384905292205592915050565b60608115610bd457610bcd8686612a5e565b9050610c0e565b85858080601f0160208091040260200160405190810160405280939291908181526020018383808284376000920191909152509293505050505b3360009081526014602090815260408083208b845290915280822081516102008101928390529160109082845b815481526020019060010190808311610c3b57505050505090506000601560003373ffffffffffffffffffffffffffffffffffffffff1673ffffffffffffffffffffffffffffffffffffffff16815260200190815260200160002060008b81526020019081526020016000205490506000610cbc8260601c63ffffffff1690565b63ffffffff169050333214610cfd576040517fba092d1600000000000000000000000000000000000000000000000000000000815260040160405180910390fd5b610d0d8260801c63ffffffff1690565b63ffffffff16600003610d4c576040517f87138d5c00000000000000000000000000000000000000000000000000000000815260040160405180910390fd5b610d568260c01c90565b67ffffffffffffffff1615610d97576040517f475a253500000000000000000000000000000000000000000000000000000000815260040160405180910390fd5b898114610dd0576040517f60f95d5a00000000000000000000000000000000000000000000000000000000815260040160405180910390fd5b610ddd89898d8886612ad7565b83516020850160888204881415608883061715610e02576307b1daf16000526004601cfd5b60405160c8810160405260005b83811015610eb2578083018051835260208101516020840152604081015160408401526060810151606084015260808101516080840152508460888301526088810460051b8b013560a883015260c882206001860195508560005b610200811015610ea7576001821615610e875782818b0152610ea7565b8981015160009081526020938452604090209260019290921c9101610e6a565b505050608801610e0f565b50505050600160106002610ec6919061374d565b610ed09190613759565b811115610f09576040517f6229572300000000000000000000000000000000000000000000000000000000815260040160405180910390fd5b610f7e610f1c8360401c63ffffffff1690565b610f2c9063ffffffff168a6135ea565b60401b7fffffffffffffffffffffffffffffffffffffffff00000000ffffffffffffffff606084901b167fffffffffffffffffffffffffffffffff0000000000000000ffffffffffffffff8516171790565b9150841561100b5777ffffffffffffffffffffffffffffffffffffffffffffffff82164260c01b179150610fb88260801c63ffffffff1690565b63ffffffff16610fce8360401c63ffffffff1690565b63ffffffff161461100b576040517f7b1dafd100000000000000000000000000000000000000000000000000000000815260040160405180910390fd5b3360009081526014602090815260408083208e8452909152902061103190846010612d09565b503360008181526018602090815260408083208f8452825280832080546001810182559084528284206004820401805460039092166008026101000a67ffffffffffffffff818102199093164390931602919091179055838352601582528083208f8452909152812084905560609190911b81523690601437366014016000a05050505050505050505050565b600381601081106110ce57600080fd5b0154905081565b601860205282600052604060002060205281600052604060002081815481106110fd57600080fd5b906000526020600020906004918282040191900660080292509250509054906101000a900467ffffffffffffffff1681565b60443560008060088301861061114d5763fe2549876000526004601cfd5b60c083901b60805260888386823786600882030151915060206000858360025afa90508061117a57600080fd5b50600080517effffffffffffffffffffffffffffffffffffffffffffffffffffffffffffff167f0400000000000000000000000000000000000000000000000000000000000000178082526002602090815260408084208a85528252808420805460ff191660019081179091558385528252808420998452988152888320939093558152908190529490942055505050565b600080603087600037602060006030600060025afa806112345763f91129696000526004601cfd5b6000517effffffffffffffffffffffffffffffffffffffffffffffffffffffffffffff167f010000000000000000000000000000000000000000000000000000000000000017608081815260a08c905260c08b905260308a60e037603088609083013760008060c083600a5afa9250826112b6576309bde3396000526004601cfd5b602886106112cc5763fe2549876000526004601cfd5b6000602882015278200000000000000000000000000000000000000000000000008152600881018b905285810151935060308a8237603081019b909b52505060509098207effffffffffffffffffffffffffffffffffffffffffffffffffffffffffffff167f05000000000000000000000000000000000000000000000000000000000000001760008181526002602090815260408083208684528252808320805460ff1916600190811790915584845282528083209583529481528482209a909a559081528089529190912096909655505050505050565b601460205282600052604060002060205281600052604060002081601081106113cd57600080fd5b0154925083915050565b73ffffffffffffffffffffffffffffffffffffffff891660009081526015602090815260408083208b845290915290205467ffffffffffffffff81161561144a576040517fc334f06900000000000000000000000000000000000000000000000000000000815260040160405180910390fd5b6114548160c01c90565b67ffffffffffffffff16600003611497576040517f55d4cbf900000000000000000000000000000000000000000000000000000000815260040160405180910390fd5b7f00000000000000000000000000000000000000000000000000000000000000006114c28260c01c90565b6114d69067ffffffffffffffff1642613759565b1161150d576040517f55d4cbf900000000000000000000000000000000000000000000000000000000815260040160405180910390fd5b60006115198b8b610759565b905061153287878360208c01356108bb6108b68e6134fb565b8015611550575061155084848360208901356108bb6108b68b6134fb565b611586576040517f09bde33900000000000000000000000000000000000000000000000000000000815260040160405180910390fd5b87604001358960405160200161159c91906135ac565b60405160208183030381529060405280519060200120146115e9576040517f1968a90200000000000000000000000000000000000000000000000000000000815260040160405180910390fd5b8460200135886020013560016115ff91906135ea565b141580611631575060016116198360601c63ffffffff1690565b6116239190613770565b63ffffffff16856020013514155b15611668576040517f9a3b119900000000000000000000000000000000000000000000000000000000815260040160405180910390fd5b611676896109d28780613602565b61167f89612150565b600061168a8a612c2a565b7effffffffffffffffffffffffffffffffffffffffffffffffffffffffffffff167f020000000000000000000000000000000000000000000000000000000000000017905060006116e18460a01c63ffffffff1690565b67ffffffffffffffff169050600160026000848152602001908152602001600020600083815260200190815260200160002060006101000a81548160ff021916908315150217905550601760008e73ffffffffffffffffffffffffffffffffffffffff1673ffffffffffffffffffffffffffffffffffffffff16815260200190815260200160002060008d815260200190815260200160002054600160008481526020019081526020016000206000838152602001908152602001600020819055506117b38460801c63ffffffff1690565b600083815260208190526040902063ffffffff9190911690556117d78d8d816128f8565b50505050505050505050505050565b6000828152600260209081526040808320848452909152812054819060ff1661186f576040517f08c379a000000000000000000000000000000000000000000000000000000000815260206004820152601460248201527f7072652d696d616765206d757374206578697374000000000000000000000000604482015260640160405180910390fd5b506000838152602081815260409091205461188b8160086135ea565b6118968560206135ea565b106118b457836118a78260086135ea565b6118b19190613759565b91505b506000938452600160209081526040808620948652939052919092205492909150565b6044356000806008830186106118f55763fe2549876000526004601cfd5b60c083901b6080526088838682378087017ffffffffffffffffffffffffffffffffffffffffffffffffffffffffffffffff80151908490207effffffffffffffffffffffffffffffffffffffffffffffffffffffffffffff167f02000000000000000000000000000000000000000000000000000000000000001760008181526002602090815260408083208b84528252808320805460ff1916600190811790915584845282528083209a83529981528982209390935590815290819052959095209190915550505050565b60008060008060808860601b81528760c01b6014820152858782601c0137601c860181207effffffffffffffffffffffffffffffffffffffffffffffffffffffffffffff167f0600000000000000000000000000000000000000000000000000000000000000179350604088026260216001603f5a021015611a4b5763dd629f866000526004601cfd5b6000808783601c018c5afa94503d6001019150600882018a10611a765763fe2549876000526004601cfd5b60c082901b81526008018481533d6000600183013e89017ffffffffffffffffffffffffffffffffffffffffffffffffffffffffffffffff8015160008481526002602090815260408083208d84528252808320805460ff1916600190811790915587845282528083209c83529b81528b8220929092559384528390529790912096909655505050505050565b6000611b0e8686610759565b9050611b2783838360208801356108bb6108b68a6134fb565b611b5d576040517f09bde33900000000000000000000000000000000000000000000000000000000815260040160405180910390fd5b602084013515611b99576040517f9a3b119900000000000000000000000000000000000000000000000000000000815260040160405180910390fd5b611ba1612d47565b611baf816109d28780613602565b611bb881612150565b846040013581604051602001611bce91906135ac565b6040516020818303038152906040528051906020012003611c1b576040517f9843145b00000000000000000000000000000000000000000000000000000000815260040160405180910390fd5b73ffffffffffffffffffffffffffffffffffffffff87166000908152601560209081526040808320898452909152902080547fffffffffffffffffffffffffffffffffffffffffffffffff0000000000000000166001179055611c7f8787336128f8565b50505050505050565b6703782dace9d90000341015611cca576040517fe92c469f00000000000000000000000000000000000000000000000000000000815260040160405180910390fd5b333214611d03576040517fba092d1600000000000000000000000000000000000000000000000000000000815260040160405180910390fd5b611d0e816008613795565b63ffffffff168263ffffffff1610611d52576040517ffe25498700000000000000000000000000000000000000000000000000000000815260040160405180910390fd5b7f00000000000000000000000000000000000000000000000000000000000000008163ffffffff161015611db2576040517f7b1dafd100000000000000000000000000000000000000000000000000000000815260040160405180910390fd5b336000908152601560209081526040808320868452909152902054611ddd8160801c63ffffffff1690565b63ffffffff1615611e1a576040517f0dc149f000000000000000000000000000000000000000000000000000000000815260040160405180910390fd5b608082901b7fffffffffffffffffffffffff00000000ffffffffffffffffffffffffffffffff60a085901b167fffffffffffffffff0000000000000000ffffffffffffffffffffffffffffffff83161717336000818152601560209081526040808320898452825280832094909455835180850185528381528082018981526013805460018101825590855291517f66de8ffda797e3de9c05e8fc57b3bf0ec28a930d40b0d285d93c06501cf6a090600290930292830180547fffffffffffffffffffffffff00000000000000000000000000000000000000001673ffffffffffffffffffffffffffffffffffffffff909216919091179055517f66de8ffda797e3de9c05e8fc57b3bf0ec28a930d40b0d285d93c06501cf6a0919091015591815260168252828120968152959052909320349055505050565b6000816000015182602001518360400151604051602001611f77939291906137bd565b604051602081830303815290604052805190602001209050919050565b60008160005b6010811015611fe8578060051b880135600186831c1660018114611fcd5760008481526020839052604090209350611fde565b600082815260208590526040902093505b5050600101611f9a565b5090931495945050505050565b608881511461200357600080fd5b6020810160208301612084565b8260031b8201518060001a8160011a60081b178160021a60101b8260031a60181b17178160041a60201b8260051a60281b178260061a60301b8360071a60381b171717905061207e81612069868560059190911b015190565b1867ffffffffffffffff16600586901b840152565b50505050565b61209060008383612010565b61209c60018383612010565b6120a860028383612010565b6120b460038383612010565b6120c060048383612010565b6120cc60058383612010565b6120d860068383612010565b6120e460078383612010565b6120f060088383612010565b6120fc60098383612010565b612108600a8383612010565b612114600b8383612010565b612120600c8383612010565b61212c600d8383612010565b612138600e8383612010565b612144600f8383612010565b61207e60108383612010565b6040805178010000000000008082800000000000808a8000000080008000602082015279808b00000000800000018000000080008081800000000000800991810191909152788a00000000000000880000000080008009000000008000000a60608201527b8000808b800000000000008b8000000000008089800000000000800360808201527f80000000000080028000000000000080000000000000800a800000008000000a60a08201527f800000008000808180000000000080800000000080000001800000008000800860c082015260009060e001604051602081830303815290604052905060208201602082016127d8565b6102808101516101e082015161014083015160a0840151845118189118186102a082015161020083015161016084015160c0850151602086015118189118186102c083015161022084015161018085015160e0860151604087015118189118186102e08401516102408501516101a0860151610100870151606088015118189118186103008501516102608601516101c0870151610120880151608089015118189118188084603f1c6123038660011b67ffffffffffffffff1690565b18188584603f1c61231e8660011b67ffffffffffffffff1690565b18188584603f1c6123398660011b67ffffffffffffffff1690565b181895508483603f1c6123568560011b67ffffffffffffffff1690565b181894508387603f1c6123738960011b67ffffffffffffffff1690565b60208b01518b51861867ffffffffffffffff168c5291189190911897508118600181901b603f9190911c18935060c08801518118601481901c602c9190911b1867ffffffffffffffff1660208901526101208801518718602c81901c60149190911b1867ffffffffffffffff1660c08901526102c08801518618600381901c603d9190911b1867ffffffffffffffff166101208901526101c08801518718601981901c60279190911b1867ffffffffffffffff166102c08901526102808801518218602e81901c60129190911b1867ffffffffffffffff166101c089015260408801518618600281901c603e9190911b1867ffffffffffffffff166102808901526101808801518618601581901c602b9190911b1867ffffffffffffffff1660408901526101a08801518518602781901c60199190911b1867ffffffffffffffff166101808901526102608801518718603881901c60089190911b1867ffffffffffffffff166101a08901526102e08801518518600881901c60389190911b1867ffffffffffffffff166102608901526101e08801518218601781901c60299190911b1867ffffffffffffffff166102e089015260808801518718602581901c601b9190911b1867ffffffffffffffff166101e08901526103008801518718603281901c600e9190911b1867ffffffffffffffff1660808901526102a08801518118603e81901c60029190911b1867ffffffffffffffff166103008901526101008801518518600981901c60379190911b1867ffffffffffffffff166102a08901526102008801518118601381901c602d9190911b1867ffffffffffffffff1661010089015260a08801518218601c81901c60249190911b1867ffffffffffffffff1661020089015260608801518518602481901c601c9190911b1867ffffffffffffffff1660a08901526102408801518518602b81901c60159190911b1867ffffffffffffffff1660608901526102208801518618603181901c600f9190911b1867ffffffffffffffff166102408901526101608801518118603681901c600a9190911b1867ffffffffffffffff166102208901525060e08701518518603a81901c60069190911b1867ffffffffffffffff166101608801526101408701518118603d81901c60039190911b1867ffffffffffffffff1660e0880152505067ffffffffffffffff81166101408601525b5050505050565b600582811b8201805160018501831b8401805160028701851b8601805160038901871b8801805160048b0190981b8901805167ffffffffffffffff861985168918811690995283198a16861889169096528819861683188816909352841986168818871690528419831684189095169052919391929190611c7f565b6127726000826126eb565b61277d6005826126eb565b612788600a826126eb565b612793600f826126eb565b61279e6014826126eb565b50565b6127aa81612246565b6127b381612767565b600383901b820151815160c09190911c9061207e90821867ffffffffffffffff168352565b6127e4600082846127a1565b6127f0600182846127a1565b6127fc600282846127a1565b612808600382846127a1565b612814600482846127a1565b612820600582846127a1565b61282c600682846127a1565b612838600782846127a1565b612844600882846127a1565b612850600982846127a1565b61285c600a82846127a1565b612868600b82846127a1565b612874600c82846127a1565b612880600d82846127a1565b61288c600e82846127a1565b612898600f82846127a1565b6128a4601082846127a1565b6128b0601182846127a1565b6128bc601282846127a1565b6128c8601382846127a1565b6128d4601482846127a1565b6128e0601582846127a1565b6128ec601682846127a1565b61207e601782846127a1565b73ffffffffffffffffffffffffffffffffffffffff83811660009081526016602090815260408083208684529091528082208054908390559051909284169083908381818185875af1925050503d8060008114612971576040519150601f19603f3d011682016040523d82523d6000602084013e612976565b606091505b50509050806126e4576040517f83e6cc6b00000000000000000000000000000000000000000000000000000000815260040160405180910390fd5b7f01000000000000000000000000000000000000000000000000000000000000007effffffffffffffffffffffffffffffffffffffffffffffffffffffffffffff831617612a57818360408051600093845233602052918152606090922091527effffffffffffffffffffffffffffffffffffffffffffffffffffffffffffff167f01000000000000000000000000000000000000000000000000000000000000001790565b9392505050565b6060604051905081602082018181018286833760888306808015612aa75760888290038501848101848103803687375060806001820353506001845160001a1784538652612abe565b608836843760018353608060878401536088850186525b5050505050601f19603f82510116810160405292915050565b6000612ae98260a01c63ffffffff1690565b67ffffffffffffffff1690506000612b078360801c63ffffffff1690565b63ffffffff1690506000612b218460401c63ffffffff1690565b63ffffffff169050600883108015612b37575080155b15612b6b5760c082901b6000908152883560085283513382526017602090815260408084208a855290915290912055612c20565b60088310158015612b89575080612b83600885613759565b93508310155b8015612b9d5750612b9a87826135ea565b83105b15612c20576000612bae8285613759565b905087612bbc8260206135ea565b10158015612bc8575085155b15612bff576040517ffe25498700000000000000000000000000000000000000000000000000000000815260040160405180910390fd5b3360009081526017602090815260408083208a845290915290209089013590555b5050505050505050565b6000612cad565b66ff00ff00ff00ff8160081c1667ff00ff00ff00ff00612c5b8360081b67ffffffffffffffff1690565b1617905065ffff0000ffff8160101c1667ffff0000ffff0000612c888360101b67ffffffffffffffff1690565b1617905060008160201c612ca68360201b67ffffffffffffffff1690565b1792915050565b60808201516020830190612cc590612c31565b612c31565b6040820151612cd390612c31565b60401b17612ceb612cc060018460059190911b015190565b825160809190911b90612cfd90612c31565b60c01b17179392505050565b8260108101928215612d37579160200282015b82811115612d37578251825591602001919060010190612d1c565b50612d43929150612d5f565b5090565b6040518060200160405280612d5a612d74565b905290565b5b80821115612d435760008155600101612d60565b6040518061032001604052806019906020820280368337509192915050565b600060208284031215612da557600080fd5b5035919050565b803573ffffffffffffffffffffffffffffffffffffffff81168114612dd057600080fd5b919050565b60008060408385031215612de857600080fd5b612df183612dac565b946020939093013593505050565b7f4e487b7100000000000000000000000000000000000000000000000000000000600052604160045260246000fd5b604051610320810167ffffffffffffffff81118282101715612e5257612e52612dff565b60405290565b6040516060810167ffffffffffffffff81118282101715612e5257612e52612dff565b604051601f8201601f1916810167ffffffffffffffff81118282101715612ea457612ea4612dff565b604052919050565b803567ffffffffffffffff81168114612dd057600080fd5b6000610320808385031215612ed857600080fd5b604051602080820182811067ffffffffffffffff82111715612efc57612efc612dff565b806040525081935085601f860112612f1357600080fd5b612f1b612e2e565b928501928087851115612f2d57600080fd5b865b85811015612f4d57612f4081612eac565b8352918301918301612f2f565b509092525091949350505050565b600060608284031215612f6d57600080fd5b50919050565b60008083601f840112612f8557600080fd5b50813567ffffffffffffffff811115612f9d57600080fd5b6020830191508360208260051b8501011115612fb857600080fd5b9250929050565b60008060008060008060008060006103e08a8c031215612fde57600080fd5b612fe78a612dac565b985060208a01359750612ffd8b60408c01612ec4565b96506103608a013567ffffffffffffffff8082111561301b57600080fd5b6130278d838e01612f5b565b97506103808c013591508082111561303e57600080fd5b61304a8d838e01612f73565b90975095506103a08c013591508082111561306457600080fd5b6130708d838e01612f5b565b94506103c08c013591508082111561308757600080fd5b506130948c828d01612f73565b915080935050809150509295985092959850929598565b600080600080600060a086880312156130c357600080fd5b505083359560208501359550604085013594606081013594506080013592509050565b60005b838110156131015781810151838201526020016130e9565b8381111561207e5750506000910152565b60208152600082518060208401526131318160408501602087016130e6565b601f01601f19169190910160400192915050565b6000806040838503121561315857600080fd5b50508035926020909101359150565b60008083601f84011261317957600080fd5b50813567ffffffffffffffff81111561319157600080fd5b602083019150836020828501011115612fb857600080fd5b600080600080600080600060a0888a0312156131c457600080fd5b8735965060208801359550604088013567ffffffffffffffff808211156131ea57600080fd5b6131f68b838c01613167565b909750955060608a013591508082111561320f57600080fd5b5061321c8a828b01612f73565b9094509250506080880135801515811461323557600080fd5b8091505092959891949750929550565b60008060006060848603121561325a57600080fd5b61326384612dac565b95602085013595506040909401359392505050565b60008060006040848603121561328d57600080fd5b83359250602084013567ffffffffffffffff8111156132ab57600080fd5b6132b786828701613167565b9497909650939450505050565b600080600080600080600060a0888a0312156132df57600080fd5b8735965060208801359550604088013567ffffffffffffffff8082111561330557600080fd5b6133118b838c01613167565b909750955060608a013591508082111561332a57600080fd5b506133378a828b01613167565b989b979a50959894979596608090950135949350505050565b60008060008060006080868803121561336857600080fd5b8535945061337860208701612dac565b935061338660408701612eac565b9250606086013567ffffffffffffffff8111156133a257600080fd5b6133ae88828901613167565b969995985093965092949392505050565b6000806000806000608086880312156133d757600080fd5b6133e086612dac565b945060208601359350604086013567ffffffffffffffff8082111561340457600080fd5b61341089838a01612f5b565b9450606088013591508082111561342657600080fd5b506133ae88828901612f73565b803563ffffffff81168114612dd057600080fd5b60008060006060848603121561345c57600080fd5b8335925061346c60208501613433565b915061347a60408501613433565b90509250925092565b7f4e487b7100000000000000000000000000000000000000000000000000000000600052603260045260246000fd5b7f4e487b7100000000000000000000000000000000000000000000000000000000600052601160045260246000fd5b600060001982036134f4576134f46134b2565b5060010190565b60006060823603121561350d57600080fd5b613515612e58565b823567ffffffffffffffff8082111561352d57600080fd5b9084019036601f83011261354057600080fd5b813560208282111561355457613554612dff565b61356681601f19601f85011601612e7b565b9250818352368183860101111561357c57600080fd5b81818501828501376000918301810191909152908352848101359083015250604092830135928101929092525090565b81516103208201908260005b60198110156135e157825167ffffffffffffffff168252602092830192909101906001016135b8565b50505092915050565b600082198211156135fd576135fd6134b2565b500190565b60008083357fffffffffffffffffffffffffffffffffffffffffffffffffffffffffffffffe184360301811261363757600080fd5b83018035915067ffffffffffffffff82111561365257600080fd5b602001915036819003821315612fb857600080fd5b600181815b808511156136a2578160001904821115613688576136886134b2565b8085161561369557918102915b93841c939080029061366c565b509250929050565b6000826136b957506001613747565b816136c657506000613747565b81600181146136dc57600281146136e657613702565b6001915050613747565b60ff8411156136f7576136f76134b2565b50506001821b613747565b5060208310610133831016604e8410600b8410161715613725575081810a613747565b61372f8383613667565b8060001904821115613743576137436134b2565b0290505b92915050565b6000612a5783836136aa565b60008282101561376b5761376b6134b2565b500390565b600063ffffffff8381169083168181101561378d5761378d6134b2565b039392505050565b600063ffffffff8083168185168083038211156137b4576137b46134b2565b01949350505050565b600084516137cf8184602089016130e6565b9190910192835250602082015260400191905056fea264697066735822122074465d72ecc28eef0fd2bc19f7c80b8483b7bbe3dee74f3a580a2a4b0fcaaa3064736f6c634300080f0033",
  "devdoc": {
    "custom:attribution": "Solady <https://github.com/Vectorized/solady/blob/main/src/utils/MerkleProofLib.sol#L13-L43>Beacon Deposit Contract <0x00000000219ab540356cbb839cbe05303d7705fa>",
    "kind": "dev",
    "methods": {
      "loadBlobPreimagePart(uint256,uint256,bytes,bytes,uint256)": {
        "params": {
          "_commitment": "The commitment to the polynomial. 48 bytes, part of the preimage key.",
          "_partOffset": "The offset of the preimage to store.",
          "_proof": "The KZG proof, part of the preimage key.",
          "_y": "Big endian point value. The preimage for the key.",
          "_z": "Big endian point value. Part of the preimage key."
        }
      },
      "loadKeccak256PreimagePart(uint256,bytes)": {
        "params": {
          "_partOffset": "The offset of the preimage to read.",
          "_preimage": "The preimage data."
        }
      },
      "loadLocalData(uint256,bytes32,bytes32,uint256,uint256)": {
        "details": "The local data parts are loaded into the preimage oracle under the context      of the caller - no other account can write to the caller's context      specific data.      There are 5 local data identifiers:      ┌────────────┬────────────────────────┐      │ Identifier │      Data              │      ├────────────┼────────────────────────┤      │          1 │ L1 Head Hash (bytes32) │      │          2 │ Output Root (bytes32)  │      │          3 │ Root Claim (bytes32)   │      │          4 │ L2 Block Number (u64)  │      │          5 │ Chain ID (u64)         │      └────────────┴────────────────────────┘",
        "params": {
          "_ident": "The identifier of the local data.",
          "_localContext": "The local key context for the preimage oracle. Optionally, can be set as a constant                      if the caller only requires one set of local keys.",
          "_partOffset": "The offset of the local data part to write to the oracle.",
          "_size": "The number of bytes in `_word` to load.",
          "_word": "The local data word."
        }
      },
      "loadPrecompilePreimagePart(uint256,address,uint64,bytes)": {
        "params": {
          "_input": "The input to the precompile call.",
          "_partOffset": "The offset of the precompile result being loaded.",
          "_precompile": "The precompile address",
          "_requiredGas": "The gas required to fully execute an L1 precompile."
        }
      },
      "loadSha256PreimagePart(uint256,bytes)": {
        "params": {
          "_partOffset": "The offset of the preimage to read.",
          "_preimage": "The preimage data."
        }
      },
      "readPreimage(bytes32,uint256)": {
        "params": {
          "_key": "The key of the preimage to read.",
          "_offset": "The offset of the preimage to read."
        },
        "returns": {
          "datLen_": "The length of the preimage data.",
          "dat_": "The preimage data."
        }
      }
    },
    "stateVariables": {
      "version": {
        "custom:semver": "1.1.2-rc.1"
      }
    },
    "title": "PreimageOracle",
    "version": 1
  },
  "userdoc": {
    "errors": {
      "ActiveProposal()": [
        {
          "notice": "Thrown when the proposal has not matured past the challenge period."
        }
      ],
      "AlreadyFinalized()": [
        {
          "notice": "Thrown when the preimage proposal has already been finalized."
        }
      ],
      "AlreadyInitialized()": [
        {
          "notice": "Thrown when attempting to re-initialize an existing large preimage proposal."
        }
      ],
      "BadProposal()": [
        {
          "notice": "Thrown when attempting to finalize a proposal that has been challenged."
        }
      ],
      "BondTransferFailed()": [
        {
          "notice": "Thrown when a bond transfer fails."
        }
      ],
      "InsufficientBond()": [
        {
          "notice": "Thrown when an insufficient bond is provided for a large preimage proposal."
        }
      ],
      "InvalidInputSize()": [
        {
          "notice": "Thrown when a leaf with an invalid input size is added."
        }
      ],
      "InvalidPreimage()": [
        {
          "notice": "Thrown when the prestate preimage doesn't match the claimed preimage."
        }
      ],
      "InvalidProof()": [
        {
          "notice": "Thrown when a merkle proof fails to verify."
        }
      ],
      "NotEOA()": [
        {
          "notice": "Thrown when the caller of a function is not an EOA."
        }
      ],
      "NotInitialized()": [
        {
          "notice": "Thrown when attempting to add leaves to a preimage proposal that has not been initialized."
        }
      ],
      "PartOffsetOOB()": [
        {
          "notice": "Thrown when a passed part offset is out of bounds."
        }
      ],
      "PostStateMatches()": [
        {
          "notice": "Thrown when the permutation yields the expected result."
        }
      ],
      "StatesNotContiguous()": [
        {
          "notice": "Thrown when the pre and post states passed aren't contiguous."
        }
      ],
      "TreeSizeOverflow()": [
        {
          "notice": "Thrown when the preimage is too large to fit in the tree."
        }
      ],
      "WrongStartingBlock()": [
        {
          "notice": "Thrown when data is submitted out of order in a large preimage proposal."
        }
      ]
    },
    "kind": "user",
    "methods": {
      "KECCAK_TREE_DEPTH()": {
        "notice": "The depth of the keccak256 merkle tree. Supports up to 65,536 keccak blocks, or ~8.91MB preimages."
      },
      "MAX_LEAF_COUNT()": {
        "notice": "The maximum number of keccak blocks that can fit into the merkle tree."
      },
      "MIN_BOND_SIZE()": {
        "notice": "The minimum bond size for large preimage proposals."
      },
      "PRECOMPILE_CALL_RESERVED_GAS()": {
        "notice": "The reserved gas for precompile call setup."
      },
      "addLeavesLPP(uint256,uint256,bytes,bytes32[],bool)": {
        "notice": "Adds a contiguous list of keccak state matrices to the merkle tree."
      },
      "challengeFirstLPP(address,uint256,(bytes,uint256,bytes32),bytes32[])": {
        "notice": "Challenge the first keccak256 block that was absorbed."
      },
      "challengeLPP(address,uint256,(uint64[25]),(bytes,uint256,bytes32),bytes32[],(bytes,uint256,bytes32),bytes32[])": {
        "notice": "Challenge a keccak256 block that was committed to in the merkle tree."
      },
      "challengePeriod()": {
        "notice": "Returns the length of the large preimage proposal challenge period."
      },
      "getTreeRootLPP(address,uint256)": {
        "notice": "Gets the current merkle root of the large preimage proposal tree."
      },
      "initLPP(uint256,uint32,uint32)": {
        "notice": "Initialize a large preimage proposal. Must be called before adding any leaves."
      },
      "loadKeccak256PreimagePart(uint256,bytes)": {
        "notice": "Prepares a preimage to be read by keccak256 key, starting at the given offset and up to 32 bytes         (clipped at preimage length, if out of data)."
      },
      "loadLocalData(uint256,bytes32,bytes32,uint256,uint256)": {
        "notice": "Loads of local data part into the preimage oracle."
      },
      "loadPrecompilePreimagePart(uint256,address,uint64,bytes)": {
        "notice": "Prepares a precompile result to be read by a precompile key for the specified offset.         The precompile result data is a concatenation of the precompile call status byte and its return data.         The preimage key is `6 ++ keccak256(precompile ++ input)[1:]`."
      },
      "loadSha256PreimagePart(uint256,bytes)": {
        "notice": "Prepares a preimage to be read by sha256 key, starting at the given offset and up to 32 bytes         (clipped at preimage length, if out of data)."
      },
      "minProposalSize()": {
        "notice": "Returns the minimum size (in bytes) of a large preimage proposal."
      },
      "preimageLengths(bytes32)": {
        "notice": "Mapping of pre-image keys to pre-image lengths."
      },
      "preimagePartOk(bytes32,uint256)": {
        "notice": "Mapping of pre-image keys to pre-image part offsets to preimage preparedness."
      },
      "preimageParts(bytes32,uint256)": {
        "notice": "Mapping of pre-image keys to pre-image offsets to pre-image parts."
      },
      "proposalBlocks(address,uint256,uint256)": {
        "notice": "Mapping of claimants to proposal UUIDs to blocks which leaves were added to the merkle tree."
      },
      "proposalBlocksLen(address,uint256)": {
        "notice": "Returns the length of the array with the block numbers of `addLeavesLPP` calls for a given large         preimage proposal."
      },
      "proposalBonds(address,uint256)": {
        "notice": "Mapping of claimants to proposal UUIDs to bond amounts."
      },
      "proposalBranches(address,uint256,uint256)": {
        "notice": "Mapping of claimants to proposal UUIDs to the current branch path of the merkleization process."
      },
      "proposalCount()": {
        "notice": "Returns the length of the `proposals` array"
      },
      "proposalMetadata(address,uint256)": {
        "notice": "Mapping of claimants to proposal UUIDs to the timestamp of creation of the proposal as well as the challenged status."
      },
      "proposalParts(address,uint256)": {
        "notice": "Mapping of claimants to proposal UUIDs to the preimage part picked up during the absorbtion process."
      },
      "proposals(uint256)": {
        "notice": "Append-only array of large preimage proposals for off-chain reference."
      },
      "readPreimage(bytes32,uint256)": {
        "notice": "Reads a preimage from the oracle."
      },
      "squeezeLPP(address,uint256,(uint64[25]),(bytes,uint256,bytes32),bytes32[],(bytes,uint256,bytes32),bytes32[])": {
        "notice": "Finalize a large preimage proposal after the challenge period has passed."
      },
      "version()": {
        "notice": "The semantic version of the Preimage Oracle contract."
      },
      "zeroHashes(uint256)": {
        "notice": "Static padding hashes. These values are persisted in storage, but are entirely immutable         after the constructor's execution."
      }
    },
    "notice": "A contract for storing permissioned pre-images.",
    "version": 1
  },
  "storageLayout": {
    "storage": [
      {
        "astId": 5466,
        "contract": "contracts/L1/cannon/PreimageOracle.sol:PreimageOracle",
        "label": "preimageLengths",
        "offset": 0,
        "slot": "0",
        "type": "t_mapping(t_bytes32,t_uint256)"
      },
      {
        "astId": 5473,
        "contract": "contracts/L1/cannon/PreimageOracle.sol:PreimageOracle",
        "label": "preimageParts",
        "offset": 0,
        "slot": "1",
        "type": "t_mapping(t_bytes32,t_mapping(t_uint256,t_bytes32))"
      },
      {
        "astId": 5480,
        "contract": "contracts/L1/cannon/PreimageOracle.sol:PreimageOracle",
        "label": "preimagePartOk",
        "offset": 0,
        "slot": "2",
        "type": "t_mapping(t_bytes32,t_mapping(t_uint256,t_bool))"
      },
      {
        "astId": 5502,
        "contract": "contracts/L1/cannon/PreimageOracle.sol:PreimageOracle",
        "label": "zeroHashes",
        "offset": 0,
        "slot": "3",
        "type": "t_array(t_bytes32)16_storage"
      },
      {
        "astId": 5507,
        "contract": "contracts/L1/cannon/PreimageOracle.sol:PreimageOracle",
        "label": "proposals",
        "offset": 0,
        "slot": "19",
        "type": "t_array(t_struct(LargePreimageProposalKeys)5497_storage)dyn_storage"
      },
      {
        "astId": 5516,
        "contract": "contracts/L1/cannon/PreimageOracle.sol:PreimageOracle",
        "label": "proposalBranches",
        "offset": 0,
        "slot": "20",
        "type": "t_mapping(t_address,t_mapping(t_uint256,t_array(t_bytes32)16_storage))"
      },
      {
        "astId": 5524,
        "contract": "contracts/L1/cannon/PreimageOracle.sol:PreimageOracle",
        "label": "proposalMetadata",
        "offset": 0,
        "slot": "21",
        "type": "t_mapping(t_address,t_mapping(t_uint256,t_userDefinedValueType(LPPMetaData)7116))"
      },
      {
        "astId": 5531,
        "contract": "contracts/L1/cannon/PreimageOracle.sol:PreimageOracle",
        "label": "proposalBonds",
        "offset": 0,
        "slot": "22",
        "type": "t_mapping(t_address,t_mapping(t_uint256,t_uint256))"
      },
      {
        "astId": 5538,
        "contract": "contracts/L1/cannon/PreimageOracle.sol:PreimageOracle",
        "label": "proposalParts",
        "offset": 0,
        "slot": "23",
        "type": "t_mapping(t_address,t_mapping(t_uint256,t_bytes32))"
      },
      {
        "astId": 5546,
        "contract": "contracts/L1/cannon/PreimageOracle.sol:PreimageOracle",
        "label": "proposalBlocks",
        "offset": 0,
        "slot": "24",
        "type": "t_mapping(t_address,t_mapping(t_uint256,t_array(t_uint64)dyn_storage))"
      }
    ],
    "types": {
      "t_address": {
        "encoding": "inplace",
        "label": "address",
        "numberOfBytes": "20"
      },
      "t_array(t_bytes32)16_storage": {
        "base": "t_bytes32",
        "encoding": "inplace",
        "label": "bytes32[16]",
        "numberOfBytes": "512"
      },
      "t_array(t_struct(LargePreimageProposalKeys)5497_storage)dyn_storage": {
        "base": "t_struct(LargePreimageProposalKeys)5497_storage",
        "encoding": "dynamic_array",
        "label": "struct PreimageOracle.LargePreimageProposalKeys[]",
        "numberOfBytes": "32"
      },
      "t_array(t_uint64)dyn_storage": {
        "base": "t_uint64",
        "encoding": "dynamic_array",
        "label": "uint64[]",
        "numberOfBytes": "32"
      },
      "t_bool": {
        "encoding": "inplace",
        "label": "bool",
        "numberOfBytes": "1"
      },
      "t_bytes32": {
        "encoding": "inplace",
        "label": "bytes32",
        "numberOfBytes": "32"
      },
      "t_mapping(t_address,t_mapping(t_uint256,t_array(t_bytes32)16_storage))": {
        "encoding": "mapping",
        "key": "t_address",
        "label": "mapping(address => mapping(uint256 => bytes32[16]))",
        "numberOfBytes": "32",
        "value": "t_mapping(t_uint256,t_array(t_bytes32)16_storage)"
      },
      "t_mapping(t_address,t_mapping(t_uint256,t_array(t_uint64)dyn_storage))": {
        "encoding": "mapping",
        "key": "t_address",
        "label": "mapping(address => mapping(uint256 => uint64[]))",
        "numberOfBytes": "32",
        "value": "t_mapping(t_uint256,t_array(t_uint64)dyn_storage)"
      },
      "t_mapping(t_address,t_mapping(t_uint256,t_bytes32))": {
        "encoding": "mapping",
        "key": "t_address",
        "label": "mapping(address => mapping(uint256 => bytes32))",
        "numberOfBytes": "32",
        "value": "t_mapping(t_uint256,t_bytes32)"
      },
      "t_mapping(t_address,t_mapping(t_uint256,t_uint256))": {
        "encoding": "mapping",
        "key": "t_address",
        "label": "mapping(address => mapping(uint256 => uint256))",
        "numberOfBytes": "32",
        "value": "t_mapping(t_uint256,t_uint256)"
      },
      "t_mapping(t_address,t_mapping(t_uint256,t_userDefinedValueType(LPPMetaData)7116))": {
        "encoding": "mapping",
        "key": "t_address",
        "label": "mapping(address => mapping(uint256 => LPPMetaData))",
        "numberOfBytes": "32",
        "value": "t_mapping(t_uint256,t_userDefinedValueType(LPPMetaData)7116)"
      },
      "t_mapping(t_bytes32,t_mapping(t_uint256,t_bool))": {
        "encoding": "mapping",
        "key": "t_bytes32",
        "label": "mapping(bytes32 => mapping(uint256 => bool))",
        "numberOfBytes": "32",
        "value": "t_mapping(t_uint256,t_bool)"
      },
      "t_mapping(t_bytes32,t_mapping(t_uint256,t_bytes32))": {
        "encoding": "mapping",
        "key": "t_bytes32",
        "label": "mapping(bytes32 => mapping(uint256 => bytes32))",
        "numberOfBytes": "32",
        "value": "t_mapping(t_uint256,t_bytes32)"
      },
      "t_mapping(t_bytes32,t_uint256)": {
        "encoding": "mapping",
        "key": "t_bytes32",
        "label": "mapping(bytes32 => uint256)",
        "numberOfBytes": "32",
        "value": "t_uint256"
      },
      "t_mapping(t_uint256,t_array(t_bytes32)16_storage)": {
        "encoding": "mapping",
        "key": "t_uint256",
        "label": "mapping(uint256 => bytes32[16])",
        "numberOfBytes": "32",
        "value": "t_array(t_bytes32)16_storage"
      },
      "t_mapping(t_uint256,t_array(t_uint64)dyn_storage)": {
        "encoding": "mapping",
        "key": "t_uint256",
        "label": "mapping(uint256 => uint64[])",
        "numberOfBytes": "32",
        "value": "t_array(t_uint64)dyn_storage"
      },
      "t_mapping(t_uint256,t_bool)": {
        "encoding": "mapping",
        "key": "t_uint256",
        "label": "mapping(uint256 => bool)",
        "numberOfBytes": "32",
        "value": "t_bool"
      },
      "t_mapping(t_uint256,t_bytes32)": {
        "encoding": "mapping",
        "key": "t_uint256",
        "label": "mapping(uint256 => bytes32)",
        "numberOfBytes": "32",
        "value": "t_bytes32"
      },
      "t_mapping(t_uint256,t_uint256)": {
        "encoding": "mapping",
        "key": "t_uint256",
        "label": "mapping(uint256 => uint256)",
        "numberOfBytes": "32",
        "value": "t_uint256"
      },
      "t_mapping(t_uint256,t_userDefinedValueType(LPPMetaData)7116)": {
        "encoding": "mapping",
        "key": "t_uint256",
        "label": "mapping(uint256 => LPPMetaData)",
        "numberOfBytes": "32",
        "value": "t_userDefinedValueType(LPPMetaData)7116"
      },
      "t_struct(LargePreimageProposalKeys)5497_storage": {
        "encoding": "inplace",
        "label": "struct PreimageOracle.LargePreimageProposalKeys",
        "members": [
          {
            "astId": 5493,
            "contract": "contracts/L1/cannon/PreimageOracle.sol:PreimageOracle",
            "label": "claimant",
            "offset": 0,
            "slot": "0",
            "type": "t_address"
          },
          {
            "astId": 5496,
            "contract": "contracts/L1/cannon/PreimageOracle.sol:PreimageOracle",
            "label": "uuid",
            "offset": 0,
            "slot": "1",
            "type": "t_uint256"
          }
        ],
        "numberOfBytes": "64"
      },
      "t_uint256": {
        "encoding": "inplace",
        "label": "uint256",
        "numberOfBytes": "32"
      },
      "t_uint64": {
        "encoding": "inplace",
        "label": "uint64",
        "numberOfBytes": "8"
      },
      "t_userDefinedValueType(LPPMetaData)7116": {
        "encoding": "inplace",
        "label": "LPPMetaData",
        "numberOfBytes": "32"
      }
    }
  }
}